{
	"contracts/CheckIn.sol": {
		"CheckIn": {
			"abi": [
				{
					"inputs": [],
					"stateMutability": "nonpayable",
					"type": "constructor"
				},
				{
					"anonymous": false,
					"inputs": [
						{
							"indexed": false,
							"internalType": "address",
							"name": "_user",
							"type": "address"
						}
					],
					"name": "CheckInSuccessful",
					"type": "event"
				},
				{
					"anonymous": false,
					"inputs": [
						{
							"indexed": false,
							"internalType": "bytes32",
							"name": "_errorMessage",
							"type": "bytes32"
						}
					],
					"name": "CheckOutFailed",
					"type": "event"
				},
				{
					"anonymous": false,
					"inputs": [
						{
							"indexed": false,
							"internalType": "string",
							"name": "_name",
							"type": "string"
						},
						{
							"indexed": false,
							"internalType": "uint256",
							"name": "_id",
							"type": "uint256"
						},
						{
							"indexed": false,
							"internalType": "bool",
							"name": "isCheckedIn",
							"type": "bool"
						}
					],
					"name": "NewVisitorAdded",
					"type": "event"
				},
				{
					"inputs": [
						{
							"internalType": "string",
							"name": "_name",
							"type": "string"
						},
						{
							"internalType": "string",
							"name": "_contact",
							"type": "string"
						},
						{
							"internalType": "string",
							"name": "_recipient",
							"type": "string"
						},
						{
							"internalType": "string",
							"name": "_purpose",
							"type": "string"
						}
					],
					"name": "addVisitor",
					"outputs": [],
					"stateMutability": "nonpayable",
					"type": "function"
				},
				{
					"inputs": [
						{
							"internalType": "uint256",
							"name": "Id",
							"type": "uint256"
						}
					],
					"name": "checkOut",
					"outputs": [],
					"stateMutability": "nonpayable",
					"type": "function"
				},
				{
					"inputs": [
						{
							"internalType": "uint256",
							"name": "Id",
							"type": "uint256"
						}
					],
					"name": "checkOutFailed",
					"outputs": [],
					"stateMutability": "nonpayable",
					"type": "function"
				},
				{
					"inputs": [],
					"name": "checkinvisitors",
					"outputs": [
						{
							"internalType": "uint256",
							"name": "Id",
							"type": "uint256"
						},
						{
							"internalType": "string",
							"name": "name",
							"type": "string"
						},
						{
							"internalType": "string",
							"name": "contact",
							"type": "string"
						},
						{
							"internalType": "string",
							"name": "recipient",
							"type": "string"
						},
						{
							"internalType": "string",
							"name": "purpose",
							"type": "string"
						},
						{
							"internalType": "uint256",
							"name": "timeIn",
							"type": "uint256"
						},
						{
							"internalType": "uint256",
							"name": "timeOut",
							"type": "uint256"
						},
						{
							"internalType": "bytes32",
							"name": "signature",
							"type": "bytes32"
						},
						{
							"internalType": "bool",
							"name": "isCheckedIn",
							"type": "bool"
						},
						{
							"internalType": "bool",
							"name": "isCheckedOut",
							"type": "bool"
						}
					],
					"stateMutability": "view",
					"type": "function"
				},
				{
					"inputs": [],
					"name": "getTotalVisitors",
					"outputs": [
						{
							"internalType": "uint256",
							"name": "",
							"type": "uint256"
						}
					],
					"stateMutability": "view",
					"type": "function"
				},
				{
					"inputs": [
						{
							"internalType": "uint256",
							"name": "_id",
							"type": "uint256"
						}
					],
					"name": "getVisitorDetails",
					"outputs": [
						{
							"components": [
								{
									"internalType": "uint256",
									"name": "Id",
									"type": "uint256"
								},
								{
									"internalType": "string",
									"name": "name",
									"type": "string"
								},
								{
									"internalType": "string",
									"name": "contact",
									"type": "string"
								},
								{
									"internalType": "string",
									"name": "recipient",
									"type": "string"
								},
								{
									"internalType": "string",
									"name": "purpose",
									"type": "string"
								},
								{
									"internalType": "uint256",
									"name": "timeIn",
									"type": "uint256"
								},
								{
									"internalType": "uint256",
									"name": "timeOut",
									"type": "uint256"
								},
								{
									"internalType": "bytes32",
									"name": "signature",
									"type": "bytes32"
								},
								{
									"internalType": "bool",
									"name": "isCheckedIn",
									"type": "bool"
								},
								{
									"internalType": "bool",
									"name": "isCheckedOut",
									"type": "bool"
								}
							],
							"internalType": "struct CheckIn.Visitor",
							"name": "",
							"type": "tuple"
						}
					],
					"stateMutability": "view",
					"type": "function"
				},
				{
					"inputs": [
						{
							"internalType": "uint256",
							"name": "_id",
							"type": "uint256"
						}
					],
					"name": "getVisitorSignature",
					"outputs": [
						{
							"internalType": "bytes32",
							"name": "",
							"type": "bytes32"
						}
					],
					"stateMutability": "view",
					"type": "function"
				},
				{
					"inputs": [],
					"name": "owner",
					"outputs": [
						{
							"internalType": "address",
							"name": "",
							"type": "address"
						}
					],
					"stateMutability": "view",
					"type": "function"
				},
				{
					"inputs": [],
					"name": "totalVisitors",
					"outputs": [
						{
							"internalType": "uint256",
							"name": "",
							"type": "uint256"
						}
					],
					"stateMutability": "view",
					"type": "function"
				},
				{
					"inputs": [
						{
							"internalType": "uint256",
							"name": "Id",
							"type": "uint256"
						},
						{
							"internalType": "string",
							"name": "_name",
							"type": "string"
						},
						{
							"internalType": "string",
							"name": "_contact",
							"type": "string"
						},
						{
							"internalType": "string",
							"name": "_recipient",
							"type": "string"
						},
						{
							"internalType": "string",
							"name": "_purpose",
							"type": "string"
						}
					],
					"name": "updateVisitorDetails",
					"outputs": [],
					"stateMutability": "nonpayable",
					"type": "function"
				},
				{
					"inputs": [
						{
							"internalType": "uint256",
							"name": "Id",
							"type": "uint256"
						},
						{
							"internalType": "bytes32",
							"name": "_signature",
							"type": "bytes32"
						}
					],
					"name": "updateVisitorSignature",
					"outputs": [],
					"stateMutability": "nonpayable",
					"type": "function"
				},
				{
					"inputs": [
						{
							"internalType": "uint256",
							"name": "",
							"type": "uint256"
						}
					],
					"name": "visitors",
					"outputs": [
						{
							"internalType": "uint256",
							"name": "Id",
							"type": "uint256"
						},
						{
							"internalType": "string",
							"name": "name",
							"type": "string"
						},
						{
							"internalType": "string",
							"name": "contact",
							"type": "string"
						},
						{
							"internalType": "string",
							"name": "recipient",
							"type": "string"
						},
						{
							"internalType": "string",
							"name": "purpose",
							"type": "string"
						},
						{
							"internalType": "uint256",
							"name": "timeIn",
							"type": "uint256"
						},
						{
							"internalType": "uint256",
							"name": "timeOut",
							"type": "uint256"
						},
						{
							"internalType": "bytes32",
							"name": "signature",
							"type": "bytes32"
						},
						{
							"internalType": "bool",
							"name": "isCheckedIn",
							"type": "bool"
						},
						{
							"internalType": "bool",
							"name": "isCheckedOut",
							"type": "bool"
						}
					],
					"stateMutability": "view",
					"type": "function"
				}
			],
			"devdoc": {
				"kind": "dev",
				"methods": {},
				"version": 1
			},
			"evm": {
				"assembly": "    /* \"contracts/CheckIn.sol\":66:4907  contract CheckIn {... */\n  mstore(0x40, 0x80)\n    /* \"contracts/CheckIn.sol\":1787:1836  constructor() {... */\n  callvalue\n  dup1\n  iszero\n  tag_1\n  jumpi\n  0x00\n  dup1\n  revert\ntag_1:\n  pop\n    /* \"contracts/CheckIn.sol\":1819:1829  msg.sender */\n  caller\n    /* \"contracts/CheckIn.sol\":1811:1816  owner */\n  0x01\n  0x00\n    /* \"contracts/CheckIn.sol\":1811:1829  owner = msg.sender */\n  0x0100\n  exp\n  dup2\n  sload\n  dup2\n  0xffffffffffffffffffffffffffffffffffffffff\n  mul\n  not\n  and\n  swap1\n  dup4\n  0xffffffffffffffffffffffffffffffffffffffff\n  and\n  mul\n  or\n  swap1\n  sstore\n  pop\n    /* \"contracts/CheckIn.sol\":66:4907  contract CheckIn {... */\n  dataSize(sub_0)\n  dup1\n  dataOffset(sub_0)\n  0x00\n  codecopy\n  0x00\n  return\nstop\n\nsub_0: assembly {\n        /* \"contracts/CheckIn.sol\":66:4907  contract CheckIn {... */\n      mstore(0x40, 0x80)\n      callvalue\n      dup1\n      iszero\n      tag_1\n      jumpi\n      0x00\n      dup1\n      revert\n    tag_1:\n      pop\n      jumpi(tag_2, lt(calldatasize, 0x04))\n      shr(0xe0, calldataload(0x00))\n      dup1\n      0x8da5cb5b\n      gt\n      tag_15\n      jumpi\n      dup1\n      0x8da5cb5b\n      eq\n      tag_9\n      jumpi\n      dup1\n      0xa1702aed\n      eq\n      tag_10\n      jumpi\n      dup1\n      0xa5dd4c5e\n      eq\n      tag_11\n      jumpi\n      dup1\n      0xc22f6289\n      eq\n      tag_12\n      jumpi\n      dup1\n      0xd16208ec\n      eq\n      tag_13\n      jumpi\n      dup1\n      0xfcfcf440\n      eq\n      tag_14\n      jumpi\n      jump(tag_2)\n    tag_15:\n      dup1\n      0x167b548b\n      eq\n      tag_3\n      jumpi\n      dup1\n      0x1bd2eeee\n      eq\n      tag_4\n      jumpi\n      dup1\n      0x34e8659f\n      eq\n      tag_5\n      jumpi\n      dup1\n      0x42b71a36\n      eq\n      tag_6\n      jumpi\n      dup1\n      0x46230406\n      eq\n      tag_7\n      jumpi\n      dup1\n      0x8a18ef65\n      eq\n      tag_8\n      jumpi\n    tag_2:\n      0x00\n      dup1\n      revert\n        /* \"contracts/CheckIn.sol\":3791:4099  function updateVisitorSignature(uint256 Id, bytes32 _signature)... */\n    tag_3:\n      tag_16\n      0x04\n      dup1\n      calldatasize\n      sub\n      dup2\n      add\n      swap1\n      tag_17\n      swap2\n      swap1\n      tag_18\n      jump\t// in\n    tag_17:\n      tag_19\n      jump\t// in\n    tag_16:\n      stop\n        /* \"contracts/CheckIn.sol\":4161:4552  function checkOut(uint256 Id) public isVisitorCheckedIn(Id) {... */\n    tag_4:\n      tag_20\n      0x04\n      dup1\n      calldatasize\n      sub\n      dup2\n      add\n      swap1\n      tag_21\n      swap2\n      swap1\n      tag_22\n      jump\t// in\n    tag_21:\n      tag_23\n      jump\t// in\n    tag_20:\n      stop\n        /* \"contracts/CheckIn.sol\":585:615  Visitor public checkinvisitors */\n    tag_5:\n      tag_24\n      tag_25\n      jump\t// in\n    tag_24:\n      mload(0x40)\n      tag_26\n      swap11\n      swap10\n      swap9\n      swap8\n      swap7\n      swap6\n      swap5\n      swap4\n      swap3\n      swap2\n      swap1\n      tag_27\n      jump\t// in\n    tag_26:\n      mload(0x40)\n      dup1\n      swap2\n      sub\n      swap1\n      return\n        /* \"contracts/CheckIn.sol\":536:579  mapping(uint256 => Visitor) public visitors */\n    tag_6:\n      tag_28\n      0x04\n      dup1\n      calldatasize\n      sub\n      dup2\n      add\n      swap1\n      tag_29\n      swap2\n      swap1\n      tag_22\n      jump\t// in\n    tag_29:\n      tag_30\n      jump\t// in\n    tag_28:\n      mload(0x40)\n      tag_31\n      swap11\n      swap10\n      swap9\n      swap8\n      swap7\n      swap6\n      swap5\n      swap4\n      swap3\n      swap2\n      swap1\n      tag_27\n      jump\t// in\n    tag_31:\n      mload(0x40)\n      dup1\n      swap2\n      sub\n      swap1\n      return\n        /* \"contracts/CheckIn.sol\":4604:4905  function checkOutFailed(uint256 Id) public {... */\n    tag_7:\n      tag_32\n      0x04\n      dup1\n      calldatasize\n      sub\n      dup2\n      add\n      swap1\n      tag_33\n      swap2\n      swap1\n      tag_22\n      jump\t// in\n    tag_33:\n      tag_34\n      jump\t// in\n    tag_32:\n      stop\n        /* \"contracts/CheckIn.sol\":1886:2496  function addVisitor(... */\n    tag_8:\n      tag_35\n      0x04\n      dup1\n      calldatasize\n      sub\n      dup2\n      add\n      swap1\n      tag_36\n      swap2\n      swap1\n      tag_37\n      jump\t// in\n    tag_36:\n      tag_38\n      jump\t// in\n    tag_35:\n      stop\n        /* \"contracts/CheckIn.sol\":465:485  address public owner */\n    tag_9:\n      tag_39\n      tag_40\n      jump\t// in\n    tag_39:\n      mload(0x40)\n      tag_41\n      swap2\n      swap1\n      tag_42\n      jump\t// in\n    tag_41:\n      mload(0x40)\n      dup1\n      swap2\n      sub\n      swap1\n      return\n        /* \"contracts/CheckIn.sol\":431:459  uint256 public totalVisitors */\n    tag_10:\n      tag_43\n      tag_44\n      jump\t// in\n    tag_43:\n      mload(0x40)\n      tag_45\n      swap2\n      swap1\n      tag_46\n      jump\t// in\n    tag_45:\n      mload(0x40)\n      dup1\n      swap2\n      sub\n      swap1\n      return\n        /* \"contracts/CheckIn.sol\":3539:3727  function getVisitorSignature(uint256 _id)... */\n    tag_11:\n      tag_47\n      0x04\n      dup1\n      calldatasize\n      sub\n      dup2\n      add\n      swap1\n      tag_48\n      swap2\n      swap1\n      tag_22\n      jump\t// in\n    tag_48:\n      tag_49\n      jump\t// in\n    tag_47:\n      mload(0x40)\n      tag_50\n      swap2\n      swap1\n      tag_51\n      jump\t// in\n    tag_50:\n      mload(0x40)\n      dup1\n      swap2\n      sub\n      swap1\n      return\n        /* \"contracts/CheckIn.sol\":2555:2722  function getVisitorDetails(uint256 _id)... */\n    tag_12:\n      tag_52\n      0x04\n      dup1\n      calldatasize\n      sub\n      dup2\n      add\n      swap1\n      tag_53\n      swap2\n      swap1\n      tag_22\n      jump\t// in\n    tag_53:\n      tag_54\n      jump\t// in\n    tag_52:\n      mload(0x40)\n      tag_55\n      swap2\n      swap1\n      tag_56\n      jump\t// in\n    tag_55:\n      mload(0x40)\n      dup1\n      swap2\n      sub\n      swap1\n      return\n        /* \"contracts/CheckIn.sol\":2781:3317  function updateVisitorDetails(... */\n    tag_13:\n      tag_57\n      0x04\n      dup1\n      calldatasize\n      sub\n      dup2\n      add\n      swap1\n      tag_58\n      swap2\n      swap1\n      tag_59\n      jump\t// in\n    tag_58:\n      tag_60\n      jump\t// in\n    tag_57:\n      stop\n        /* \"contracts/CheckIn.sol\":3383:3478  function getTotalVisitors() public view returns (uint256) {... */\n    tag_14:\n      tag_61\n      tag_62\n      jump\t// in\n    tag_61:\n      mload(0x40)\n      tag_63\n      swap2\n      swap1\n      tag_46\n      jump\t// in\n    tag_63:\n      mload(0x40)\n      dup1\n      swap2\n      sub\n      swap1\n      return\n        /* \"contracts/CheckIn.sol\":3791:4099  function updateVisitorSignature(uint256 Id, bytes32 _signature)... */\n    tag_19:\n        /* \"contracts/CheckIn.sol\":925:930  owner */\n      0x01\n      0x00\n      swap1\n      sload\n      swap1\n      0x0100\n      exp\n      swap1\n      div\n      0xffffffffffffffffffffffffffffffffffffffff\n      and\n        /* \"contracts/CheckIn.sol\":911:930  msg.sender == owner */\n      0xffffffffffffffffffffffffffffffffffffffff\n      and\n        /* \"contracts/CheckIn.sol\":911:921  msg.sender */\n      caller\n        /* \"contracts/CheckIn.sol\":911:930  msg.sender == owner */\n      0xffffffffffffffffffffffffffffffffffffffff\n      and\n      eq\n        /* \"contracts/CheckIn.sol\":903:950  require(msg.sender == owner, \"Not authorized!\") */\n      tag_65\n      jumpi\n      mload(0x40)\n      0x08c379a000000000000000000000000000000000000000000000000000000000\n      dup2\n      mstore\n      0x04\n      add\n      tag_66\n      swap1\n      tag_67\n      jump\t// in\n    tag_66:\n      mload(0x40)\n      dup1\n      swap2\n      sub\n      swap1\n      revert\n    tag_65:\n        /* \"contracts/CheckIn.sol\":3915:3917  Id */\n      dup2\n        /* \"contracts/CheckIn.sol\":1103:1104  1 */\n      0x01\n        /* \"contracts/CheckIn.sol\":1084:1092  visitors */\n      0x02\n        /* \"contracts/CheckIn.sol\":1084:1096  visitors[Id] */\n      0x00\n        /* \"contracts/CheckIn.sol\":1093:1095  Id */\n      dup4\n        /* \"contracts/CheckIn.sol\":1084:1096  visitors[Id] */\n      dup2\n      mstore\n      0x20\n      add\n      swap1\n      dup2\n      mstore\n      0x20\n      add\n      0x00\n      keccak256\n        /* \"contracts/CheckIn.sol\":1084:1099  visitors[Id].Id */\n      0x00\n      add\n      sload\n        /* \"contracts/CheckIn.sol\":1084:1104  visitors[Id].Id >= 1 */\n      lt\n      iszero\n        /* \"contracts/CheckIn.sol\":1076:1129  require(visitors[Id].Id >= 1, \"Visitor Id not found\") */\n      tag_69\n      jumpi\n      mload(0x40)\n      0x08c379a000000000000000000000000000000000000000000000000000000000\n      dup2\n      mstore\n      0x04\n      add\n      tag_70\n      swap1\n      tag_71\n      jump\t// in\n    tag_70:\n      mload(0x40)\n      dup1\n      swap2\n      sub\n      swap1\n      revert\n    tag_69:\n        /* \"contracts/CheckIn.sol\":1188:1192  true */\n      0x01\n        /* \"contracts/CheckIn.sol\":1160:1192  visitors[Id].isCheckedIn == true */\n      iszero\n      iszero\n        /* \"contracts/CheckIn.sol\":1160:1168  visitors */\n      0x02\n        /* \"contracts/CheckIn.sol\":1160:1172  visitors[Id] */\n      0x00\n        /* \"contracts/CheckIn.sol\":1169:1171  Id */\n      dup4\n        /* \"contracts/CheckIn.sol\":1160:1172  visitors[Id] */\n      dup2\n      mstore\n      0x20\n      add\n      swap1\n      dup2\n      mstore\n      0x20\n      add\n      0x00\n      keccak256\n        /* \"contracts/CheckIn.sol\":1160:1184  visitors[Id].isCheckedIn */\n      0x08\n      add\n      0x00\n      swap1\n      sload\n      swap1\n      0x0100\n      exp\n      swap1\n      div\n      0xff\n      and\n        /* \"contracts/CheckIn.sol\":1160:1192  visitors[Id].isCheckedIn == true */\n      iszero\n      iszero\n      eq\n        /* \"contracts/CheckIn.sol\":1139:1255  require(... */\n      tag_72\n      jumpi\n      mload(0x40)\n      0x08c379a000000000000000000000000000000000000000000000000000000000\n      dup2\n      mstore\n      0x04\n      add\n      tag_73\n      swap1\n      tag_74\n      jump\t// in\n    tag_73:\n      mload(0x40)\n      dup1\n      swap2\n      sub\n      swap1\n      revert\n    tag_72:\n        /* \"contracts/CheckIn.sol\":3947:3960  totalVisitors */\n      sload(0x00)\n        /* \"contracts/CheckIn.sol\":3941:3943  Id */\n      dup4\n        /* \"contracts/CheckIn.sol\":3941:3960  Id <= totalVisitors */\n      gt\n      iszero\n        /* \"contracts/CheckIn.sol\":3933:3992  require(Id <= totalVisitors, \"The visitor does not exist!\") */\n      tag_76\n      jumpi\n      mload(0x40)\n      0x08c379a000000000000000000000000000000000000000000000000000000000\n      dup2\n      mstore\n      0x04\n      add\n      tag_77\n      swap1\n      tag_78\n      jump\t// in\n    tag_77:\n      mload(0x40)\n      dup1\n      swap2\n      sub\n      swap1\n      revert\n    tag_76:\n        /* \"contracts/CheckIn.sol\":4027:4037  _signature */\n      dup2\n        /* \"contracts/CheckIn.sol\":4002:4010  visitors */\n      0x02\n        /* \"contracts/CheckIn.sol\":4002:4014  visitors[Id] */\n      0x00\n        /* \"contracts/CheckIn.sol\":4011:4013  Id */\n      dup6\n        /* \"contracts/CheckIn.sol\":4002:4014  visitors[Id] */\n      dup2\n      mstore\n      0x20\n      add\n      swap1\n      dup2\n      mstore\n      0x20\n      add\n      0x00\n      keccak256\n        /* \"contracts/CheckIn.sol\":4002:4024  visitors[Id].signature */\n      0x07\n      add\n        /* \"contracts/CheckIn.sol\":4002:4037  visitors[Id].signature = _signature */\n      dup2\n      swap1\n      sstore\n      pop\n        /* \"contracts/CheckIn.sol\":4052:4092  NewVisitorAdded(\"\", totalVisitors, true) */\n      0x699b4741e93376d2bdd9c5f5a8a0aed91700830694fd4d952f1f41ec3e2c4cb3\n        /* \"contracts/CheckIn.sol\":4072:4085  totalVisitors */\n      sload(0x00)\n        /* \"contracts/CheckIn.sol\":4087:4091  true */\n      0x01\n        /* \"contracts/CheckIn.sol\":4052:4092  NewVisitorAdded(\"\", totalVisitors, true) */\n      mload(0x40)\n      tag_79\n      swap3\n      swap2\n      swap1\n      tag_80\n      jump\t// in\n    tag_79:\n      mload(0x40)\n      dup1\n      swap2\n      sub\n      swap1\n      log1\n        /* \"contracts/CheckIn.sol\":960:961  _ */\n      pop\n        /* \"contracts/CheckIn.sol\":3791:4099  function updateVisitorSignature(uint256 Id, bytes32 _signature)... */\n      pop\n      pop\n      jump\t// out\n        /* \"contracts/CheckIn.sol\":4161:4552  function checkOut(uint256 Id) public isVisitorCheckedIn(Id) {... */\n    tag_23:\n        /* \"contracts/CheckIn.sol\":4217:4219  Id */\n      dup1\n        /* \"contracts/CheckIn.sol\":1103:1104  1 */\n      0x01\n        /* \"contracts/CheckIn.sol\":1084:1092  visitors */\n      0x02\n        /* \"contracts/CheckIn.sol\":1084:1096  visitors[Id] */\n      0x00\n        /* \"contracts/CheckIn.sol\":1093:1095  Id */\n      dup4\n        /* \"contracts/CheckIn.sol\":1084:1096  visitors[Id] */\n      dup2\n      mstore\n      0x20\n      add\n      swap1\n      dup2\n      mstore\n      0x20\n      add\n      0x00\n      keccak256\n        /* \"contracts/CheckIn.sol\":1084:1099  visitors[Id].Id */\n      0x00\n      add\n      sload\n        /* \"contracts/CheckIn.sol\":1084:1104  visitors[Id].Id >= 1 */\n      lt\n      iszero\n        /* \"contracts/CheckIn.sol\":1076:1129  require(visitors[Id].Id >= 1, \"Visitor Id not found\") */\n      tag_82\n      jumpi\n      mload(0x40)\n      0x08c379a000000000000000000000000000000000000000000000000000000000\n      dup2\n      mstore\n      0x04\n      add\n      tag_83\n      swap1\n      tag_71\n      jump\t// in\n    tag_83:\n      mload(0x40)\n      dup1\n      swap2\n      sub\n      swap1\n      revert\n    tag_82:\n        /* \"contracts/CheckIn.sol\":1188:1192  true */\n      0x01\n        /* \"contracts/CheckIn.sol\":1160:1192  visitors[Id].isCheckedIn == true */\n      iszero\n      iszero\n        /* \"contracts/CheckIn.sol\":1160:1168  visitors */\n      0x02\n        /* \"contracts/CheckIn.sol\":1160:1172  visitors[Id] */\n      0x00\n        /* \"contracts/CheckIn.sol\":1169:1171  Id */\n      dup4\n        /* \"contracts/CheckIn.sol\":1160:1172  visitors[Id] */\n      dup2\n      mstore\n      0x20\n      add\n      swap1\n      dup2\n      mstore\n      0x20\n      add\n      0x00\n      keccak256\n        /* \"contracts/CheckIn.sol\":1160:1184  visitors[Id].isCheckedIn */\n      0x08\n      add\n      0x00\n      swap1\n      sload\n      swap1\n      0x0100\n      exp\n      swap1\n      div\n      0xff\n      and\n        /* \"contracts/CheckIn.sol\":1160:1192  visitors[Id].isCheckedIn == true */\n      iszero\n      iszero\n      eq\n        /* \"contracts/CheckIn.sol\":1139:1255  require(... */\n      tag_84\n      jumpi\n      mload(0x40)\n      0x08c379a000000000000000000000000000000000000000000000000000000000\n      dup2\n      mstore\n      0x04\n      add\n      tag_85\n      swap1\n      tag_74\n      jump\t// in\n    tag_85:\n      mload(0x40)\n      dup1\n      swap2\n      sub\n      swap1\n      revert\n    tag_84:\n        /* \"contracts/CheckIn.sol\":4245:4258  totalVisitors */\n      sload(0x00)\n        /* \"contracts/CheckIn.sol\":4239:4241  Id */\n      dup3\n        /* \"contracts/CheckIn.sol\":4239:4258  Id <= totalVisitors */\n      gt\n      iszero\n        /* \"contracts/CheckIn.sol\":4231:4289  require(Id <= totalVisitors, \"The visitor does not exist\") */\n      tag_87\n      jumpi\n      mload(0x40)\n      0x08c379a000000000000000000000000000000000000000000000000000000000\n      dup2\n      mstore\n      0x04\n      add\n      tag_88\n      swap1\n      tag_89\n      jump\t// in\n    tag_88:\n      mload(0x40)\n      dup1\n      swap2\n      sub\n      swap1\n      revert\n    tag_87:\n        /* \"contracts/CheckIn.sol\":4308:4316  visitors */\n      0x02\n        /* \"contracts/CheckIn.sol\":4308:4320  visitors[Id] */\n      0x00\n        /* \"contracts/CheckIn.sol\":4317:4319  Id */\n      dup4\n        /* \"contracts/CheckIn.sol\":4308:4320  visitors[Id] */\n      dup2\n      mstore\n      0x20\n      add\n      swap1\n      dup2\n      mstore\n      0x20\n      add\n      0x00\n      keccak256\n        /* \"contracts/CheckIn.sol\":4308:4333  visitors[Id].isCheckedOut */\n      0x08\n      add\n      0x01\n      swap1\n      sload\n      swap1\n      0x0100\n      exp\n      swap1\n      div\n      0xff\n      and\n        /* \"contracts/CheckIn.sol\":4307:4333  !visitors[Id].isCheckedOut */\n      iszero\n        /* \"contracts/CheckIn.sol\":4299:4366  require(!visitors[Id].isCheckedOut, \"You have already checked out\") */\n      tag_90\n      jumpi\n      mload(0x40)\n      0x08c379a000000000000000000000000000000000000000000000000000000000\n      dup2\n      mstore\n      0x04\n      add\n      tag_91\n      swap1\n      tag_92\n      jump\t// in\n    tag_91:\n      mload(0x40)\n      dup1\n      swap2\n      sub\n      swap1\n      revert\n    tag_90:\n        /* \"contracts/CheckIn.sol\":4449:4453  true */\n      0x01\n        /* \"contracts/CheckIn.sol\":4421:4429  visitors */\n      0x02\n        /* \"contracts/CheckIn.sol\":4421:4433  visitors[Id] */\n      0x00\n        /* \"contracts/CheckIn.sol\":4430:4432  Id */\n      dup5\n        /* \"contracts/CheckIn.sol\":4421:4433  visitors[Id] */\n      dup2\n      mstore\n      0x20\n      add\n      swap1\n      dup2\n      mstore\n      0x20\n      add\n      0x00\n      keccak256\n        /* \"contracts/CheckIn.sol\":4421:4446  visitors[Id].isCheckedOut */\n      0x08\n      add\n      0x01\n        /* \"contracts/CheckIn.sol\":4421:4453  visitors[Id].isCheckedOut = true */\n      0x0100\n      exp\n      dup2\n      sload\n      dup2\n      0xff\n      mul\n      not\n      and\n      swap1\n      dup4\n      iszero\n      iszero\n      mul\n      or\n      swap1\n      sstore\n      pop\n        /* \"contracts/CheckIn.sol\":4486:4501  block.timestamp */\n      timestamp\n        /* \"contracts/CheckIn.sol\":4463:4471  visitors */\n      0x02\n        /* \"contracts/CheckIn.sol\":4463:4475  visitors[Id] */\n      0x00\n        /* \"contracts/CheckIn.sol\":4472:4474  Id */\n      dup5\n        /* \"contracts/CheckIn.sol\":4463:4475  visitors[Id] */\n      dup2\n      mstore\n      0x20\n      add\n      swap1\n      dup2\n      mstore\n      0x20\n      add\n      0x00\n      keccak256\n        /* \"contracts/CheckIn.sol\":4463:4483  visitors[Id].timeOut */\n      0x06\n      add\n        /* \"contracts/CheckIn.sol\":4463:4501  visitors[Id].timeOut = block.timestamp */\n      dup2\n      swap1\n      sstore\n      pop\n        /* \"contracts/CheckIn.sol\":4516:4545  CheckInSuccessful(msg.sender) */\n      0x67e0ac3e4440bbfda925762e9652b0005af4ae4ea0b33a9f34c5276bbf245515\n        /* \"contracts/CheckIn.sol\":4534:4544  msg.sender */\n      caller\n        /* \"contracts/CheckIn.sol\":4516:4545  CheckInSuccessful(msg.sender) */\n      mload(0x40)\n      tag_93\n      swap2\n      swap1\n      tag_42\n      jump\t// in\n    tag_93:\n      mload(0x40)\n      dup1\n      swap2\n      sub\n      swap1\n      log1\n        /* \"contracts/CheckIn.sol\":4161:4552  function checkOut(uint256 Id) public isVisitorCheckedIn(Id) {... */\n      pop\n      pop\n      jump\t// out\n        /* \"contracts/CheckIn.sol\":585:615  Visitor public checkinvisitors */\n    tag_25:\n      0x03\n      dup1\n      0x00\n      add\n      sload\n      swap1\n      dup1\n      0x01\n      add\n      dup1\n      sload\n      tag_94\n      swap1\n      tag_95\n      jump\t// in\n    tag_94:\n      dup1\n      0x1f\n      add\n      0x20\n      dup1\n      swap2\n      div\n      mul\n      0x20\n      add\n      mload(0x40)\n      swap1\n      dup2\n      add\n      0x40\n      mstore\n      dup1\n      swap3\n      swap2\n      swap1\n      dup2\n      dup2\n      mstore\n      0x20\n      add\n      dup3\n      dup1\n      sload\n      tag_96\n      swap1\n      tag_95\n      jump\t// in\n    tag_96:\n      dup1\n      iszero\n      tag_97\n      jumpi\n      dup1\n      0x1f\n      lt\n      tag_98\n      jumpi\n      0x0100\n      dup1\n      dup4\n      sload\n      div\n      mul\n      dup4\n      mstore\n      swap2\n      0x20\n      add\n      swap2\n      jump(tag_97)\n    tag_98:\n      dup3\n      add\n      swap2\n      swap1\n      0x00\n      mstore\n      keccak256(0x00, 0x20)\n      swap1\n    tag_99:\n      dup2\n      sload\n      dup2\n      mstore\n      swap1\n      0x01\n      add\n      swap1\n      0x20\n      add\n      dup1\n      dup4\n      gt\n      tag_99\n      jumpi\n      dup3\n      swap1\n      sub\n      0x1f\n      and\n      dup3\n      add\n      swap2\n    tag_97:\n      pop\n      pop\n      pop\n      pop\n      pop\n      swap1\n      dup1\n      0x02\n      add\n      dup1\n      sload\n      tag_100\n      swap1\n      tag_95\n      jump\t// in\n    tag_100:\n      dup1\n      0x1f\n      add\n      0x20\n      dup1\n      swap2\n      div\n      mul\n      0x20\n      add\n      mload(0x40)\n      swap1\n      dup2\n      add\n      0x40\n      mstore\n      dup1\n      swap3\n      swap2\n      swap1\n      dup2\n      dup2\n      mstore\n      0x20\n      add\n      dup3\n      dup1\n      sload\n      tag_101\n      swap1\n      tag_95\n      jump\t// in\n    tag_101:\n      dup1\n      iszero\n      tag_102\n      jumpi\n      dup1\n      0x1f\n      lt\n      tag_103\n      jumpi\n      0x0100\n      dup1\n      dup4\n      sload\n      div\n      mul\n      dup4\n      mstore\n      swap2\n      0x20\n      add\n      swap2\n      jump(tag_102)\n    tag_103:\n      dup3\n      add\n      swap2\n      swap1\n      0x00\n      mstore\n      keccak256(0x00, 0x20)\n      swap1\n    tag_104:\n      dup2\n      sload\n      dup2\n      mstore\n      swap1\n      0x01\n      add\n      swap1\n      0x20\n      add\n      dup1\n      dup4\n      gt\n      tag_104\n      jumpi\n      dup3\n      swap1\n      sub\n      0x1f\n      and\n      dup3\n      add\n      swap2\n    tag_102:\n      pop\n      pop\n      pop\n      pop\n      pop\n      swap1\n      dup1\n      0x03\n      add\n      dup1\n      sload\n      tag_105\n      swap1\n      tag_95\n      jump\t// in\n    tag_105:\n      dup1\n      0x1f\n      add\n      0x20\n      dup1\n      swap2\n      div\n      mul\n      0x20\n      add\n      mload(0x40)\n      swap1\n      dup2\n      add\n      0x40\n      mstore\n      dup1\n      swap3\n      swap2\n      swap1\n      dup2\n      dup2\n      mstore\n      0x20\n      add\n      dup3\n      dup1\n      sload\n      tag_106\n      swap1\n      tag_95\n      jump\t// in\n    tag_106:\n      dup1\n      iszero\n      tag_107\n      jumpi\n      dup1\n      0x1f\n      lt\n      tag_108\n      jumpi\n      0x0100\n      dup1\n      dup4\n      sload\n      div\n      mul\n      dup4\n      mstore\n      swap2\n      0x20\n      add\n      swap2\n      jump(tag_107)\n    tag_108:\n      dup3\n      add\n      swap2\n      swap1\n      0x00\n      mstore\n      keccak256(0x00, 0x20)\n      swap1\n    tag_109:\n      dup2\n      sload\n      dup2\n      mstore\n      swap1\n      0x01\n      add\n      swap1\n      0x20\n      add\n      dup1\n      dup4\n      gt\n      tag_109\n      jumpi\n      dup3\n      swap1\n      sub\n      0x1f\n      and\n      dup3\n      add\n      swap2\n    tag_107:\n      pop\n      pop\n      pop\n      pop\n      pop\n      swap1\n      dup1\n      0x04\n      add\n      dup1\n      sload\n      tag_110\n      swap1\n      tag_95\n      jump\t// in\n    tag_110:\n      dup1\n      0x1f\n      add\n      0x20\n      dup1\n      swap2\n      div\n      mul\n      0x20\n      add\n      mload(0x40)\n      swap1\n      dup2\n      add\n      0x40\n      mstore\n      dup1\n      swap3\n      swap2\n      swap1\n      dup2\n      dup2\n      mstore\n      0x20\n      add\n      dup3\n      dup1\n      sload\n      tag_111\n      swap1\n      tag_95\n      jump\t// in\n    tag_111:\n      dup1\n      iszero\n      tag_112\n      jumpi\n      dup1\n      0x1f\n      lt\n      tag_113\n      jumpi\n      0x0100\n      dup1\n      dup4\n      sload\n      div\n      mul\n      dup4\n      mstore\n      swap2\n      0x20\n      add\n      swap2\n      jump(tag_112)\n    tag_113:\n      dup3\n      add\n      swap2\n      swap1\n      0x00\n      mstore\n      keccak256(0x00, 0x20)\n      swap1\n    tag_114:\n      dup2\n      sload\n      dup2\n      mstore\n      swap1\n      0x01\n      add\n      swap1\n      0x20\n      add\n      dup1\n      dup4\n      gt\n      tag_114\n      jumpi\n      dup3\n      swap1\n      sub\n      0x1f\n      and\n      dup3\n      add\n      swap2\n    tag_112:\n      pop\n      pop\n      pop\n      pop\n      pop\n      swap1\n      dup1\n      0x05\n      add\n      sload\n      swap1\n      dup1\n      0x06\n      add\n      sload\n      swap1\n      dup1\n      0x07\n      add\n      sload\n      swap1\n      dup1\n      0x08\n      add\n      0x00\n      swap1\n      sload\n      swap1\n      0x0100\n      exp\n      swap1\n      div\n      0xff\n      and\n      swap1\n      dup1\n      0x08\n      add\n      0x01\n      swap1\n      sload\n      swap1\n      0x0100\n      exp\n      swap1\n      div\n      0xff\n      and\n      swap1\n      pop\n      dup11\n      jump\t// out\n        /* \"contracts/CheckIn.sol\":536:579  mapping(uint256 => Visitor) public visitors */\n    tag_30:\n      mstore(0x20, 0x02)\n      dup1\n      0x00\n      mstore\n      keccak256(0x00, 0x40)\n      0x00\n      swap2\n      pop\n      swap1\n      pop\n      dup1\n      0x00\n      add\n      sload\n      swap1\n      dup1\n      0x01\n      add\n      dup1\n      sload\n      tag_115\n      swap1\n      tag_95\n      jump\t// in\n    tag_115:\n      dup1\n      0x1f\n      add\n      0x20\n      dup1\n      swap2\n      div\n      mul\n      0x20\n      add\n      mload(0x40)\n      swap1\n      dup2\n      add\n      0x40\n      mstore\n      dup1\n      swap3\n      swap2\n      swap1\n      dup2\n      dup2\n      mstore\n      0x20\n      add\n      dup3\n      dup1\n      sload\n      tag_116\n      swap1\n      tag_95\n      jump\t// in\n    tag_116:\n      dup1\n      iszero\n      tag_117\n      jumpi\n      dup1\n      0x1f\n      lt\n      tag_118\n      jumpi\n      0x0100\n      dup1\n      dup4\n      sload\n      div\n      mul\n      dup4\n      mstore\n      swap2\n      0x20\n      add\n      swap2\n      jump(tag_117)\n    tag_118:\n      dup3\n      add\n      swap2\n      swap1\n      0x00\n      mstore\n      keccak256(0x00, 0x20)\n      swap1\n    tag_119:\n      dup2\n      sload\n      dup2\n      mstore\n      swap1\n      0x01\n      add\n      swap1\n      0x20\n      add\n      dup1\n      dup4\n      gt\n      tag_119\n      jumpi\n      dup3\n      swap1\n      sub\n      0x1f\n      and\n      dup3\n      add\n      swap2\n    tag_117:\n      pop\n      pop\n      pop\n      pop\n      pop\n      swap1\n      dup1\n      0x02\n      add\n      dup1\n      sload\n      tag_120\n      swap1\n      tag_95\n      jump\t// in\n    tag_120:\n      dup1\n      0x1f\n      add\n      0x20\n      dup1\n      swap2\n      div\n      mul\n      0x20\n      add\n      mload(0x40)\n      swap1\n      dup2\n      add\n      0x40\n      mstore\n      dup1\n      swap3\n      swap2\n      swap1\n      dup2\n      dup2\n      mstore\n      0x20\n      add\n      dup3\n      dup1\n      sload\n      tag_121\n      swap1\n      tag_95\n      jump\t// in\n    tag_121:\n      dup1\n      iszero\n      tag_122\n      jumpi\n      dup1\n      0x1f\n      lt\n      tag_123\n      jumpi\n      0x0100\n      dup1\n      dup4\n      sload\n      div\n      mul\n      dup4\n      mstore\n      swap2\n      0x20\n      add\n      swap2\n      jump(tag_122)\n    tag_123:\n      dup3\n      add\n      swap2\n      swap1\n      0x00\n      mstore\n      keccak256(0x00, 0x20)\n      swap1\n    tag_124:\n      dup2\n      sload\n      dup2\n      mstore\n      swap1\n      0x01\n      add\n      swap1\n      0x20\n      add\n      dup1\n      dup4\n      gt\n      tag_124\n      jumpi\n      dup3\n      swap1\n      sub\n      0x1f\n      and\n      dup3\n      add\n      swap2\n    tag_122:\n      pop\n      pop\n      pop\n      pop\n      pop\n      swap1\n      dup1\n      0x03\n      add\n      dup1\n      sload\n      tag_125\n      swap1\n      tag_95\n      jump\t// in\n    tag_125:\n      dup1\n      0x1f\n      add\n      0x20\n      dup1\n      swap2\n      div\n      mul\n      0x20\n      add\n      mload(0x40)\n      swap1\n      dup2\n      add\n      0x40\n      mstore\n      dup1\n      swap3\n      swap2\n      swap1\n      dup2\n      dup2\n      mstore\n      0x20\n      add\n      dup3\n      dup1\n      sload\n      tag_126\n      swap1\n      tag_95\n      jump\t// in\n    tag_126:\n      dup1\n      iszero\n      tag_127\n      jumpi\n      dup1\n      0x1f\n      lt\n      tag_128\n      jumpi\n      0x0100\n      dup1\n      dup4\n      sload\n      div\n      mul\n      dup4\n      mstore\n      swap2\n      0x20\n      add\n      swap2\n      jump(tag_127)\n    tag_128:\n      dup3\n      add\n      swap2\n      swap1\n      0x00\n      mstore\n      keccak256(0x00, 0x20)\n      swap1\n    tag_129:\n      dup2\n      sload\n      dup2\n      mstore\n      swap1\n      0x01\n      add\n      swap1\n      0x20\n      add\n      dup1\n      dup4\n      gt\n      tag_129\n      jumpi\n      dup3\n      swap1\n      sub\n      0x1f\n      and\n      dup3\n      add\n      swap2\n    tag_127:\n      pop\n      pop\n      pop\n      pop\n      pop\n      swap1\n      dup1\n      0x04\n      add\n      dup1\n      sload\n      tag_130\n      swap1\n      tag_95\n      jump\t// in\n    tag_130:\n      dup1\n      0x1f\n      add\n      0x20\n      dup1\n      swap2\n      div\n      mul\n      0x20\n      add\n      mload(0x40)\n      swap1\n      dup2\n      add\n      0x40\n      mstore\n      dup1\n      swap3\n      swap2\n      swap1\n      dup2\n      dup2\n      mstore\n      0x20\n      add\n      dup3\n      dup1\n      sload\n      tag_131\n      swap1\n      tag_95\n      jump\t// in\n    tag_131:\n      dup1\n      iszero\n      tag_132\n      jumpi\n      dup1\n      0x1f\n      lt\n      tag_133\n      jumpi\n      0x0100\n      dup1\n      dup4\n      sload\n      div\n      mul\n      dup4\n      mstore\n      swap2\n      0x20\n      add\n      swap2\n      jump(tag_132)\n    tag_133:\n      dup3\n      add\n      swap2\n      swap1\n      0x00\n      mstore\n      keccak256(0x00, 0x20)\n      swap1\n    tag_134:\n      dup2\n      sload\n      dup2\n      mstore\n      swap1\n      0x01\n      add\n      swap1\n      0x20\n      add\n      dup1\n      dup4\n      gt\n      tag_134\n      jumpi\n      dup3\n      swap1\n      sub\n      0x1f\n      and\n      dup3\n      add\n      swap2\n    tag_132:\n      pop\n      pop\n      pop\n      pop\n      pop\n      swap1\n      dup1\n      0x05\n      add\n      sload\n      swap1\n      dup1\n      0x06\n      add\n      sload\n      swap1\n      dup1\n      0x07\n      add\n      sload\n      swap1\n      dup1\n      0x08\n      add\n      0x00\n      swap1\n      sload\n      swap1\n      0x0100\n      exp\n      swap1\n      div\n      0xff\n      and\n      swap1\n      dup1\n      0x08\n      add\n      0x01\n      swap1\n      sload\n      swap1\n      0x0100\n      exp\n      swap1\n      div\n      0xff\n      and\n      swap1\n      pop\n      dup11\n      jump\t// out\n        /* \"contracts/CheckIn.sol\":4604:4905  function checkOutFailed(uint256 Id) public {... */\n    tag_34:\n        /* \"contracts/CheckIn.sol\":4679:4687  visitors */\n      0x02\n        /* \"contracts/CheckIn.sol\":4679:4691  visitors[Id] */\n      0x00\n        /* \"contracts/CheckIn.sol\":4688:4690  Id */\n      dup3\n        /* \"contracts/CheckIn.sol\":4679:4691  visitors[Id] */\n      dup2\n      mstore\n      0x20\n      add\n      swap1\n      dup2\n      mstore\n      0x20\n      add\n      0x00\n      keccak256\n        /* \"contracts/CheckIn.sol\":4679:4703  visitors[Id].isCheckedIn */\n      0x08\n      add\n      0x00\n      swap1\n      sload\n      swap1\n      0x0100\n      exp\n      swap1\n      div\n      0xff\n      and\n        /* \"contracts/CheckIn.sol\":4678:4703  !visitors[Id].isCheckedIn */\n      iszero\n        /* \"contracts/CheckIn.sol\":4678:4748  !visitors[Id].isCheckedIn &&... */\n      dup1\n      iszero\n      tag_136\n      jumpi\n      pop\n        /* \"contracts/CheckIn.sol\":4723:4731  visitors */\n      0x02\n        /* \"contracts/CheckIn.sol\":4723:4735  visitors[Id] */\n      0x00\n        /* \"contracts/CheckIn.sol\":4732:4734  Id */\n      dup3\n        /* \"contracts/CheckIn.sol\":4723:4735  visitors[Id] */\n      dup2\n      mstore\n      0x20\n      add\n      swap1\n      dup2\n      mstore\n      0x20\n      add\n      0x00\n      keccak256\n        /* \"contracts/CheckIn.sol\":4723:4748  visitors[Id].isCheckedOut */\n      0x08\n      add\n      0x01\n      swap1\n      sload\n      swap1\n      0x0100\n      exp\n      swap1\n      div\n      0xff\n      and\n        /* \"contracts/CheckIn.sol\":4678:4748  !visitors[Id].isCheckedIn &&... */\n    tag_136:\n        /* \"contracts/CheckIn.sol\":4678:4793  !visitors[Id].isCheckedIn &&... */\n      dup1\n      iszero\n      tag_137\n      jumpi\n      pop\n        /* \"contracts/CheckIn.sol\":4792:4793  0 */\n      0x00\n        /* \"contracts/CheckIn.sol\":4768:4776  visitors */\n      0x02\n        /* \"contracts/CheckIn.sol\":4768:4780  visitors[Id] */\n      0x00\n        /* \"contracts/CheckIn.sol\":4777:4779  Id */\n      dup4\n        /* \"contracts/CheckIn.sol\":4768:4780  visitors[Id] */\n      dup2\n      mstore\n      0x20\n      add\n      swap1\n      dup2\n      mstore\n      0x20\n      add\n      0x00\n      keccak256\n        /* \"contracts/CheckIn.sol\":4768:4788  visitors[Id].timeOut */\n      0x06\n      add\n      sload\n        /* \"contracts/CheckIn.sol\":4768:4793  visitors[Id].timeOut == 0 */\n      eq\n        /* \"contracts/CheckIn.sol\":4678:4793  !visitors[Id].isCheckedIn &&... */\n    tag_137:\n        /* \"contracts/CheckIn.sol\":4657:4850  require(... */\n      tag_138\n      jumpi\n      mload(0x40)\n      0x08c379a000000000000000000000000000000000000000000000000000000000\n      dup2\n      mstore\n      0x04\n      add\n      tag_139\n      swap1\n      tag_140\n      jump\t// in\n    tag_139:\n      mload(0x40)\n      dup1\n      swap2\n      sub\n      swap1\n      revert\n    tag_138:\n        /* \"contracts/CheckIn.sol\":4865:4898  CheckOutFailed(\"checkout failed\") */\n      0x4accae0510aff42328fdab7223365068b65a22cf36b966795b86a914e577641e\n      mload(0x40)\n      tag_141\n      swap1\n      tag_142\n      jump\t// in\n    tag_141:\n      mload(0x40)\n      dup1\n      swap2\n      sub\n      swap1\n      log1\n        /* \"contracts/CheckIn.sol\":4604:4905  function checkOutFailed(uint256 Id) public {... */\n      pop\n      jump\t// out\n        /* \"contracts/CheckIn.sol\":1886:2496  function addVisitor(... */\n    tag_38:\n        /* \"contracts/CheckIn.sol\":2056:2069  totalVisitors */\n      0x00\n      dup1\n        /* \"contracts/CheckIn.sol\":2056:2071  totalVisitors++ */\n      dup2\n      sload\n      dup1\n      swap3\n      swap2\n      swap1\n      tag_144\n      swap1\n      tag_145\n      jump\t// in\n    tag_144:\n      swap2\n      swap1\n      pop\n      sstore\n      pop\n        /* \"contracts/CheckIn.sol\":2107:2431  Visitor({... */\n      mload(0x40)\n      dup1\n      0x0140\n      add\n      0x40\n      mstore\n      dup1\n        /* \"contracts/CheckIn.sol\":2133:2146  totalVisitors */\n      sload(0x00)\n        /* \"contracts/CheckIn.sol\":2107:2431  Visitor({... */\n      dup2\n      mstore\n      0x20\n      add\n        /* \"contracts/CheckIn.sol\":2166:2171  _name */\n      dup6\n        /* \"contracts/CheckIn.sol\":2107:2431  Visitor({... */\n      dup2\n      mstore\n      0x20\n      add\n        /* \"contracts/CheckIn.sol\":2194:2202  _contact */\n      dup5\n        /* \"contracts/CheckIn.sol\":2107:2431  Visitor({... */\n      dup2\n      mstore\n      0x20\n      add\n        /* \"contracts/CheckIn.sol\":2227:2237  _recipient */\n      dup4\n        /* \"contracts/CheckIn.sol\":2107:2431  Visitor({... */\n      dup2\n      mstore\n      0x20\n      add\n        /* \"contracts/CheckIn.sol\":2260:2268  _purpose */\n      dup3\n        /* \"contracts/CheckIn.sol\":2107:2431  Visitor({... */\n      dup2\n      mstore\n      0x20\n      add\n        /* \"contracts/CheckIn.sol\":2290:2305  block.timestamp */\n      timestamp\n        /* \"contracts/CheckIn.sol\":2107:2431  Visitor({... */\n      dup2\n      mstore\n      0x20\n      add\n        /* \"contracts/CheckIn.sol\":2328:2329  0 */\n      0x00\n        /* \"contracts/CheckIn.sol\":2107:2431  Visitor({... */\n      dup2\n      mstore\n      0x20\n      add\n      0x00\n      dup1\n      not\n      and\n      dup2\n      mstore\n      0x20\n      add\n        /* \"contracts/CheckIn.sol\":2383:2387  true */\n      0x01\n        /* \"contracts/CheckIn.sol\":2107:2431  Visitor({... */\n      iszero\n      iszero\n      dup2\n      mstore\n      0x20\n      add\n        /* \"contracts/CheckIn.sol\":2415:2420  false */\n      0x00\n        /* \"contracts/CheckIn.sol\":2107:2431  Visitor({... */\n      iszero\n      iszero\n      dup2\n      mstore\n      pop\n        /* \"contracts/CheckIn.sol\":2081:2089  visitors */\n      0x02\n        /* \"contracts/CheckIn.sol\":2081:2104  visitors[totalVisitors] */\n      0x00\n        /* \"contracts/CheckIn.sol\":2090:2103  totalVisitors */\n      dup1\n      sload\n        /* \"contracts/CheckIn.sol\":2081:2104  visitors[totalVisitors] */\n      dup2\n      mstore\n      0x20\n      add\n      swap1\n      dup2\n      mstore\n      0x20\n      add\n      0x00\n      keccak256\n        /* \"contracts/CheckIn.sol\":2081:2431  visitors[totalVisitors] = Visitor({... */\n      0x00\n      dup3\n      add\n      mload\n      dup2\n      0x00\n      add\n      sstore\n      0x20\n      dup3\n      add\n      mload\n      dup2\n      0x01\n      add\n      swap1\n      dup2\n      tag_146\n      swap2\n      swap1\n      tag_147\n      jump\t// in\n    tag_146:\n      pop\n      0x40\n      dup3\n      add\n      mload\n      dup2\n      0x02\n      add\n      swap1\n      dup2\n      tag_148\n      swap2\n      swap1\n      tag_147\n      jump\t// in\n    tag_148:\n      pop\n      0x60\n      dup3\n      add\n      mload\n      dup2\n      0x03\n      add\n      swap1\n      dup2\n      tag_149\n      swap2\n      swap1\n      tag_147\n      jump\t// in\n    tag_149:\n      pop\n      0x80\n      dup3\n      add\n      mload\n      dup2\n      0x04\n      add\n      swap1\n      dup2\n      tag_150\n      swap2\n      swap1\n      tag_147\n      jump\t// in\n    tag_150:\n      pop\n      0xa0\n      dup3\n      add\n      mload\n      dup2\n      0x05\n      add\n      sstore\n      0xc0\n      dup3\n      add\n      mload\n      dup2\n      0x06\n      add\n      sstore\n      0xe0\n      dup3\n      add\n      mload\n      dup2\n      0x07\n      add\n      sstore\n      0x0100\n      dup3\n      add\n      mload\n      dup2\n      0x08\n      add\n      exp(0x0100, 0x00)\n      dup2\n      sload\n      dup2\n      0xff\n      mul\n      not\n      and\n      swap1\n      dup4\n      iszero\n      iszero\n      mul\n      or\n      swap1\n      sstore\n      pop\n      0x0120\n      dup3\n      add\n      mload\n      dup2\n      0x08\n      add\n      exp(0x0100, 0x01)\n      dup2\n      sload\n      dup2\n      0xff\n      mul\n      not\n      and\n      swap1\n      dup4\n      iszero\n      iszero\n      mul\n      or\n      swap1\n      sstore\n      pop\n      swap1\n      pop\n      pop\n        /* \"contracts/CheckIn.sol\":2446:2489  NewVisitorAdded(_name, totalVisitors, true) */\n      0x699b4741e93376d2bdd9c5f5a8a0aed91700830694fd4d952f1f41ec3e2c4cb3\n        /* \"contracts/CheckIn.sol\":2462:2467  _name */\n      dup5\n        /* \"contracts/CheckIn.sol\":2469:2482  totalVisitors */\n      sload(0x00)\n        /* \"contracts/CheckIn.sol\":2484:2488  true */\n      0x01\n        /* \"contracts/CheckIn.sol\":2446:2489  NewVisitorAdded(_name, totalVisitors, true) */\n      mload(0x40)\n      tag_151\n      swap4\n      swap3\n      swap2\n      swap1\n      tag_152\n      jump\t// in\n    tag_151:\n      mload(0x40)\n      dup1\n      swap2\n      sub\n      swap1\n      log1\n        /* \"contracts/CheckIn.sol\":1886:2496  function addVisitor(... */\n      pop\n      pop\n      pop\n      pop\n      jump\t// out\n        /* \"contracts/CheckIn.sol\":465:485  address public owner */\n    tag_40:\n      0x01\n      0x00\n      swap1\n      sload\n      swap1\n      0x0100\n      exp\n      swap1\n      div\n      0xffffffffffffffffffffffffffffffffffffffff\n      and\n      dup2\n      jump\t// out\n        /* \"contracts/CheckIn.sol\":431:459  uint256 public totalVisitors */\n    tag_44:\n      sload(0x00)\n      dup2\n      jump\t// out\n        /* \"contracts/CheckIn.sol\":3539:3727  function getVisitorSignature(uint256 _id)... */\n    tag_49:\n        /* \"contracts/CheckIn.sol\":3658:3665  bytes32 */\n      0x00\n        /* \"contracts/CheckIn.sol\":3636:3639  _id */\n      dup2\n        /* \"contracts/CheckIn.sol\":1103:1104  1 */\n      0x01\n        /* \"contracts/CheckIn.sol\":1084:1092  visitors */\n      0x02\n        /* \"contracts/CheckIn.sol\":1084:1096  visitors[Id] */\n      0x00\n        /* \"contracts/CheckIn.sol\":1093:1095  Id */\n      dup4\n        /* \"contracts/CheckIn.sol\":1084:1096  visitors[Id] */\n      dup2\n      mstore\n      0x20\n      add\n      swap1\n      dup2\n      mstore\n      0x20\n      add\n      0x00\n      keccak256\n        /* \"contracts/CheckIn.sol\":1084:1099  visitors[Id].Id */\n      0x00\n      add\n      sload\n        /* \"contracts/CheckIn.sol\":1084:1104  visitors[Id].Id >= 1 */\n      lt\n      iszero\n        /* \"contracts/CheckIn.sol\":1076:1129  require(visitors[Id].Id >= 1, \"Visitor Id not found\") */\n      tag_154\n      jumpi\n      mload(0x40)\n      0x08c379a000000000000000000000000000000000000000000000000000000000\n      dup2\n      mstore\n      0x04\n      add\n      tag_155\n      swap1\n      tag_71\n      jump\t// in\n    tag_155:\n      mload(0x40)\n      dup1\n      swap2\n      sub\n      swap1\n      revert\n    tag_154:\n        /* \"contracts/CheckIn.sol\":1188:1192  true */\n      0x01\n        /* \"contracts/CheckIn.sol\":1160:1192  visitors[Id].isCheckedIn == true */\n      iszero\n      iszero\n        /* \"contracts/CheckIn.sol\":1160:1168  visitors */\n      0x02\n        /* \"contracts/CheckIn.sol\":1160:1172  visitors[Id] */\n      0x00\n        /* \"contracts/CheckIn.sol\":1169:1171  Id */\n      dup4\n        /* \"contracts/CheckIn.sol\":1160:1172  visitors[Id] */\n      dup2\n      mstore\n      0x20\n      add\n      swap1\n      dup2\n      mstore\n      0x20\n      add\n      0x00\n      keccak256\n        /* \"contracts/CheckIn.sol\":1160:1184  visitors[Id].isCheckedIn */\n      0x08\n      add\n      0x00\n      swap1\n      sload\n      swap1\n      0x0100\n      exp\n      swap1\n      div\n      0xff\n      and\n        /* \"contracts/CheckIn.sol\":1160:1192  visitors[Id].isCheckedIn == true */\n      iszero\n      iszero\n      eq\n        /* \"contracts/CheckIn.sol\":1139:1255  require(... */\n      tag_156\n      jumpi\n      mload(0x40)\n      0x08c379a000000000000000000000000000000000000000000000000000000000\n      dup2\n      mstore\n      0x04\n      add\n      tag_157\n      swap1\n      tag_74\n      jump\t// in\n    tag_157:\n      mload(0x40)\n      dup1\n      swap2\n      sub\n      swap1\n      revert\n    tag_156:\n        /* \"contracts/CheckIn.sol\":3696:3704  visitors */\n      0x02\n        /* \"contracts/CheckIn.sol\":3696:3709  visitors[_id] */\n      0x00\n        /* \"contracts/CheckIn.sol\":3705:3708  _id */\n      dup5\n        /* \"contracts/CheckIn.sol\":3696:3709  visitors[_id] */\n      dup2\n      mstore\n      0x20\n      add\n      swap1\n      dup2\n      mstore\n      0x20\n      add\n      0x00\n      keccak256\n        /* \"contracts/CheckIn.sol\":3696:3719  visitors[_id].signature */\n      0x07\n      add\n      sload\n        /* \"contracts/CheckIn.sol\":3681:3720  return bytes32(visitors[_id].signature) */\n      swap2\n      pop\n        /* \"contracts/CheckIn.sol\":3539:3727  function getVisitorSignature(uint256 _id)... */\n      pop\n      swap2\n      swap1\n      pop\n      jump\t// out\n        /* \"contracts/CheckIn.sol\":2555:2722  function getVisitorDetails(uint256 _id)... */\n    tag_54:\n        /* \"contracts/CheckIn.sol\":2663:2677  Visitor memory */\n      tag_159\n      tag_160\n      jump\t// in\n    tag_159:\n        /* \"contracts/CheckIn.sol\":2641:2644  _id */\n      dup2\n        /* \"contracts/CheckIn.sol\":1397:1398  1 */\n      0x01\n        /* \"contracts/CheckIn.sol\":1378:1386  visitors */\n      0x02\n        /* \"contracts/CheckIn.sol\":1378:1390  visitors[Id] */\n      0x00\n        /* \"contracts/CheckIn.sol\":1387:1389  Id */\n      dup4\n        /* \"contracts/CheckIn.sol\":1378:1390  visitors[Id] */\n      dup2\n      mstore\n      0x20\n      add\n      swap1\n      dup2\n      mstore\n      0x20\n      add\n      0x00\n      keccak256\n        /* \"contracts/CheckIn.sol\":1378:1393  visitors[Id].Id */\n      0x00\n      add\n      sload\n        /* \"contracts/CheckIn.sol\":1378:1398  visitors[Id].Id >= 1 */\n      lt\n      iszero\n        /* \"contracts/CheckIn.sol\":1370:1423  require(visitors[Id].Id >= 1, \"Visitor Id not found\") */\n      tag_162\n      jumpi\n      mload(0x40)\n      0x08c379a000000000000000000000000000000000000000000000000000000000\n      dup2\n      mstore\n      0x04\n      add\n      tag_163\n      swap1\n      tag_71\n      jump\t// in\n    tag_163:\n      mload(0x40)\n      dup1\n      swap2\n      sub\n      swap1\n      revert\n    tag_162:\n        /* \"contracts/CheckIn.sol\":2701:2709  visitors */\n      0x02\n        /* \"contracts/CheckIn.sol\":2701:2714  visitors[_id] */\n      0x00\n        /* \"contracts/CheckIn.sol\":2710:2713  _id */\n      dup5\n        /* \"contracts/CheckIn.sol\":2701:2714  visitors[_id] */\n      dup2\n      mstore\n      0x20\n      add\n      swap1\n      dup2\n      mstore\n      0x20\n      add\n      0x00\n      keccak256\n        /* \"contracts/CheckIn.sol\":2693:2715  return (visitors[_id]) */\n      mload(0x40)\n      dup1\n      0x0140\n      add\n      0x40\n      mstore\n      swap1\n      dup2\n      0x00\n      dup3\n      add\n      sload\n      dup2\n      mstore\n      0x20\n      add\n      0x01\n      dup3\n      add\n      dup1\n      sload\n      tag_165\n      swap1\n      tag_95\n      jump\t// in\n    tag_165:\n      dup1\n      0x1f\n      add\n      0x20\n      dup1\n      swap2\n      div\n      mul\n      0x20\n      add\n      mload(0x40)\n      swap1\n      dup2\n      add\n      0x40\n      mstore\n      dup1\n      swap3\n      swap2\n      swap1\n      dup2\n      dup2\n      mstore\n      0x20\n      add\n      dup3\n      dup1\n      sload\n      tag_166\n      swap1\n      tag_95\n      jump\t// in\n    tag_166:\n      dup1\n      iszero\n      tag_167\n      jumpi\n      dup1\n      0x1f\n      lt\n      tag_168\n      jumpi\n      0x0100\n      dup1\n      dup4\n      sload\n      div\n      mul\n      dup4\n      mstore\n      swap2\n      0x20\n      add\n      swap2\n      jump(tag_167)\n    tag_168:\n      dup3\n      add\n      swap2\n      swap1\n      0x00\n      mstore\n      keccak256(0x00, 0x20)\n      swap1\n    tag_169:\n      dup2\n      sload\n      dup2\n      mstore\n      swap1\n      0x01\n      add\n      swap1\n      0x20\n      add\n      dup1\n      dup4\n      gt\n      tag_169\n      jumpi\n      dup3\n      swap1\n      sub\n      0x1f\n      and\n      dup3\n      add\n      swap2\n    tag_167:\n      pop\n      pop\n      pop\n      pop\n      pop\n      dup2\n      mstore\n      0x20\n      add\n      0x02\n      dup3\n      add\n      dup1\n      sload\n      tag_170\n      swap1\n      tag_95\n      jump\t// in\n    tag_170:\n      dup1\n      0x1f\n      add\n      0x20\n      dup1\n      swap2\n      div\n      mul\n      0x20\n      add\n      mload(0x40)\n      swap1\n      dup2\n      add\n      0x40\n      mstore\n      dup1\n      swap3\n      swap2\n      swap1\n      dup2\n      dup2\n      mstore\n      0x20\n      add\n      dup3\n      dup1\n      sload\n      tag_171\n      swap1\n      tag_95\n      jump\t// in\n    tag_171:\n      dup1\n      iszero\n      tag_172\n      jumpi\n      dup1\n      0x1f\n      lt\n      tag_173\n      jumpi\n      0x0100\n      dup1\n      dup4\n      sload\n      div\n      mul\n      dup4\n      mstore\n      swap2\n      0x20\n      add\n      swap2\n      jump(tag_172)\n    tag_173:\n      dup3\n      add\n      swap2\n      swap1\n      0x00\n      mstore\n      keccak256(0x00, 0x20)\n      swap1\n    tag_174:\n      dup2\n      sload\n      dup2\n      mstore\n      swap1\n      0x01\n      add\n      swap1\n      0x20\n      add\n      dup1\n      dup4\n      gt\n      tag_174\n      jumpi\n      dup3\n      swap1\n      sub\n      0x1f\n      and\n      dup3\n      add\n      swap2\n    tag_172:\n      pop\n      pop\n      pop\n      pop\n      pop\n      dup2\n      mstore\n      0x20\n      add\n      0x03\n      dup3\n      add\n      dup1\n      sload\n      tag_175\n      swap1\n      tag_95\n      jump\t// in\n    tag_175:\n      dup1\n      0x1f\n      add\n      0x20\n      dup1\n      swap2\n      div\n      mul\n      0x20\n      add\n      mload(0x40)\n      swap1\n      dup2\n      add\n      0x40\n      mstore\n      dup1\n      swap3\n      swap2\n      swap1\n      dup2\n      dup2\n      mstore\n      0x20\n      add\n      dup3\n      dup1\n      sload\n      tag_176\n      swap1\n      tag_95\n      jump\t// in\n    tag_176:\n      dup1\n      iszero\n      tag_177\n      jumpi\n      dup1\n      0x1f\n      lt\n      tag_178\n      jumpi\n      0x0100\n      dup1\n      dup4\n      sload\n      div\n      mul\n      dup4\n      mstore\n      swap2\n      0x20\n      add\n      swap2\n      jump(tag_177)\n    tag_178:\n      dup3\n      add\n      swap2\n      swap1\n      0x00\n      mstore\n      keccak256(0x00, 0x20)\n      swap1\n    tag_179:\n      dup2\n      sload\n      dup2\n      mstore\n      swap1\n      0x01\n      add\n      swap1\n      0x20\n      add\n      dup1\n      dup4\n      gt\n      tag_179\n      jumpi\n      dup3\n      swap1\n      sub\n      0x1f\n      and\n      dup3\n      add\n      swap2\n    tag_177:\n      pop\n      pop\n      pop\n      pop\n      pop\n      dup2\n      mstore\n      0x20\n      add\n      0x04\n      dup3\n      add\n      dup1\n      sload\n      tag_180\n      swap1\n      tag_95\n      jump\t// in\n    tag_180:\n      dup1\n      0x1f\n      add\n      0x20\n      dup1\n      swap2\n      div\n      mul\n      0x20\n      add\n      mload(0x40)\n      swap1\n      dup2\n      add\n      0x40\n      mstore\n      dup1\n      swap3\n      swap2\n      swap1\n      dup2\n      dup2\n      mstore\n      0x20\n      add\n      dup3\n      dup1\n      sload\n      tag_181\n      swap1\n      tag_95\n      jump\t// in\n    tag_181:\n      dup1\n      iszero\n      tag_182\n      jumpi\n      dup1\n      0x1f\n      lt\n      tag_183\n      jumpi\n      0x0100\n      dup1\n      dup4\n      sload\n      div\n      mul\n      dup4\n      mstore\n      swap2\n      0x20\n      add\n      swap2\n      jump(tag_182)\n    tag_183:\n      dup3\n      add\n      swap2\n      swap1\n      0x00\n      mstore\n      keccak256(0x00, 0x20)\n      swap1\n    tag_184:\n      dup2\n      sload\n      dup2\n      mstore\n      swap1\n      0x01\n      add\n      swap1\n      0x20\n      add\n      dup1\n      dup4\n      gt\n      tag_184\n      jumpi\n      dup3\n      swap1\n      sub\n      0x1f\n      and\n      dup3\n      add\n      swap2\n    tag_182:\n      pop\n      pop\n      pop\n      pop\n      pop\n      dup2\n      mstore\n      0x20\n      add\n      0x05\n      dup3\n      add\n      sload\n      dup2\n      mstore\n      0x20\n      add\n      0x06\n      dup3\n      add\n      sload\n      dup2\n      mstore\n      0x20\n      add\n      0x07\n      dup3\n      add\n      sload\n      dup2\n      mstore\n      0x20\n      add\n      0x08\n      dup3\n      add\n      0x00\n      swap1\n      sload\n      swap1\n      0x0100\n      exp\n      swap1\n      div\n      0xff\n      and\n      iszero\n      iszero\n      iszero\n      iszero\n      dup2\n      mstore\n      0x20\n      add\n      0x08\n      dup3\n      add\n      0x01\n      swap1\n      sload\n      swap1\n      0x0100\n      exp\n      swap1\n      div\n      0xff\n      and\n      iszero\n      iszero\n      iszero\n      iszero\n      dup2\n      mstore\n      pop\n      pop\n      swap2\n      pop\n        /* \"contracts/CheckIn.sol\":2555:2722  function getVisitorDetails(uint256 _id)... */\n      pop\n      swap2\n      swap1\n      pop\n      jump\t// out\n        /* \"contracts/CheckIn.sol\":2781:3317  function updateVisitorDetails(... */\n    tag_60:\n        /* \"contracts/CheckIn.sol\":2997:2999  Id */\n      dup5\n        /* \"contracts/CheckIn.sol\":1397:1398  1 */\n      0x01\n        /* \"contracts/CheckIn.sol\":1378:1386  visitors */\n      0x02\n        /* \"contracts/CheckIn.sol\":1378:1390  visitors[Id] */\n      0x00\n        /* \"contracts/CheckIn.sol\":1387:1389  Id */\n      dup4\n        /* \"contracts/CheckIn.sol\":1378:1390  visitors[Id] */\n      dup2\n      mstore\n      0x20\n      add\n      swap1\n      dup2\n      mstore\n      0x20\n      add\n      0x00\n      keccak256\n        /* \"contracts/CheckIn.sol\":1378:1393  visitors[Id].Id */\n      0x00\n      add\n      sload\n        /* \"contracts/CheckIn.sol\":1378:1398  visitors[Id].Id >= 1 */\n      lt\n      iszero\n        /* \"contracts/CheckIn.sol\":1370:1423  require(visitors[Id].Id >= 1, \"Visitor Id not found\") */\n      tag_186\n      jumpi\n      mload(0x40)\n      0x08c379a000000000000000000000000000000000000000000000000000000000\n      dup2\n      mstore\n      0x04\n      add\n      tag_187\n      swap1\n      tag_71\n      jump\t// in\n    tag_187:\n      mload(0x40)\n      dup1\n      swap2\n      sub\n      swap1\n      revert\n    tag_186:\n        /* \"contracts/CheckIn.sol\":3120:3125  _name */\n      dup5\n        /* \"contracts/CheckIn.sol\":3100:3108  visitors */\n      0x02\n        /* \"contracts/CheckIn.sol\":3100:3112  visitors[Id] */\n      0x00\n        /* \"contracts/CheckIn.sol\":3109:3111  Id */\n      dup9\n        /* \"contracts/CheckIn.sol\":3100:3112  visitors[Id] */\n      dup2\n      mstore\n      0x20\n      add\n      swap1\n      dup2\n      mstore\n      0x20\n      add\n      0x00\n      keccak256\n        /* \"contracts/CheckIn.sol\":3100:3117  visitors[Id].name */\n      0x01\n      add\n        /* \"contracts/CheckIn.sol\":3100:3125  visitors[Id].name = _name */\n      swap1\n      dup2\n      tag_189\n      swap2\n      swap1\n      tag_147\n      jump\t// in\n    tag_189:\n      pop\n        /* \"contracts/CheckIn.sol\":3158:3166  _contact */\n      dup4\n        /* \"contracts/CheckIn.sol\":3135:3143  visitors */\n      0x02\n        /* \"contracts/CheckIn.sol\":3135:3147  visitors[Id] */\n      0x00\n        /* \"contracts/CheckIn.sol\":3144:3146  Id */\n      dup9\n        /* \"contracts/CheckIn.sol\":3135:3147  visitors[Id] */\n      dup2\n      mstore\n      0x20\n      add\n      swap1\n      dup2\n      mstore\n      0x20\n      add\n      0x00\n      keccak256\n        /* \"contracts/CheckIn.sol\":3135:3155  visitors[Id].contact */\n      0x02\n      add\n        /* \"contracts/CheckIn.sol\":3135:3166  visitors[Id].contact = _contact */\n      swap1\n      dup2\n      tag_190\n      swap2\n      swap1\n      tag_147\n      jump\t// in\n    tag_190:\n      pop\n        /* \"contracts/CheckIn.sol\":3201:3211  _recipient */\n      dup3\n        /* \"contracts/CheckIn.sol\":3176:3184  visitors */\n      0x02\n        /* \"contracts/CheckIn.sol\":3176:3188  visitors[Id] */\n      0x00\n        /* \"contracts/CheckIn.sol\":3185:3187  Id */\n      dup9\n        /* \"contracts/CheckIn.sol\":3176:3188  visitors[Id] */\n      dup2\n      mstore\n      0x20\n      add\n      swap1\n      dup2\n      mstore\n      0x20\n      add\n      0x00\n      keccak256\n        /* \"contracts/CheckIn.sol\":3176:3198  visitors[Id].recipient */\n      0x03\n      add\n        /* \"contracts/CheckIn.sol\":3176:3211  visitors[Id].recipient = _recipient */\n      swap1\n      dup2\n      tag_191\n      swap2\n      swap1\n      tag_147\n      jump\t// in\n    tag_191:\n      pop\n        /* \"contracts/CheckIn.sol\":3244:3252  _purpose */\n      dup2\n        /* \"contracts/CheckIn.sol\":3221:3229  visitors */\n      0x02\n        /* \"contracts/CheckIn.sol\":3221:3233  visitors[Id] */\n      0x00\n        /* \"contracts/CheckIn.sol\":3230:3232  Id */\n      dup9\n        /* \"contracts/CheckIn.sol\":3221:3233  visitors[Id] */\n      dup2\n      mstore\n      0x20\n      add\n      swap1\n      dup2\n      mstore\n      0x20\n      add\n      0x00\n      keccak256\n        /* \"contracts/CheckIn.sol\":3221:3241  visitors[Id].purpose */\n      0x04\n      add\n        /* \"contracts/CheckIn.sol\":3221:3252  visitors[Id].purpose = _purpose */\n      swap1\n      dup2\n      tag_192\n      swap2\n      swap1\n      tag_147\n      jump\t// in\n    tag_192:\n      pop\n        /* \"contracts/CheckIn.sol\":3267:3310  NewVisitorAdded(_name, totalVisitors, true) */\n      0x699b4741e93376d2bdd9c5f5a8a0aed91700830694fd4d952f1f41ec3e2c4cb3\n        /* \"contracts/CheckIn.sol\":3283:3288  _name */\n      dup6\n        /* \"contracts/CheckIn.sol\":3290:3303  totalVisitors */\n      sload(0x00)\n        /* \"contracts/CheckIn.sol\":3305:3309  true */\n      0x01\n        /* \"contracts/CheckIn.sol\":3267:3310  NewVisitorAdded(_name, totalVisitors, true) */\n      mload(0x40)\n      tag_193\n      swap4\n      swap3\n      swap2\n      swap1\n      tag_152\n      jump\t// in\n    tag_193:\n      mload(0x40)\n      dup1\n      swap2\n      sub\n      swap1\n      log1\n        /* \"contracts/CheckIn.sol\":2781:3317  function updateVisitorDetails(... */\n      pop\n      pop\n      pop\n      pop\n      pop\n      pop\n      jump\t// out\n        /* \"contracts/CheckIn.sol\":3383:3478  function getTotalVisitors() public view returns (uint256) {... */\n    tag_62:\n        /* \"contracts/CheckIn.sol\":3432:3439  uint256 */\n      0x00\n        /* \"contracts/CheckIn.sol\":3458:3471  totalVisitors */\n      dup1\n      sload\n        /* \"contracts/CheckIn.sol\":3451:3471  return totalVisitors */\n      swap1\n      pop\n        /* \"contracts/CheckIn.sol\":3383:3478  function getTotalVisitors() public view returns (uint256) {... */\n      swap1\n      jump\t// out\n    tag_160:\n      mload(0x40)\n      dup1\n      0x0140\n      add\n      0x40\n      mstore\n      dup1\n      0x00\n      dup2\n      mstore\n      0x20\n      add\n      0x60\n      dup2\n      mstore\n      0x20\n      add\n      0x60\n      dup2\n      mstore\n      0x20\n      add\n      0x60\n      dup2\n      mstore\n      0x20\n      add\n      0x60\n      dup2\n      mstore\n      0x20\n      add\n      0x00\n      dup2\n      mstore\n      0x20\n      add\n      0x00\n      dup2\n      mstore\n      0x20\n      add\n      0x00\n      dup1\n      not\n      and\n      dup2\n      mstore\n      0x20\n      add\n      iszero(iszero(0x00))\n      dup2\n      mstore\n      0x20\n      add\n      iszero(iszero(0x00))\n      dup2\n      mstore\n      pop\n      swap1\n      jump\t// out\n        /* \"#utility.yul\":7:82   */\n    tag_195:\n        /* \"#utility.yul\":40:46   */\n      0x00\n        /* \"#utility.yul\":73:75   */\n      0x40\n        /* \"#utility.yul\":67:76   */\n      mload\n        /* \"#utility.yul\":57:76   */\n      swap1\n      pop\n        /* \"#utility.yul\":7:82   */\n      swap1\n      jump\t// out\n        /* \"#utility.yul\":88:205   */\n    tag_196:\n        /* \"#utility.yul\":197:198   */\n      0x00\n        /* \"#utility.yul\":194:195   */\n      dup1\n        /* \"#utility.yul\":187:199   */\n      revert\n        /* \"#utility.yul\":211:328   */\n    tag_197:\n        /* \"#utility.yul\":320:321   */\n      0x00\n        /* \"#utility.yul\":317:318   */\n      dup1\n        /* \"#utility.yul\":310:322   */\n      revert\n        /* \"#utility.yul\":334:411   */\n    tag_198:\n        /* \"#utility.yul\":371:378   */\n      0x00\n        /* \"#utility.yul\":400:405   */\n      dup2\n        /* \"#utility.yul\":389:405   */\n      swap1\n      pop\n        /* \"#utility.yul\":334:411   */\n      swap2\n      swap1\n      pop\n      jump\t// out\n        /* \"#utility.yul\":417:539   */\n    tag_199:\n        /* \"#utility.yul\":490:514   */\n      tag_271\n        /* \"#utility.yul\":508:513   */\n      dup2\n        /* \"#utility.yul\":490:514   */\n      tag_198\n      jump\t// in\n    tag_271:\n        /* \"#utility.yul\":483:488   */\n      dup2\n        /* \"#utility.yul\":480:515   */\n      eq\n        /* \"#utility.yul\":470:533   */\n      tag_272\n      jumpi\n        /* \"#utility.yul\":529:530   */\n      0x00\n        /* \"#utility.yul\":526:527   */\n      dup1\n        /* \"#utility.yul\":519:531   */\n      revert\n        /* \"#utility.yul\":470:533   */\n    tag_272:\n        /* \"#utility.yul\":417:539   */\n      pop\n      jump\t// out\n        /* \"#utility.yul\":545:684   */\n    tag_200:\n        /* \"#utility.yul\":591:596   */\n      0x00\n        /* \"#utility.yul\":629:635   */\n      dup2\n        /* \"#utility.yul\":616:636   */\n      calldataload\n        /* \"#utility.yul\":607:636   */\n      swap1\n      pop\n        /* \"#utility.yul\":645:678   */\n      tag_274\n        /* \"#utility.yul\":672:677   */\n      dup2\n        /* \"#utility.yul\":645:678   */\n      tag_199\n      jump\t// in\n    tag_274:\n        /* \"#utility.yul\":545:684   */\n      swap3\n      swap2\n      pop\n      pop\n      jump\t// out\n        /* \"#utility.yul\":690:767   */\n    tag_201:\n        /* \"#utility.yul\":727:734   */\n      0x00\n        /* \"#utility.yul\":756:761   */\n      dup2\n        /* \"#utility.yul\":745:761   */\n      swap1\n      pop\n        /* \"#utility.yul\":690:767   */\n      swap2\n      swap1\n      pop\n      jump\t// out\n        /* \"#utility.yul\":773:895   */\n    tag_202:\n        /* \"#utility.yul\":846:870   */\n      tag_277\n        /* \"#utility.yul\":864:869   */\n      dup2\n        /* \"#utility.yul\":846:870   */\n      tag_201\n      jump\t// in\n    tag_277:\n        /* \"#utility.yul\":839:844   */\n      dup2\n        /* \"#utility.yul\":836:871   */\n      eq\n        /* \"#utility.yul\":826:889   */\n      tag_278\n      jumpi\n        /* \"#utility.yul\":885:886   */\n      0x00\n        /* \"#utility.yul\":882:883   */\n      dup1\n        /* \"#utility.yul\":875:887   */\n      revert\n        /* \"#utility.yul\":826:889   */\n    tag_278:\n        /* \"#utility.yul\":773:895   */\n      pop\n      jump\t// out\n        /* \"#utility.yul\":901:1040   */\n    tag_203:\n        /* \"#utility.yul\":947:952   */\n      0x00\n        /* \"#utility.yul\":985:991   */\n      dup2\n        /* \"#utility.yul\":972:992   */\n      calldataload\n        /* \"#utility.yul\":963:992   */\n      swap1\n      pop\n        /* \"#utility.yul\":1001:1034   */\n      tag_280\n        /* \"#utility.yul\":1028:1033   */\n      dup2\n        /* \"#utility.yul\":1001:1034   */\n      tag_202\n      jump\t// in\n    tag_280:\n        /* \"#utility.yul\":901:1040   */\n      swap3\n      swap2\n      pop\n      pop\n      jump\t// out\n        /* \"#utility.yul\":1046:1520   */\n    tag_18:\n        /* \"#utility.yul\":1114:1120   */\n      0x00\n        /* \"#utility.yul\":1122:1128   */\n      dup1\n        /* \"#utility.yul\":1171:1173   */\n      0x40\n        /* \"#utility.yul\":1159:1168   */\n      dup4\n        /* \"#utility.yul\":1150:1157   */\n      dup6\n        /* \"#utility.yul\":1146:1169   */\n      sub\n        /* \"#utility.yul\":1142:1174   */\n      slt\n        /* \"#utility.yul\":1139:1258   */\n      iszero\n      tag_282\n      jumpi\n        /* \"#utility.yul\":1177:1256   */\n      tag_283\n      tag_196\n      jump\t// in\n    tag_283:\n        /* \"#utility.yul\":1139:1258   */\n    tag_282:\n        /* \"#utility.yul\":1297:1298   */\n      0x00\n        /* \"#utility.yul\":1322:1375   */\n      tag_284\n        /* \"#utility.yul\":1367:1374   */\n      dup6\n        /* \"#utility.yul\":1358:1364   */\n      dup3\n        /* \"#utility.yul\":1347:1356   */\n      dup7\n        /* \"#utility.yul\":1343:1365   */\n      add\n        /* \"#utility.yul\":1322:1375   */\n      tag_200\n      jump\t// in\n    tag_284:\n        /* \"#utility.yul\":1312:1375   */\n      swap3\n      pop\n        /* \"#utility.yul\":1268:1385   */\n      pop\n        /* \"#utility.yul\":1424:1426   */\n      0x20\n        /* \"#utility.yul\":1450:1503   */\n      tag_285\n        /* \"#utility.yul\":1495:1502   */\n      dup6\n        /* \"#utility.yul\":1486:1492   */\n      dup3\n        /* \"#utility.yul\":1475:1484   */\n      dup7\n        /* \"#utility.yul\":1471:1493   */\n      add\n        /* \"#utility.yul\":1450:1503   */\n      tag_203\n      jump\t// in\n    tag_285:\n        /* \"#utility.yul\":1440:1503   */\n      swap2\n      pop\n        /* \"#utility.yul\":1395:1513   */\n      pop\n        /* \"#utility.yul\":1046:1520   */\n      swap3\n      pop\n      swap3\n      swap1\n      pop\n      jump\t// out\n        /* \"#utility.yul\":1526:1855   */\n    tag_22:\n        /* \"#utility.yul\":1585:1591   */\n      0x00\n        /* \"#utility.yul\":1634:1636   */\n      0x20\n        /* \"#utility.yul\":1622:1631   */\n      dup3\n        /* \"#utility.yul\":1613:1620   */\n      dup5\n        /* \"#utility.yul\":1609:1632   */\n      sub\n        /* \"#utility.yul\":1605:1637   */\n      slt\n        /* \"#utility.yul\":1602:1721   */\n      iszero\n      tag_287\n      jumpi\n        /* \"#utility.yul\":1640:1719   */\n      tag_288\n      tag_196\n      jump\t// in\n    tag_288:\n        /* \"#utility.yul\":1602:1721   */\n    tag_287:\n        /* \"#utility.yul\":1760:1761   */\n      0x00\n        /* \"#utility.yul\":1785:1838   */\n      tag_289\n        /* \"#utility.yul\":1830:1837   */\n      dup5\n        /* \"#utility.yul\":1821:1827   */\n      dup3\n        /* \"#utility.yul\":1810:1819   */\n      dup6\n        /* \"#utility.yul\":1806:1828   */\n      add\n        /* \"#utility.yul\":1785:1838   */\n      tag_200\n      jump\t// in\n    tag_289:\n        /* \"#utility.yul\":1775:1838   */\n      swap2\n      pop\n        /* \"#utility.yul\":1731:1848   */\n      pop\n        /* \"#utility.yul\":1526:1855   */\n      swap3\n      swap2\n      pop\n      pop\n      jump\t// out\n        /* \"#utility.yul\":1861:1979   */\n    tag_204:\n        /* \"#utility.yul\":1948:1972   */\n      tag_291\n        /* \"#utility.yul\":1966:1971   */\n      dup2\n        /* \"#utility.yul\":1948:1972   */\n      tag_198\n      jump\t// in\n    tag_291:\n        /* \"#utility.yul\":1943:1946   */\n      dup3\n        /* \"#utility.yul\":1936:1973   */\n      mstore\n        /* \"#utility.yul\":1861:1979   */\n      pop\n      pop\n      jump\t// out\n        /* \"#utility.yul\":1985:2084   */\n    tag_205:\n        /* \"#utility.yul\":2037:2043   */\n      0x00\n        /* \"#utility.yul\":2071:2076   */\n      dup2\n        /* \"#utility.yul\":2065:2077   */\n      mload\n        /* \"#utility.yul\":2055:2077   */\n      swap1\n      pop\n        /* \"#utility.yul\":1985:2084   */\n      swap2\n      swap1\n      pop\n      jump\t// out\n        /* \"#utility.yul\":2090:2259   */\n    tag_206:\n        /* \"#utility.yul\":2174:2185   */\n      0x00\n        /* \"#utility.yul\":2208:2214   */\n      dup3\n        /* \"#utility.yul\":2203:2206   */\n      dup3\n        /* \"#utility.yul\":2196:2215   */\n      mstore\n        /* \"#utility.yul\":2248:2252   */\n      0x20\n        /* \"#utility.yul\":2243:2246   */\n      dup3\n        /* \"#utility.yul\":2239:2253   */\n      add\n        /* \"#utility.yul\":2224:2253   */\n      swap1\n      pop\n        /* \"#utility.yul\":2090:2259   */\n      swap3\n      swap2\n      pop\n      pop\n      jump\t// out\n        /* \"#utility.yul\":2265:2404   */\n    tag_207:\n        /* \"#utility.yul\":2354:2360   */\n      dup3\n        /* \"#utility.yul\":2349:2352   */\n      dup2\n        /* \"#utility.yul\":2344:2347   */\n      dup4\n        /* \"#utility.yul\":2338:2361   */\n      mcopy\n        /* \"#utility.yul\":2395:2396   */\n      0x00\n        /* \"#utility.yul\":2386:2392   */\n      dup4\n        /* \"#utility.yul\":2381:2384   */\n      dup4\n        /* \"#utility.yul\":2377:2393   */\n      add\n        /* \"#utility.yul\":2370:2397   */\n      mstore\n        /* \"#utility.yul\":2265:2404   */\n      pop\n      pop\n      pop\n      jump\t// out\n        /* \"#utility.yul\":2410:2512   */\n    tag_208:\n        /* \"#utility.yul\":2451:2457   */\n      0x00\n        /* \"#utility.yul\":2502:2504   */\n      0x1f\n        /* \"#utility.yul\":2498:2505   */\n      not\n        /* \"#utility.yul\":2493:2495   */\n      0x1f\n        /* \"#utility.yul\":2486:2491   */\n      dup4\n        /* \"#utility.yul\":2482:2496   */\n      add\n        /* \"#utility.yul\":2478:2506   */\n      and\n        /* \"#utility.yul\":2468:2506   */\n      swap1\n      pop\n        /* \"#utility.yul\":2410:2512   */\n      swap2\n      swap1\n      pop\n      jump\t// out\n        /* \"#utility.yul\":2518:2895   */\n    tag_209:\n        /* \"#utility.yul\":2606:2609   */\n      0x00\n        /* \"#utility.yul\":2634:2673   */\n      tag_297\n        /* \"#utility.yul\":2667:2672   */\n      dup3\n        /* \"#utility.yul\":2634:2673   */\n      tag_205\n      jump\t// in\n    tag_297:\n        /* \"#utility.yul\":2689:2760   */\n      tag_298\n        /* \"#utility.yul\":2753:2759   */\n      dup2\n        /* \"#utility.yul\":2748:2751   */\n      dup6\n        /* \"#utility.yul\":2689:2760   */\n      tag_206\n      jump\t// in\n    tag_298:\n        /* \"#utility.yul\":2682:2760   */\n      swap4\n      pop\n        /* \"#utility.yul\":2769:2834   */\n      tag_299\n        /* \"#utility.yul\":2827:2833   */\n      dup2\n        /* \"#utility.yul\":2822:2825   */\n      dup6\n        /* \"#utility.yul\":2815:2819   */\n      0x20\n        /* \"#utility.yul\":2808:2813   */\n      dup7\n        /* \"#utility.yul\":2804:2820   */\n      add\n        /* \"#utility.yul\":2769:2834   */\n      tag_207\n      jump\t// in\n    tag_299:\n        /* \"#utility.yul\":2859:2888   */\n      tag_300\n        /* \"#utility.yul\":2881:2887   */\n      dup2\n        /* \"#utility.yul\":2859:2888   */\n      tag_208\n      jump\t// in\n    tag_300:\n        /* \"#utility.yul\":2854:2857   */\n      dup5\n        /* \"#utility.yul\":2850:2889   */\n      add\n        /* \"#utility.yul\":2843:2889   */\n      swap2\n      pop\n        /* \"#utility.yul\":2610:2895   */\n      pop\n        /* \"#utility.yul\":2518:2895   */\n      swap3\n      swap2\n      pop\n      pop\n      jump\t// out\n        /* \"#utility.yul\":2901:3019   */\n    tag_210:\n        /* \"#utility.yul\":2988:3012   */\n      tag_302\n        /* \"#utility.yul\":3006:3011   */\n      dup2\n        /* \"#utility.yul\":2988:3012   */\n      tag_201\n      jump\t// in\n    tag_302:\n        /* \"#utility.yul\":2983:2986   */\n      dup3\n        /* \"#utility.yul\":2976:3013   */\n      mstore\n        /* \"#utility.yul\":2901:3019   */\n      pop\n      pop\n      jump\t// out\n        /* \"#utility.yul\":3025:3115   */\n    tag_211:\n        /* \"#utility.yul\":3059:3066   */\n      0x00\n        /* \"#utility.yul\":3102:3107   */\n      dup2\n        /* \"#utility.yul\":3095:3108   */\n      iszero\n        /* \"#utility.yul\":3088:3109   */\n      iszero\n        /* \"#utility.yul\":3077:3109   */\n      swap1\n      pop\n        /* \"#utility.yul\":3025:3115   */\n      swap2\n      swap1\n      pop\n      jump\t// out\n        /* \"#utility.yul\":3121:3230   */\n    tag_212:\n        /* \"#utility.yul\":3202:3223   */\n      tag_305\n        /* \"#utility.yul\":3217:3222   */\n      dup2\n        /* \"#utility.yul\":3202:3223   */\n      tag_211\n      jump\t// in\n    tag_305:\n        /* \"#utility.yul\":3197:3200   */\n      dup3\n        /* \"#utility.yul\":3190:3224   */\n      mstore\n        /* \"#utility.yul\":3121:3230   */\n      pop\n      pop\n      jump\t// out\n        /* \"#utility.yul\":3236:4795   */\n    tag_27:\n        /* \"#utility.yul\":3649:3653   */\n      0x00\n        /* \"#utility.yul\":3687:3690   */\n      0x0140\n        /* \"#utility.yul\":3676:3685   */\n      dup3\n        /* \"#utility.yul\":3672:3691   */\n      add\n        /* \"#utility.yul\":3664:3691   */\n      swap1\n      pop\n        /* \"#utility.yul\":3701:3772   */\n      tag_307\n        /* \"#utility.yul\":3769:3770   */\n      0x00\n        /* \"#utility.yul\":3758:3767   */\n      dup4\n        /* \"#utility.yul\":3754:3771   */\n      add\n        /* \"#utility.yul\":3745:3751   */\n      dup14\n        /* \"#utility.yul\":3701:3772   */\n      tag_204\n      jump\t// in\n    tag_307:\n        /* \"#utility.yul\":3819:3828   */\n      dup2\n        /* \"#utility.yul\":3813:3817   */\n      dup2\n        /* \"#utility.yul\":3809:3829   */\n      sub\n        /* \"#utility.yul\":3804:3806   */\n      0x20\n        /* \"#utility.yul\":3793:3802   */\n      dup4\n        /* \"#utility.yul\":3789:3807   */\n      add\n        /* \"#utility.yul\":3782:3830   */\n      mstore\n        /* \"#utility.yul\":3847:3925   */\n      tag_308\n        /* \"#utility.yul\":3920:3924   */\n      dup2\n        /* \"#utility.yul\":3911:3917   */\n      dup13\n        /* \"#utility.yul\":3847:3925   */\n      tag_209\n      jump\t// in\n    tag_308:\n        /* \"#utility.yul\":3839:3925   */\n      swap1\n      pop\n        /* \"#utility.yul\":3972:3981   */\n      dup2\n        /* \"#utility.yul\":3966:3970   */\n      dup2\n        /* \"#utility.yul\":3962:3982   */\n      sub\n        /* \"#utility.yul\":3957:3959   */\n      0x40\n        /* \"#utility.yul\":3946:3955   */\n      dup4\n        /* \"#utility.yul\":3942:3960   */\n      add\n        /* \"#utility.yul\":3935:3983   */\n      mstore\n        /* \"#utility.yul\":4000:4078   */\n      tag_309\n        /* \"#utility.yul\":4073:4077   */\n      dup2\n        /* \"#utility.yul\":4064:4070   */\n      dup12\n        /* \"#utility.yul\":4000:4078   */\n      tag_209\n      jump\t// in\n    tag_309:\n        /* \"#utility.yul\":3992:4078   */\n      swap1\n      pop\n        /* \"#utility.yul\":4125:4134   */\n      dup2\n        /* \"#utility.yul\":4119:4123   */\n      dup2\n        /* \"#utility.yul\":4115:4135   */\n      sub\n        /* \"#utility.yul\":4110:4112   */\n      0x60\n        /* \"#utility.yul\":4099:4108   */\n      dup4\n        /* \"#utility.yul\":4095:4113   */\n      add\n        /* \"#utility.yul\":4088:4136   */\n      mstore\n        /* \"#utility.yul\":4153:4231   */\n      tag_310\n        /* \"#utility.yul\":4226:4230   */\n      dup2\n        /* \"#utility.yul\":4217:4223   */\n      dup11\n        /* \"#utility.yul\":4153:4231   */\n      tag_209\n      jump\t// in\n    tag_310:\n        /* \"#utility.yul\":4145:4231   */\n      swap1\n      pop\n        /* \"#utility.yul\":4279:4288   */\n      dup2\n        /* \"#utility.yul\":4273:4277   */\n      dup2\n        /* \"#utility.yul\":4269:4289   */\n      sub\n        /* \"#utility.yul\":4263:4266   */\n      0x80\n        /* \"#utility.yul\":4252:4261   */\n      dup4\n        /* \"#utility.yul\":4248:4267   */\n      add\n        /* \"#utility.yul\":4241:4290   */\n      mstore\n        /* \"#utility.yul\":4307:4385   */\n      tag_311\n        /* \"#utility.yul\":4380:4384   */\n      dup2\n        /* \"#utility.yul\":4371:4377   */\n      dup10\n        /* \"#utility.yul\":4307:4385   */\n      tag_209\n      jump\t// in\n    tag_311:\n        /* \"#utility.yul\":4299:4385   */\n      swap1\n      pop\n        /* \"#utility.yul\":4395:4468   */\n      tag_312\n        /* \"#utility.yul\":4463:4466   */\n      0xa0\n        /* \"#utility.yul\":4452:4461   */\n      dup4\n        /* \"#utility.yul\":4448:4467   */\n      add\n        /* \"#utility.yul\":4439:4445   */\n      dup9\n        /* \"#utility.yul\":4395:4468   */\n      tag_204\n      jump\t// in\n    tag_312:\n        /* \"#utility.yul\":4478:4551   */\n      tag_313\n        /* \"#utility.yul\":4546:4549   */\n      0xc0\n        /* \"#utility.yul\":4535:4544   */\n      dup4\n        /* \"#utility.yul\":4531:4550   */\n      add\n        /* \"#utility.yul\":4522:4528   */\n      dup8\n        /* \"#utility.yul\":4478:4551   */\n      tag_204\n      jump\t// in\n    tag_313:\n        /* \"#utility.yul\":4561:4634   */\n      tag_314\n        /* \"#utility.yul\":4629:4632   */\n      0xe0\n        /* \"#utility.yul\":4618:4627   */\n      dup4\n        /* \"#utility.yul\":4614:4633   */\n      add\n        /* \"#utility.yul\":4605:4611   */\n      dup7\n        /* \"#utility.yul\":4561:4634   */\n      tag_210\n      jump\t// in\n    tag_314:\n        /* \"#utility.yul\":4644:4711   */\n      tag_315\n        /* \"#utility.yul\":4706:4709   */\n      0x0100\n        /* \"#utility.yul\":4695:4704   */\n      dup4\n        /* \"#utility.yul\":4691:4710   */\n      add\n        /* \"#utility.yul\":4682:4688   */\n      dup6\n        /* \"#utility.yul\":4644:4711   */\n      tag_212\n      jump\t// in\n    tag_315:\n        /* \"#utility.yul\":4721:4788   */\n      tag_316\n        /* \"#utility.yul\":4783:4786   */\n      0x0120\n        /* \"#utility.yul\":4772:4781   */\n      dup4\n        /* \"#utility.yul\":4768:4787   */\n      add\n        /* \"#utility.yul\":4759:4765   */\n      dup5\n        /* \"#utility.yul\":4721:4788   */\n      tag_212\n      jump\t// in\n    tag_316:\n        /* \"#utility.yul\":3236:4795   */\n      swap12\n      swap11\n      pop\n      pop\n      pop\n      pop\n      pop\n      pop\n      pop\n      pop\n      pop\n      pop\n      pop\n      jump\t// out\n        /* \"#utility.yul\":4801:4918   */\n    tag_213:\n        /* \"#utility.yul\":4910:4911   */\n      0x00\n        /* \"#utility.yul\":4907:4908   */\n      dup1\n        /* \"#utility.yul\":4900:4912   */\n      revert\n        /* \"#utility.yul\":4924:5041   */\n    tag_214:\n        /* \"#utility.yul\":5033:5034   */\n      0x00\n        /* \"#utility.yul\":5030:5031   */\n      dup1\n        /* \"#utility.yul\":5023:5035   */\n      revert\n        /* \"#utility.yul\":5047:5227   */\n    tag_215:\n        /* \"#utility.yul\":5095:5172   */\n      0x4e487b7100000000000000000000000000000000000000000000000000000000\n        /* \"#utility.yul\":5092:5093   */\n      0x00\n        /* \"#utility.yul\":5085:5173   */\n      mstore\n        /* \"#utility.yul\":5192:5196   */\n      0x41\n        /* \"#utility.yul\":5189:5190   */\n      0x04\n        /* \"#utility.yul\":5182:5197   */\n      mstore\n        /* \"#utility.yul\":5216:5220   */\n      0x24\n        /* \"#utility.yul\":5213:5214   */\n      0x00\n        /* \"#utility.yul\":5206:5221   */\n      revert\n        /* \"#utility.yul\":5233:5514   */\n    tag_216:\n        /* \"#utility.yul\":5316:5343   */\n      tag_321\n        /* \"#utility.yul\":5338:5342   */\n      dup3\n        /* \"#utility.yul\":5316:5343   */\n      tag_208\n      jump\t// in\n    tag_321:\n        /* \"#utility.yul\":5308:5314   */\n      dup2\n        /* \"#utility.yul\":5304:5344   */\n      add\n        /* \"#utility.yul\":5446:5452   */\n      dup2\n        /* \"#utility.yul\":5434:5444   */\n      dup2\n        /* \"#utility.yul\":5431:5453   */\n      lt\n        /* \"#utility.yul\":5410:5428   */\n      0xffffffffffffffff\n        /* \"#utility.yul\":5398:5408   */\n      dup3\n        /* \"#utility.yul\":5395:5429   */\n      gt\n        /* \"#utility.yul\":5392:5454   */\n      or\n        /* \"#utility.yul\":5389:5477   */\n      iszero\n      tag_322\n      jumpi\n        /* \"#utility.yul\":5457:5475   */\n      tag_323\n      tag_215\n      jump\t// in\n    tag_323:\n        /* \"#utility.yul\":5389:5477   */\n    tag_322:\n        /* \"#utility.yul\":5497:5507   */\n      dup1\n        /* \"#utility.yul\":5493:5495   */\n      0x40\n        /* \"#utility.yul\":5486:5508   */\n      mstore\n        /* \"#utility.yul\":5276:5514   */\n      pop\n        /* \"#utility.yul\":5233:5514   */\n      pop\n      pop\n      jump\t// out\n        /* \"#utility.yul\":5520:5649   */\n    tag_217:\n        /* \"#utility.yul\":5554:5560   */\n      0x00\n        /* \"#utility.yul\":5581:5601   */\n      tag_325\n      tag_195\n      jump\t// in\n    tag_325:\n        /* \"#utility.yul\":5571:5601   */\n      swap1\n      pop\n        /* \"#utility.yul\":5610:5643   */\n      tag_326\n        /* \"#utility.yul\":5638:5642   */\n      dup3\n        /* \"#utility.yul\":5630:5636   */\n      dup3\n        /* \"#utility.yul\":5610:5643   */\n      tag_216\n      jump\t// in\n    tag_326:\n        /* \"#utility.yul\":5520:5649   */\n      swap2\n      swap1\n      pop\n      jump\t// out\n        /* \"#utility.yul\":5655:5963   */\n    tag_218:\n        /* \"#utility.yul\":5717:5721   */\n      0x00\n        /* \"#utility.yul\":5807:5825   */\n      0xffffffffffffffff\n        /* \"#utility.yul\":5799:5805   */\n      dup3\n        /* \"#utility.yul\":5796:5826   */\n      gt\n        /* \"#utility.yul\":5793:5849   */\n      iszero\n      tag_328\n      jumpi\n        /* \"#utility.yul\":5829:5847   */\n      tag_329\n      tag_215\n      jump\t// in\n    tag_329:\n        /* \"#utility.yul\":5793:5849   */\n    tag_328:\n        /* \"#utility.yul\":5867:5896   */\n      tag_330\n        /* \"#utility.yul\":5889:5895   */\n      dup3\n        /* \"#utility.yul\":5867:5896   */\n      tag_208\n      jump\t// in\n    tag_330:\n        /* \"#utility.yul\":5859:5896   */\n      swap1\n      pop\n        /* \"#utility.yul\":5951:5955   */\n      0x20\n        /* \"#utility.yul\":5945:5949   */\n      dup2\n        /* \"#utility.yul\":5941:5956   */\n      add\n        /* \"#utility.yul\":5933:5956   */\n      swap1\n      pop\n        /* \"#utility.yul\":5655:5963   */\n      swap2\n      swap1\n      pop\n      jump\t// out\n        /* \"#utility.yul\":5969:6117   */\n    tag_219:\n        /* \"#utility.yul\":6067:6073   */\n      dup3\n        /* \"#utility.yul\":6062:6065   */\n      dup2\n        /* \"#utility.yul\":6057:6060   */\n      dup4\n        /* \"#utility.yul\":6044:6074   */\n      calldatacopy\n        /* \"#utility.yul\":6108:6109   */\n      0x00\n        /* \"#utility.yul\":6099:6105   */\n      dup4\n        /* \"#utility.yul\":6094:6097   */\n      dup4\n        /* \"#utility.yul\":6090:6106   */\n      add\n        /* \"#utility.yul\":6083:6110   */\n      mstore\n        /* \"#utility.yul\":5969:6117   */\n      pop\n      pop\n      pop\n      jump\t// out\n        /* \"#utility.yul\":6123:6548   */\n    tag_220:\n        /* \"#utility.yul\":6201:6206   */\n      0x00\n        /* \"#utility.yul\":6226:6292   */\n      tag_333\n        /* \"#utility.yul\":6242:6291   */\n      tag_334\n        /* \"#utility.yul\":6284:6290   */\n      dup5\n        /* \"#utility.yul\":6242:6291   */\n      tag_218\n      jump\t// in\n    tag_334:\n        /* \"#utility.yul\":6226:6292   */\n      tag_217\n      jump\t// in\n    tag_333:\n        /* \"#utility.yul\":6217:6292   */\n      swap1\n      pop\n        /* \"#utility.yul\":6315:6321   */\n      dup3\n        /* \"#utility.yul\":6308:6313   */\n      dup2\n        /* \"#utility.yul\":6301:6322   */\n      mstore\n        /* \"#utility.yul\":6353:6357   */\n      0x20\n        /* \"#utility.yul\":6346:6351   */\n      dup2\n        /* \"#utility.yul\":6342:6358   */\n      add\n        /* \"#utility.yul\":6391:6394   */\n      dup5\n        /* \"#utility.yul\":6382:6388   */\n      dup5\n        /* \"#utility.yul\":6377:6380   */\n      dup5\n        /* \"#utility.yul\":6373:6389   */\n      add\n        /* \"#utility.yul\":6370:6395   */\n      gt\n        /* \"#utility.yul\":6367:6479   */\n      iszero\n      tag_335\n      jumpi\n        /* \"#utility.yul\":6398:6477   */\n      tag_336\n      tag_214\n      jump\t// in\n    tag_336:\n        /* \"#utility.yul\":6367:6479   */\n    tag_335:\n        /* \"#utility.yul\":6488:6542   */\n      tag_337\n        /* \"#utility.yul\":6535:6541   */\n      dup5\n        /* \"#utility.yul\":6530:6533   */\n      dup3\n        /* \"#utility.yul\":6525:6528   */\n      dup6\n        /* \"#utility.yul\":6488:6542   */\n      tag_219\n      jump\t// in\n    tag_337:\n        /* \"#utility.yul\":6207:6548   */\n      pop\n        /* \"#utility.yul\":6123:6548   */\n      swap4\n      swap3\n      pop\n      pop\n      pop\n      jump\t// out\n        /* \"#utility.yul\":6568:6908   */\n    tag_221:\n        /* \"#utility.yul\":6624:6629   */\n      0x00\n        /* \"#utility.yul\":6673:6676   */\n      dup3\n        /* \"#utility.yul\":6666:6670   */\n      0x1f\n        /* \"#utility.yul\":6658:6664   */\n      dup4\n        /* \"#utility.yul\":6654:6671   */\n      add\n        /* \"#utility.yul\":6650:6677   */\n      slt\n        /* \"#utility.yul\":6640:6762   */\n      tag_339\n      jumpi\n        /* \"#utility.yul\":6681:6760   */\n      tag_340\n      tag_213\n      jump\t// in\n    tag_340:\n        /* \"#utility.yul\":6640:6762   */\n    tag_339:\n        /* \"#utility.yul\":6798:6804   */\n      dup2\n        /* \"#utility.yul\":6785:6805   */\n      calldataload\n        /* \"#utility.yul\":6823:6902   */\n      tag_341\n        /* \"#utility.yul\":6898:6901   */\n      dup5\n        /* \"#utility.yul\":6890:6896   */\n      dup3\n        /* \"#utility.yul\":6883:6887   */\n      0x20\n        /* \"#utility.yul\":6875:6881   */\n      dup7\n        /* \"#utility.yul\":6871:6888   */\n      add\n        /* \"#utility.yul\":6823:6902   */\n      tag_220\n      jump\t// in\n    tag_341:\n        /* \"#utility.yul\":6814:6902   */\n      swap2\n      pop\n        /* \"#utility.yul\":6630:6908   */\n      pop\n        /* \"#utility.yul\":6568:6908   */\n      swap3\n      swap2\n      pop\n      pop\n      jump\t// out\n        /* \"#utility.yul\":6914:8399   */\n    tag_37:\n        /* \"#utility.yul\":7040:7046   */\n      0x00\n        /* \"#utility.yul\":7048:7054   */\n      dup1\n        /* \"#utility.yul\":7056:7062   */\n      0x00\n        /* \"#utility.yul\":7064:7070   */\n      dup1\n        /* \"#utility.yul\":7113:7116   */\n      0x80\n        /* \"#utility.yul\":7101:7110   */\n      dup6\n        /* \"#utility.yul\":7092:7099   */\n      dup8\n        /* \"#utility.yul\":7088:7111   */\n      sub\n        /* \"#utility.yul\":7084:7117   */\n      slt\n        /* \"#utility.yul\":7081:7201   */\n      iszero\n      tag_343\n      jumpi\n        /* \"#utility.yul\":7120:7199   */\n      tag_344\n      tag_196\n      jump\t// in\n    tag_344:\n        /* \"#utility.yul\":7081:7201   */\n    tag_343:\n        /* \"#utility.yul\":7268:7269   */\n      0x00\n        /* \"#utility.yul\":7257:7266   */\n      dup6\n        /* \"#utility.yul\":7253:7270   */\n      add\n        /* \"#utility.yul\":7240:7271   */\n      calldataload\n        /* \"#utility.yul\":7298:7316   */\n      0xffffffffffffffff\n        /* \"#utility.yul\":7290:7296   */\n      dup2\n        /* \"#utility.yul\":7287:7317   */\n      gt\n        /* \"#utility.yul\":7284:7401   */\n      iszero\n      tag_345\n      jumpi\n        /* \"#utility.yul\":7320:7399   */\n      tag_346\n      tag_197\n      jump\t// in\n    tag_346:\n        /* \"#utility.yul\":7284:7401   */\n    tag_345:\n        /* \"#utility.yul\":7425:7488   */\n      tag_347\n        /* \"#utility.yul\":7480:7487   */\n      dup8\n        /* \"#utility.yul\":7471:7477   */\n      dup3\n        /* \"#utility.yul\":7460:7469   */\n      dup9\n        /* \"#utility.yul\":7456:7478   */\n      add\n        /* \"#utility.yul\":7425:7488   */\n      tag_221\n      jump\t// in\n    tag_347:\n        /* \"#utility.yul\":7415:7488   */\n      swap5\n      pop\n        /* \"#utility.yul\":7211:7498   */\n      pop\n        /* \"#utility.yul\":7565:7567   */\n      0x20\n        /* \"#utility.yul\":7554:7563   */\n      dup6\n        /* \"#utility.yul\":7550:7568   */\n      add\n        /* \"#utility.yul\":7537:7569   */\n      calldataload\n        /* \"#utility.yul\":7596:7614   */\n      0xffffffffffffffff\n        /* \"#utility.yul\":7588:7594   */\n      dup2\n        /* \"#utility.yul\":7585:7615   */\n      gt\n        /* \"#utility.yul\":7582:7699   */\n      iszero\n      tag_348\n      jumpi\n        /* \"#utility.yul\":7618:7697   */\n      tag_349\n      tag_197\n      jump\t// in\n    tag_349:\n        /* \"#utility.yul\":7582:7699   */\n    tag_348:\n        /* \"#utility.yul\":7723:7786   */\n      tag_350\n        /* \"#utility.yul\":7778:7785   */\n      dup8\n        /* \"#utility.yul\":7769:7775   */\n      dup3\n        /* \"#utility.yul\":7758:7767   */\n      dup9\n        /* \"#utility.yul\":7754:7776   */\n      add\n        /* \"#utility.yul\":7723:7786   */\n      tag_221\n      jump\t// in\n    tag_350:\n        /* \"#utility.yul\":7713:7786   */\n      swap4\n      pop\n        /* \"#utility.yul\":7508:7796   */\n      pop\n        /* \"#utility.yul\":7863:7865   */\n      0x40\n        /* \"#utility.yul\":7852:7861   */\n      dup6\n        /* \"#utility.yul\":7848:7866   */\n      add\n        /* \"#utility.yul\":7835:7867   */\n      calldataload\n        /* \"#utility.yul\":7894:7912   */\n      0xffffffffffffffff\n        /* \"#utility.yul\":7886:7892   */\n      dup2\n        /* \"#utility.yul\":7883:7913   */\n      gt\n        /* \"#utility.yul\":7880:7997   */\n      iszero\n      tag_351\n      jumpi\n        /* \"#utility.yul\":7916:7995   */\n      tag_352\n      tag_197\n      jump\t// in\n    tag_352:\n        /* \"#utility.yul\":7880:7997   */\n    tag_351:\n        /* \"#utility.yul\":8021:8084   */\n      tag_353\n        /* \"#utility.yul\":8076:8083   */\n      dup8\n        /* \"#utility.yul\":8067:8073   */\n      dup3\n        /* \"#utility.yul\":8056:8065   */\n      dup9\n        /* \"#utility.yul\":8052:8074   */\n      add\n        /* \"#utility.yul\":8021:8084   */\n      tag_221\n      jump\t// in\n    tag_353:\n        /* \"#utility.yul\":8011:8084   */\n      swap3\n      pop\n        /* \"#utility.yul\":7806:8094   */\n      pop\n        /* \"#utility.yul\":8161:8163   */\n      0x60\n        /* \"#utility.yul\":8150:8159   */\n      dup6\n        /* \"#utility.yul\":8146:8164   */\n      add\n        /* \"#utility.yul\":8133:8165   */\n      calldataload\n        /* \"#utility.yul\":8192:8210   */\n      0xffffffffffffffff\n        /* \"#utility.yul\":8184:8190   */\n      dup2\n        /* \"#utility.yul\":8181:8211   */\n      gt\n        /* \"#utility.yul\":8178:8295   */\n      iszero\n      tag_354\n      jumpi\n        /* \"#utility.yul\":8214:8293   */\n      tag_355\n      tag_197\n      jump\t// in\n    tag_355:\n        /* \"#utility.yul\":8178:8295   */\n    tag_354:\n        /* \"#utility.yul\":8319:8382   */\n      tag_356\n        /* \"#utility.yul\":8374:8381   */\n      dup8\n        /* \"#utility.yul\":8365:8371   */\n      dup3\n        /* \"#utility.yul\":8354:8363   */\n      dup9\n        /* \"#utility.yul\":8350:8372   */\n      add\n        /* \"#utility.yul\":8319:8382   */\n      tag_221\n      jump\t// in\n    tag_356:\n        /* \"#utility.yul\":8309:8382   */\n      swap2\n      pop\n        /* \"#utility.yul\":8104:8392   */\n      pop\n        /* \"#utility.yul\":6914:8399   */\n      swap3\n      swap6\n      swap2\n      swap5\n      pop\n      swap3\n      pop\n      jump\t// out\n        /* \"#utility.yul\":8405:8531   */\n    tag_222:\n        /* \"#utility.yul\":8442:8449   */\n      0x00\n        /* \"#utility.yul\":8482:8524   */\n      0xffffffffffffffffffffffffffffffffffffffff\n        /* \"#utility.yul\":8475:8480   */\n      dup3\n        /* \"#utility.yul\":8471:8525   */\n      and\n        /* \"#utility.yul\":8460:8525   */\n      swap1\n      pop\n        /* \"#utility.yul\":8405:8531   */\n      swap2\n      swap1\n      pop\n      jump\t// out\n        /* \"#utility.yul\":8537:8633   */\n    tag_223:\n        /* \"#utility.yul\":8574:8581   */\n      0x00\n        /* \"#utility.yul\":8603:8627   */\n      tag_359\n        /* \"#utility.yul\":8621:8626   */\n      dup3\n        /* \"#utility.yul\":8603:8627   */\n      tag_222\n      jump\t// in\n    tag_359:\n        /* \"#utility.yul\":8592:8627   */\n      swap1\n      pop\n        /* \"#utility.yul\":8537:8633   */\n      swap2\n      swap1\n      pop\n      jump\t// out\n        /* \"#utility.yul\":8639:8757   */\n    tag_224:\n        /* \"#utility.yul\":8726:8750   */\n      tag_361\n        /* \"#utility.yul\":8744:8749   */\n      dup2\n        /* \"#utility.yul\":8726:8750   */\n      tag_223\n      jump\t// in\n    tag_361:\n        /* \"#utility.yul\":8721:8724   */\n      dup3\n        /* \"#utility.yul\":8714:8751   */\n      mstore\n        /* \"#utility.yul\":8639:8757   */\n      pop\n      pop\n      jump\t// out\n        /* \"#utility.yul\":8763:8985   */\n    tag_42:\n        /* \"#utility.yul\":8856:8860   */\n      0x00\n        /* \"#utility.yul\":8894:8896   */\n      0x20\n        /* \"#utility.yul\":8883:8892   */\n      dup3\n        /* \"#utility.yul\":8879:8897   */\n      add\n        /* \"#utility.yul\":8871:8897   */\n      swap1\n      pop\n        /* \"#utility.yul\":8907:8978   */\n      tag_363\n        /* \"#utility.yul\":8975:8976   */\n      0x00\n        /* \"#utility.yul\":8964:8973   */\n      dup4\n        /* \"#utility.yul\":8960:8977   */\n      add\n        /* \"#utility.yul\":8951:8957   */\n      dup5\n        /* \"#utility.yul\":8907:8978   */\n      tag_224\n      jump\t// in\n    tag_363:\n        /* \"#utility.yul\":8763:8985   */\n      swap3\n      swap2\n      pop\n      pop\n      jump\t// out\n        /* \"#utility.yul\":8991:9213   */\n    tag_46:\n        /* \"#utility.yul\":9084:9088   */\n      0x00\n        /* \"#utility.yul\":9122:9124   */\n      0x20\n        /* \"#utility.yul\":9111:9120   */\n      dup3\n        /* \"#utility.yul\":9107:9125   */\n      add\n        /* \"#utility.yul\":9099:9125   */\n      swap1\n      pop\n        /* \"#utility.yul\":9135:9206   */\n      tag_365\n        /* \"#utility.yul\":9203:9204   */\n      0x00\n        /* \"#utility.yul\":9192:9201   */\n      dup4\n        /* \"#utility.yul\":9188:9205   */\n      add\n        /* \"#utility.yul\":9179:9185   */\n      dup5\n        /* \"#utility.yul\":9135:9206   */\n      tag_204\n      jump\t// in\n    tag_365:\n        /* \"#utility.yul\":8991:9213   */\n      swap3\n      swap2\n      pop\n      pop\n      jump\t// out\n        /* \"#utility.yul\":9219:9441   */\n    tag_51:\n        /* \"#utility.yul\":9312:9316   */\n      0x00\n        /* \"#utility.yul\":9350:9352   */\n      0x20\n        /* \"#utility.yul\":9339:9348   */\n      dup3\n        /* \"#utility.yul\":9335:9353   */\n      add\n        /* \"#utility.yul\":9327:9353   */\n      swap1\n      pop\n        /* \"#utility.yul\":9363:9434   */\n      tag_367\n        /* \"#utility.yul\":9431:9432   */\n      0x00\n        /* \"#utility.yul\":9420:9429   */\n      dup4\n        /* \"#utility.yul\":9416:9433   */\n      add\n        /* \"#utility.yul\":9407:9413   */\n      dup5\n        /* \"#utility.yul\":9363:9434   */\n      tag_210\n      jump\t// in\n    tag_367:\n        /* \"#utility.yul\":9219:9441   */\n      swap3\n      swap2\n      pop\n      pop\n      jump\t// out\n        /* \"#utility.yul\":9447:9555   */\n    tag_225:\n        /* \"#utility.yul\":9524:9548   */\n      tag_369\n        /* \"#utility.yul\":9542:9547   */\n      dup2\n        /* \"#utility.yul\":9524:9548   */\n      tag_198\n      jump\t// in\n    tag_369:\n        /* \"#utility.yul\":9519:9522   */\n      dup3\n        /* \"#utility.yul\":9512:9549   */\n      mstore\n        /* \"#utility.yul\":9447:9555   */\n      pop\n      pop\n      jump\t// out\n        /* \"#utility.yul\":9561:9720   */\n    tag_226:\n        /* \"#utility.yul\":9635:9646   */\n      0x00\n        /* \"#utility.yul\":9669:9675   */\n      dup3\n        /* \"#utility.yul\":9664:9667   */\n      dup3\n        /* \"#utility.yul\":9657:9676   */\n      mstore\n        /* \"#utility.yul\":9709:9713   */\n      0x20\n        /* \"#utility.yul\":9704:9707   */\n      dup3\n        /* \"#utility.yul\":9700:9714   */\n      add\n        /* \"#utility.yul\":9685:9714   */\n      swap1\n      pop\n        /* \"#utility.yul\":9561:9720   */\n      swap3\n      swap2\n      pop\n      pop\n      jump\t// out\n        /* \"#utility.yul\":9726:10083   */\n    tag_227:\n        /* \"#utility.yul\":9804:9807   */\n      0x00\n        /* \"#utility.yul\":9832:9871   */\n      tag_372\n        /* \"#utility.yul\":9865:9870   */\n      dup3\n        /* \"#utility.yul\":9832:9871   */\n      tag_205\n      jump\t// in\n    tag_372:\n        /* \"#utility.yul\":9887:9948   */\n      tag_373\n        /* \"#utility.yul\":9941:9947   */\n      dup2\n        /* \"#utility.yul\":9936:9939   */\n      dup6\n        /* \"#utility.yul\":9887:9948   */\n      tag_226\n      jump\t// in\n    tag_373:\n        /* \"#utility.yul\":9880:9948   */\n      swap4\n      pop\n        /* \"#utility.yul\":9957:10022   */\n      tag_374\n        /* \"#utility.yul\":10015:10021   */\n      dup2\n        /* \"#utility.yul\":10010:10013   */\n      dup6\n        /* \"#utility.yul\":10003:10007   */\n      0x20\n        /* \"#utility.yul\":9996:10001   */\n      dup7\n        /* \"#utility.yul\":9992:10008   */\n      add\n        /* \"#utility.yul\":9957:10022   */\n      tag_207\n      jump\t// in\n    tag_374:\n        /* \"#utility.yul\":10047:10076   */\n      tag_375\n        /* \"#utility.yul\":10069:10075   */\n      dup2\n        /* \"#utility.yul\":10047:10076   */\n      tag_208\n      jump\t// in\n    tag_375:\n        /* \"#utility.yul\":10042:10045   */\n      dup5\n        /* \"#utility.yul\":10038:10077   */\n      add\n        /* \"#utility.yul\":10031:10077   */\n      swap2\n      pop\n        /* \"#utility.yul\":9808:10083   */\n      pop\n        /* \"#utility.yul\":9726:10083   */\n      swap3\n      swap2\n      pop\n      pop\n      jump\t// out\n        /* \"#utility.yul\":10089:10197   */\n    tag_228:\n        /* \"#utility.yul\":10166:10190   */\n      tag_377\n        /* \"#utility.yul\":10184:10189   */\n      dup2\n        /* \"#utility.yul\":10166:10190   */\n      tag_201\n      jump\t// in\n    tag_377:\n        /* \"#utility.yul\":10161:10164   */\n      dup3\n        /* \"#utility.yul\":10154:10191   */\n      mstore\n        /* \"#utility.yul\":10089:10197   */\n      pop\n      pop\n      jump\t// out\n        /* \"#utility.yul\":10203:10302   */\n    tag_229:\n        /* \"#utility.yul\":10274:10295   */\n      tag_379\n        /* \"#utility.yul\":10289:10294   */\n      dup2\n        /* \"#utility.yul\":10274:10295   */\n      tag_211\n      jump\t// in\n    tag_379:\n        /* \"#utility.yul\":10269:10272   */\n      dup3\n        /* \"#utility.yul\":10262:10296   */\n      mstore\n        /* \"#utility.yul\":10203:10302   */\n      pop\n      pop\n      jump\t// out\n        /* \"#utility.yul\":10364:12603   */\n    tag_230:\n        /* \"#utility.yul\":10479:10482   */\n      0x00\n        /* \"#utility.yul\":10515:10521   */\n      0x0140\n        /* \"#utility.yul\":10510:10513   */\n      dup4\n        /* \"#utility.yul\":10506:10522   */\n      add\n        /* \"#utility.yul\":10602:10606   */\n      0x00\n        /* \"#utility.yul\":10595:10600   */\n      dup4\n        /* \"#utility.yul\":10591:10607   */\n      add\n        /* \"#utility.yul\":10585:10608   */\n      mload\n        /* \"#utility.yul\":10621:10684   */\n      tag_381\n        /* \"#utility.yul\":10678:10682   */\n      0x00\n        /* \"#utility.yul\":10673:10676   */\n      dup7\n        /* \"#utility.yul\":10669:10683   */\n      add\n        /* \"#utility.yul\":10655:10667   */\n      dup3\n        /* \"#utility.yul\":10621:10684   */\n      tag_225\n      jump\t// in\n    tag_381:\n        /* \"#utility.yul\":10532:10694   */\n      pop\n        /* \"#utility.yul\":10776:10780   */\n      0x20\n        /* \"#utility.yul\":10769:10774   */\n      dup4\n        /* \"#utility.yul\":10765:10781   */\n      add\n        /* \"#utility.yul\":10759:10782   */\n      mload\n        /* \"#utility.yul\":10829:10832   */\n      dup5\n        /* \"#utility.yul\":10823:10827   */\n      dup3\n        /* \"#utility.yul\":10819:10833   */\n      sub\n        /* \"#utility.yul\":10812:10816   */\n      0x20\n        /* \"#utility.yul\":10807:10810   */\n      dup7\n        /* \"#utility.yul\":10803:10817   */\n      add\n        /* \"#utility.yul\":10796:10834   */\n      mstore\n        /* \"#utility.yul\":10855:10928   */\n      tag_382\n        /* \"#utility.yul\":10923:10927   */\n      dup3\n        /* \"#utility.yul\":10909:10921   */\n      dup3\n        /* \"#utility.yul\":10855:10928   */\n      tag_227\n      jump\t// in\n    tag_382:\n        /* \"#utility.yul\":10847:10928   */\n      swap2\n      pop\n        /* \"#utility.yul\":10704:10939   */\n      pop\n        /* \"#utility.yul\":11024:11028   */\n      0x40\n        /* \"#utility.yul\":11017:11022   */\n      dup4\n        /* \"#utility.yul\":11013:11029   */\n      add\n        /* \"#utility.yul\":11007:11030   */\n      mload\n        /* \"#utility.yul\":11077:11080   */\n      dup5\n        /* \"#utility.yul\":11071:11075   */\n      dup3\n        /* \"#utility.yul\":11067:11081   */\n      sub\n        /* \"#utility.yul\":11060:11064   */\n      0x40\n        /* \"#utility.yul\":11055:11058   */\n      dup7\n        /* \"#utility.yul\":11051:11065   */\n      add\n        /* \"#utility.yul\":11044:11082   */\n      mstore\n        /* \"#utility.yul\":11103:11176   */\n      tag_383\n        /* \"#utility.yul\":11171:11175   */\n      dup3\n        /* \"#utility.yul\":11157:11169   */\n      dup3\n        /* \"#utility.yul\":11103:11176   */\n      tag_227\n      jump\t// in\n    tag_383:\n        /* \"#utility.yul\":11095:11176   */\n      swap2\n      pop\n        /* \"#utility.yul\":10949:11187   */\n      pop\n        /* \"#utility.yul\":11274:11278   */\n      0x60\n        /* \"#utility.yul\":11267:11272   */\n      dup4\n        /* \"#utility.yul\":11263:11279   */\n      add\n        /* \"#utility.yul\":11257:11280   */\n      mload\n        /* \"#utility.yul\":11327:11330   */\n      dup5\n        /* \"#utility.yul\":11321:11325   */\n      dup3\n        /* \"#utility.yul\":11317:11331   */\n      sub\n        /* \"#utility.yul\":11310:11314   */\n      0x60\n        /* \"#utility.yul\":11305:11308   */\n      dup7\n        /* \"#utility.yul\":11301:11315   */\n      add\n        /* \"#utility.yul\":11294:11332   */\n      mstore\n        /* \"#utility.yul\":11353:11426   */\n      tag_384\n        /* \"#utility.yul\":11421:11425   */\n      dup3\n        /* \"#utility.yul\":11407:11419   */\n      dup3\n        /* \"#utility.yul\":11353:11426   */\n      tag_227\n      jump\t// in\n    tag_384:\n        /* \"#utility.yul\":11345:11426   */\n      swap2\n      pop\n        /* \"#utility.yul\":11197:11437   */\n      pop\n        /* \"#utility.yul\":11522:11526   */\n      0x80\n        /* \"#utility.yul\":11515:11520   */\n      dup4\n        /* \"#utility.yul\":11511:11527   */\n      add\n        /* \"#utility.yul\":11505:11528   */\n      mload\n        /* \"#utility.yul\":11575:11578   */\n      dup5\n        /* \"#utility.yul\":11569:11573   */\n      dup3\n        /* \"#utility.yul\":11565:11579   */\n      sub\n        /* \"#utility.yul\":11558:11562   */\n      0x80\n        /* \"#utility.yul\":11553:11556   */\n      dup7\n        /* \"#utility.yul\":11549:11563   */\n      add\n        /* \"#utility.yul\":11542:11580   */\n      mstore\n        /* \"#utility.yul\":11601:11674   */\n      tag_385\n        /* \"#utility.yul\":11669:11673   */\n      dup3\n        /* \"#utility.yul\":11655:11667   */\n      dup3\n        /* \"#utility.yul\":11601:11674   */\n      tag_227\n      jump\t// in\n    tag_385:\n        /* \"#utility.yul\":11593:11674   */\n      swap2\n      pop\n        /* \"#utility.yul\":11447:11685   */\n      pop\n        /* \"#utility.yul\":11769:11773   */\n      0xa0\n        /* \"#utility.yul\":11762:11767   */\n      dup4\n        /* \"#utility.yul\":11758:11774   */\n      add\n        /* \"#utility.yul\":11752:11775   */\n      mload\n        /* \"#utility.yul\":11788:11851   */\n      tag_386\n        /* \"#utility.yul\":11845:11849   */\n      0xa0\n        /* \"#utility.yul\":11840:11843   */\n      dup7\n        /* \"#utility.yul\":11836:11850   */\n      add\n        /* \"#utility.yul\":11822:11834   */\n      dup3\n        /* \"#utility.yul\":11788:11851   */\n      tag_225\n      jump\t// in\n    tag_386:\n        /* \"#utility.yul\":11695:11861   */\n      pop\n        /* \"#utility.yul\":11946:11950   */\n      0xc0\n        /* \"#utility.yul\":11939:11944   */\n      dup4\n        /* \"#utility.yul\":11935:11951   */\n      add\n        /* \"#utility.yul\":11929:11952   */\n      mload\n        /* \"#utility.yul\":11965:12028   */\n      tag_387\n        /* \"#utility.yul\":12022:12026   */\n      0xc0\n        /* \"#utility.yul\":12017:12020   */\n      dup7\n        /* \"#utility.yul\":12013:12027   */\n      add\n        /* \"#utility.yul\":11999:12011   */\n      dup3\n        /* \"#utility.yul\":11965:12028   */\n      tag_225\n      jump\t// in\n    tag_387:\n        /* \"#utility.yul\":11871:12038   */\n      pop\n        /* \"#utility.yul\":12125:12129   */\n      0xe0\n        /* \"#utility.yul\":12118:12123   */\n      dup4\n        /* \"#utility.yul\":12114:12130   */\n      add\n        /* \"#utility.yul\":12108:12131   */\n      mload\n        /* \"#utility.yul\":12144:12207   */\n      tag_388\n        /* \"#utility.yul\":12201:12205   */\n      0xe0\n        /* \"#utility.yul\":12196:12199   */\n      dup7\n        /* \"#utility.yul\":12192:12206   */\n      add\n        /* \"#utility.yul\":12178:12190   */\n      dup3\n        /* \"#utility.yul\":12144:12207   */\n      tag_228\n      jump\t// in\n    tag_388:\n        /* \"#utility.yul\":12048:12217   */\n      pop\n        /* \"#utility.yul\":12306:12312   */\n      0x0100\n        /* \"#utility.yul\":12299:12304   */\n      dup4\n        /* \"#utility.yul\":12295:12313   */\n      add\n        /* \"#utility.yul\":12289:12314   */\n      mload\n        /* \"#utility.yul\":12327:12386   */\n      tag_389\n        /* \"#utility.yul\":12378:12384   */\n      0x0100\n        /* \"#utility.yul\":12373:12376   */\n      dup7\n        /* \"#utility.yul\":12369:12385   */\n      add\n        /* \"#utility.yul\":12355:12367   */\n      dup3\n        /* \"#utility.yul\":12327:12386   */\n      tag_229\n      jump\t// in\n    tag_389:\n        /* \"#utility.yul\":12227:12396   */\n      pop\n        /* \"#utility.yul\":12486:12492   */\n      0x0120\n        /* \"#utility.yul\":12479:12484   */\n      dup4\n        /* \"#utility.yul\":12475:12493   */\n      add\n        /* \"#utility.yul\":12469:12494   */\n      mload\n        /* \"#utility.yul\":12507:12566   */\n      tag_390\n        /* \"#utility.yul\":12558:12564   */\n      0x0120\n        /* \"#utility.yul\":12553:12556   */\n      dup7\n        /* \"#utility.yul\":12549:12565   */\n      add\n        /* \"#utility.yul\":12535:12547   */\n      dup3\n        /* \"#utility.yul\":12507:12566   */\n      tag_229\n      jump\t// in\n    tag_390:\n        /* \"#utility.yul\":12406:12576   */\n      pop\n        /* \"#utility.yul\":12593:12597   */\n      dup1\n        /* \"#utility.yul\":12586:12597   */\n      swap2\n      pop\n        /* \"#utility.yul\":10484:12603   */\n      pop\n        /* \"#utility.yul\":10364:12603   */\n      swap3\n      swap2\n      pop\n      pop\n      jump\t// out\n        /* \"#utility.yul\":12609:12974   */\n    tag_56:\n        /* \"#utility.yul\":12748:12752   */\n      0x00\n        /* \"#utility.yul\":12786:12788   */\n      0x20\n        /* \"#utility.yul\":12775:12784   */\n      dup3\n        /* \"#utility.yul\":12771:12789   */\n      add\n        /* \"#utility.yul\":12763:12789   */\n      swap1\n      pop\n        /* \"#utility.yul\":12835:12844   */\n      dup2\n        /* \"#utility.yul\":12829:12833   */\n      dup2\n        /* \"#utility.yul\":12825:12845   */\n      sub\n        /* \"#utility.yul\":12821:12822   */\n      0x00\n        /* \"#utility.yul\":12810:12819   */\n      dup4\n        /* \"#utility.yul\":12806:12823   */\n      add\n        /* \"#utility.yul\":12799:12846   */\n      mstore\n        /* \"#utility.yul\":12863:12967   */\n      tag_392\n        /* \"#utility.yul\":12962:12966   */\n      dup2\n        /* \"#utility.yul\":12953:12959   */\n      dup5\n        /* \"#utility.yul\":12863:12967   */\n      tag_230\n      jump\t// in\n    tag_392:\n        /* \"#utility.yul\":12855:12967   */\n      swap1\n      pop\n        /* \"#utility.yul\":12609:12974   */\n      swap3\n      swap2\n      pop\n      pop\n      jump\t// out\n        /* \"#utility.yul\":12980:14611   */\n    tag_59:\n        /* \"#utility.yul\":13115:13121   */\n      0x00\n        /* \"#utility.yul\":13123:13129   */\n      dup1\n        /* \"#utility.yul\":13131:13137   */\n      0x00\n        /* \"#utility.yul\":13139:13145   */\n      dup1\n        /* \"#utility.yul\":13147:13153   */\n      0x00\n        /* \"#utility.yul\":13196:13199   */\n      0xa0\n        /* \"#utility.yul\":13184:13193   */\n      dup7\n        /* \"#utility.yul\":13175:13182   */\n      dup9\n        /* \"#utility.yul\":13171:13194   */\n      sub\n        /* \"#utility.yul\":13167:13200   */\n      slt\n        /* \"#utility.yul\":13164:13284   */\n      iszero\n      tag_394\n      jumpi\n        /* \"#utility.yul\":13203:13282   */\n      tag_395\n      tag_196\n      jump\t// in\n    tag_395:\n        /* \"#utility.yul\":13164:13284   */\n    tag_394:\n        /* \"#utility.yul\":13323:13324   */\n      0x00\n        /* \"#utility.yul\":13348:13401   */\n      tag_396\n        /* \"#utility.yul\":13393:13400   */\n      dup9\n        /* \"#utility.yul\":13384:13390   */\n      dup3\n        /* \"#utility.yul\":13373:13382   */\n      dup10\n        /* \"#utility.yul\":13369:13391   */\n      add\n        /* \"#utility.yul\":13348:13401   */\n      tag_200\n      jump\t// in\n    tag_396:\n        /* \"#utility.yul\":13338:13401   */\n      swap6\n      pop\n        /* \"#utility.yul\":13294:13411   */\n      pop\n        /* \"#utility.yul\":13478:13480   */\n      0x20\n        /* \"#utility.yul\":13467:13476   */\n      dup7\n        /* \"#utility.yul\":13463:13481   */\n      add\n        /* \"#utility.yul\":13450:13482   */\n      calldataload\n        /* \"#utility.yul\":13509:13527   */\n      0xffffffffffffffff\n        /* \"#utility.yul\":13501:13507   */\n      dup2\n        /* \"#utility.yul\":13498:13528   */\n      gt\n        /* \"#utility.yul\":13495:13612   */\n      iszero\n      tag_397\n      jumpi\n        /* \"#utility.yul\":13531:13610   */\n      tag_398\n      tag_197\n      jump\t// in\n    tag_398:\n        /* \"#utility.yul\":13495:13612   */\n    tag_397:\n        /* \"#utility.yul\":13636:13699   */\n      tag_399\n        /* \"#utility.yul\":13691:13698   */\n      dup9\n        /* \"#utility.yul\":13682:13688   */\n      dup3\n        /* \"#utility.yul\":13671:13680   */\n      dup10\n        /* \"#utility.yul\":13667:13689   */\n      add\n        /* \"#utility.yul\":13636:13699   */\n      tag_221\n      jump\t// in\n    tag_399:\n        /* \"#utility.yul\":13626:13699   */\n      swap5\n      pop\n        /* \"#utility.yul\":13421:13709   */\n      pop\n        /* \"#utility.yul\":13776:13778   */\n      0x40\n        /* \"#utility.yul\":13765:13774   */\n      dup7\n        /* \"#utility.yul\":13761:13779   */\n      add\n        /* \"#utility.yul\":13748:13780   */\n      calldataload\n        /* \"#utility.yul\":13807:13825   */\n      0xffffffffffffffff\n        /* \"#utility.yul\":13799:13805   */\n      dup2\n        /* \"#utility.yul\":13796:13826   */\n      gt\n        /* \"#utility.yul\":13793:13910   */\n      iszero\n      tag_400\n      jumpi\n        /* \"#utility.yul\":13829:13908   */\n      tag_401\n      tag_197\n      jump\t// in\n    tag_401:\n        /* \"#utility.yul\":13793:13910   */\n    tag_400:\n        /* \"#utility.yul\":13934:13997   */\n      tag_402\n        /* \"#utility.yul\":13989:13996   */\n      dup9\n        /* \"#utility.yul\":13980:13986   */\n      dup3\n        /* \"#utility.yul\":13969:13978   */\n      dup10\n        /* \"#utility.yul\":13965:13987   */\n      add\n        /* \"#utility.yul\":13934:13997   */\n      tag_221\n      jump\t// in\n    tag_402:\n        /* \"#utility.yul\":13924:13997   */\n      swap4\n      pop\n        /* \"#utility.yul\":13719:14007   */\n      pop\n        /* \"#utility.yul\":14074:14076   */\n      0x60\n        /* \"#utility.yul\":14063:14072   */\n      dup7\n        /* \"#utility.yul\":14059:14077   */\n      add\n        /* \"#utility.yul\":14046:14078   */\n      calldataload\n        /* \"#utility.yul\":14105:14123   */\n      0xffffffffffffffff\n        /* \"#utility.yul\":14097:14103   */\n      dup2\n        /* \"#utility.yul\":14094:14124   */\n      gt\n        /* \"#utility.yul\":14091:14208   */\n      iszero\n      tag_403\n      jumpi\n        /* \"#utility.yul\":14127:14206   */\n      tag_404\n      tag_197\n      jump\t// in\n    tag_404:\n        /* \"#utility.yul\":14091:14208   */\n    tag_403:\n        /* \"#utility.yul\":14232:14295   */\n      tag_405\n        /* \"#utility.yul\":14287:14294   */\n      dup9\n        /* \"#utility.yul\":14278:14284   */\n      dup3\n        /* \"#utility.yul\":14267:14276   */\n      dup10\n        /* \"#utility.yul\":14263:14285   */\n      add\n        /* \"#utility.yul\":14232:14295   */\n      tag_221\n      jump\t// in\n    tag_405:\n        /* \"#utility.yul\":14222:14295   */\n      swap3\n      pop\n        /* \"#utility.yul\":14017:14305   */\n      pop\n        /* \"#utility.yul\":14372:14375   */\n      0x80\n        /* \"#utility.yul\":14361:14370   */\n      dup7\n        /* \"#utility.yul\":14357:14376   */\n      add\n        /* \"#utility.yul\":14344:14377   */\n      calldataload\n        /* \"#utility.yul\":14404:14422   */\n      0xffffffffffffffff\n        /* \"#utility.yul\":14396:14402   */\n      dup2\n        /* \"#utility.yul\":14393:14423   */\n      gt\n        /* \"#utility.yul\":14390:14507   */\n      iszero\n      tag_406\n      jumpi\n        /* \"#utility.yul\":14426:14505   */\n      tag_407\n      tag_197\n      jump\t// in\n    tag_407:\n        /* \"#utility.yul\":14390:14507   */\n    tag_406:\n        /* \"#utility.yul\":14531:14594   */\n      tag_408\n        /* \"#utility.yul\":14586:14593   */\n      dup9\n        /* \"#utility.yul\":14577:14583   */\n      dup3\n        /* \"#utility.yul\":14566:14575   */\n      dup10\n        /* \"#utility.yul\":14562:14584   */\n      add\n        /* \"#utility.yul\":14531:14594   */\n      tag_221\n      jump\t// in\n    tag_408:\n        /* \"#utility.yul\":14521:14594   */\n      swap2\n      pop\n        /* \"#utility.yul\":14315:14604   */\n      pop\n        /* \"#utility.yul\":12980:14611   */\n      swap3\n      swap6\n      pop\n      swap3\n      swap6\n      swap1\n      swap4\n      pop\n      jump\t// out\n        /* \"#utility.yul\":14617:14782   */\n    tag_231:\n        /* \"#utility.yul\":14757:14774   */\n      0x4e6f7420617574686f72697a6564210000000000000000000000000000000000\n        /* \"#utility.yul\":14753:14754   */\n      0x00\n        /* \"#utility.yul\":14745:14751   */\n      dup3\n        /* \"#utility.yul\":14741:14755   */\n      add\n        /* \"#utility.yul\":14734:14775   */\n      mstore\n        /* \"#utility.yul\":14617:14782   */\n      pop\n      jump\t// out\n        /* \"#utility.yul\":14788:15154   */\n    tag_232:\n        /* \"#utility.yul\":14930:14933   */\n      0x00\n        /* \"#utility.yul\":14951:15018   */\n      tag_411\n        /* \"#utility.yul\":15015:15017   */\n      0x0f\n        /* \"#utility.yul\":15010:15013   */\n      dup4\n        /* \"#utility.yul\":14951:15018   */\n      tag_206\n      jump\t// in\n    tag_411:\n        /* \"#utility.yul\":14944:15018   */\n      swap2\n      pop\n        /* \"#utility.yul\":15027:15120   */\n      tag_412\n        /* \"#utility.yul\":15116:15119   */\n      dup3\n        /* \"#utility.yul\":15027:15120   */\n      tag_231\n      jump\t// in\n    tag_412:\n        /* \"#utility.yul\":15145:15147   */\n      0x20\n        /* \"#utility.yul\":15140:15143   */\n      dup3\n        /* \"#utility.yul\":15136:15148   */\n      add\n        /* \"#utility.yul\":15129:15148   */\n      swap1\n      pop\n        /* \"#utility.yul\":14788:15154   */\n      swap2\n      swap1\n      pop\n      jump\t// out\n        /* \"#utility.yul\":15160:15579   */\n    tag_67:\n        /* \"#utility.yul\":15326:15330   */\n      0x00\n        /* \"#utility.yul\":15364:15366   */\n      0x20\n        /* \"#utility.yul\":15353:15362   */\n      dup3\n        /* \"#utility.yul\":15349:15367   */\n      add\n        /* \"#utility.yul\":15341:15367   */\n      swap1\n      pop\n        /* \"#utility.yul\":15413:15422   */\n      dup2\n        /* \"#utility.yul\":15407:15411   */\n      dup2\n        /* \"#utility.yul\":15403:15423   */\n      sub\n        /* \"#utility.yul\":15399:15400   */\n      0x00\n        /* \"#utility.yul\":15388:15397   */\n      dup4\n        /* \"#utility.yul\":15384:15401   */\n      add\n        /* \"#utility.yul\":15377:15424   */\n      mstore\n        /* \"#utility.yul\":15441:15572   */\n      tag_414\n        /* \"#utility.yul\":15567:15571   */\n      dup2\n        /* \"#utility.yul\":15441:15572   */\n      tag_232\n      jump\t// in\n    tag_414:\n        /* \"#utility.yul\":15433:15572   */\n      swap1\n      pop\n        /* \"#utility.yul\":15160:15579   */\n      swap2\n      swap1\n      pop\n      jump\t// out\n        /* \"#utility.yul\":15585:15755   */\n    tag_233:\n        /* \"#utility.yul\":15725:15747   */\n      0x56697369746f72204964206e6f7420666f756e64000000000000000000000000\n        /* \"#utility.yul\":15721:15722   */\n      0x00\n        /* \"#utility.yul\":15713:15719   */\n      dup3\n        /* \"#utility.yul\":15709:15723   */\n      add\n        /* \"#utility.yul\":15702:15748   */\n      mstore\n        /* \"#utility.yul\":15585:15755   */\n      pop\n      jump\t// out\n        /* \"#utility.yul\":15761:16127   */\n    tag_234:\n        /* \"#utility.yul\":15903:15906   */\n      0x00\n        /* \"#utility.yul\":15924:15991   */\n      tag_417\n        /* \"#utility.yul\":15988:15990   */\n      0x14\n        /* \"#utility.yul\":15983:15986   */\n      dup4\n        /* \"#utility.yul\":15924:15991   */\n      tag_206\n      jump\t// in\n    tag_417:\n        /* \"#utility.yul\":15917:15991   */\n      swap2\n      pop\n        /* \"#utility.yul\":16000:16093   */\n      tag_418\n        /* \"#utility.yul\":16089:16092   */\n      dup3\n        /* \"#utility.yul\":16000:16093   */\n      tag_233\n      jump\t// in\n    tag_418:\n        /* \"#utility.yul\":16118:16120   */\n      0x20\n        /* \"#utility.yul\":16113:16116   */\n      dup3\n        /* \"#utility.yul\":16109:16121   */\n      add\n        /* \"#utility.yul\":16102:16121   */\n      swap1\n      pop\n        /* \"#utility.yul\":15761:16127   */\n      swap2\n      swap1\n      pop\n      jump\t// out\n        /* \"#utility.yul\":16133:16552   */\n    tag_71:\n        /* \"#utility.yul\":16299:16303   */\n      0x00\n        /* \"#utility.yul\":16337:16339   */\n      0x20\n        /* \"#utility.yul\":16326:16335   */\n      dup3\n        /* \"#utility.yul\":16322:16340   */\n      add\n        /* \"#utility.yul\":16314:16340   */\n      swap1\n      pop\n        /* \"#utility.yul\":16386:16395   */\n      dup2\n        /* \"#utility.yul\":16380:16384   */\n      dup2\n        /* \"#utility.yul\":16376:16396   */\n      sub\n        /* \"#utility.yul\":16372:16373   */\n      0x00\n        /* \"#utility.yul\":16361:16370   */\n      dup4\n        /* \"#utility.yul\":16357:16374   */\n      add\n        /* \"#utility.yul\":16350:16397   */\n      mstore\n        /* \"#utility.yul\":16414:16545   */\n      tag_420\n        /* \"#utility.yul\":16540:16544   */\n      dup2\n        /* \"#utility.yul\":16414:16545   */\n      tag_234\n      jump\t// in\n    tag_420:\n        /* \"#utility.yul\":16406:16545   */\n      swap1\n      pop\n        /* \"#utility.yul\":16133:16552   */\n      swap2\n      swap1\n      pop\n      jump\t// out\n        /* \"#utility.yul\":16558:16782   */\n    tag_235:\n        /* \"#utility.yul\":16698:16732   */\n      0x546869732076697369746f722068617320616c726561647920636865636b6564\n        /* \"#utility.yul\":16694:16695   */\n      0x00\n        /* \"#utility.yul\":16686:16692   */\n      dup3\n        /* \"#utility.yul\":16682:16696   */\n      add\n        /* \"#utility.yul\":16675:16733   */\n      mstore\n        /* \"#utility.yul\":16767:16774   */\n      0x206f757421000000000000000000000000000000000000000000000000000000\n        /* \"#utility.yul\":16762:16764   */\n      0x20\n        /* \"#utility.yul\":16754:16760   */\n      dup3\n        /* \"#utility.yul\":16750:16765   */\n      add\n        /* \"#utility.yul\":16743:16775   */\n      mstore\n        /* \"#utility.yul\":16558:16782   */\n      pop\n      jump\t// out\n        /* \"#utility.yul\":16788:17154   */\n    tag_236:\n        /* \"#utility.yul\":16930:16933   */\n      0x00\n        /* \"#utility.yul\":16951:17018   */\n      tag_423\n        /* \"#utility.yul\":17015:17017   */\n      0x25\n        /* \"#utility.yul\":17010:17013   */\n      dup4\n        /* \"#utility.yul\":16951:17018   */\n      tag_206\n      jump\t// in\n    tag_423:\n        /* \"#utility.yul\":16944:17018   */\n      swap2\n      pop\n        /* \"#utility.yul\":17027:17120   */\n      tag_424\n        /* \"#utility.yul\":17116:17119   */\n      dup3\n        /* \"#utility.yul\":17027:17120   */\n      tag_235\n      jump\t// in\n    tag_424:\n        /* \"#utility.yul\":17145:17147   */\n      0x40\n        /* \"#utility.yul\":17140:17143   */\n      dup3\n        /* \"#utility.yul\":17136:17148   */\n      add\n        /* \"#utility.yul\":17129:17148   */\n      swap1\n      pop\n        /* \"#utility.yul\":16788:17154   */\n      swap2\n      swap1\n      pop\n      jump\t// out\n        /* \"#utility.yul\":17160:17579   */\n    tag_74:\n        /* \"#utility.yul\":17326:17330   */\n      0x00\n        /* \"#utility.yul\":17364:17366   */\n      0x20\n        /* \"#utility.yul\":17353:17362   */\n      dup3\n        /* \"#utility.yul\":17349:17367   */\n      add\n        /* \"#utility.yul\":17341:17367   */\n      swap1\n      pop\n        /* \"#utility.yul\":17413:17422   */\n      dup2\n        /* \"#utility.yul\":17407:17411   */\n      dup2\n        /* \"#utility.yul\":17403:17423   */\n      sub\n        /* \"#utility.yul\":17399:17400   */\n      0x00\n        /* \"#utility.yul\":17388:17397   */\n      dup4\n        /* \"#utility.yul\":17384:17401   */\n      add\n        /* \"#utility.yul\":17377:17424   */\n      mstore\n        /* \"#utility.yul\":17441:17572   */\n      tag_426\n        /* \"#utility.yul\":17567:17571   */\n      dup2\n        /* \"#utility.yul\":17441:17572   */\n      tag_236\n      jump\t// in\n    tag_426:\n        /* \"#utility.yul\":17433:17572   */\n      swap1\n      pop\n        /* \"#utility.yul\":17160:17579   */\n      swap2\n      swap1\n      pop\n      jump\t// out\n        /* \"#utility.yul\":17585:17762   */\n    tag_237:\n        /* \"#utility.yul\":17725:17754   */\n      0x5468652076697369746f7220646f6573206e6f74206578697374210000000000\n        /* \"#utility.yul\":17721:17722   */\n      0x00\n        /* \"#utility.yul\":17713:17719   */\n      dup3\n        /* \"#utility.yul\":17709:17723   */\n      add\n        /* \"#utility.yul\":17702:17755   */\n      mstore\n        /* \"#utility.yul\":17585:17762   */\n      pop\n      jump\t// out\n        /* \"#utility.yul\":17768:18134   */\n    tag_238:\n        /* \"#utility.yul\":17910:17913   */\n      0x00\n        /* \"#utility.yul\":17931:17998   */\n      tag_429\n        /* \"#utility.yul\":17995:17997   */\n      0x1b\n        /* \"#utility.yul\":17990:17993   */\n      dup4\n        /* \"#utility.yul\":17931:17998   */\n      tag_206\n      jump\t// in\n    tag_429:\n        /* \"#utility.yul\":17924:17998   */\n      swap2\n      pop\n        /* \"#utility.yul\":18007:18100   */\n      tag_430\n        /* \"#utility.yul\":18096:18099   */\n      dup3\n        /* \"#utility.yul\":18007:18100   */\n      tag_237\n      jump\t// in\n    tag_430:\n        /* \"#utility.yul\":18125:18127   */\n      0x20\n        /* \"#utility.yul\":18120:18123   */\n      dup3\n        /* \"#utility.yul\":18116:18128   */\n      add\n        /* \"#utility.yul\":18109:18128   */\n      swap1\n      pop\n        /* \"#utility.yul\":17768:18134   */\n      swap2\n      swap1\n      pop\n      jump\t// out\n        /* \"#utility.yul\":18140:18559   */\n    tag_78:\n        /* \"#utility.yul\":18306:18310   */\n      0x00\n        /* \"#utility.yul\":18344:18346   */\n      0x20\n        /* \"#utility.yul\":18333:18342   */\n      dup3\n        /* \"#utility.yul\":18329:18347   */\n      add\n        /* \"#utility.yul\":18321:18347   */\n      swap1\n      pop\n        /* \"#utility.yul\":18393:18402   */\n      dup2\n        /* \"#utility.yul\":18387:18391   */\n      dup2\n        /* \"#utility.yul\":18383:18403   */\n      sub\n        /* \"#utility.yul\":18379:18380   */\n      0x00\n        /* \"#utility.yul\":18368:18377   */\n      dup4\n        /* \"#utility.yul\":18364:18381   */\n      add\n        /* \"#utility.yul\":18357:18404   */\n      mstore\n        /* \"#utility.yul\":18421:18552   */\n      tag_432\n        /* \"#utility.yul\":18547:18551   */\n      dup2\n        /* \"#utility.yul\":18421:18552   */\n      tag_238\n      jump\t// in\n    tag_432:\n        /* \"#utility.yul\":18413:18552   */\n      swap1\n      pop\n        /* \"#utility.yul\":18140:18559   */\n      swap2\n      swap1\n      pop\n      jump\t// out\n        /* \"#utility.yul\":18565:18679   */\n    tag_239:\n      pop\n      jump\t// out\n        /* \"#utility.yul\":18685:19049   */\n    tag_240:\n        /* \"#utility.yul\":18827:18830   */\n      0x00\n        /* \"#utility.yul\":18848:18914   */\n      tag_435\n        /* \"#utility.yul\":18912:18913   */\n      0x00\n        /* \"#utility.yul\":18907:18910   */\n      dup4\n        /* \"#utility.yul\":18848:18914   */\n      tag_206\n      jump\t// in\n    tag_435:\n        /* \"#utility.yul\":18841:18914   */\n      swap2\n      pop\n        /* \"#utility.yul\":18923:19016   */\n      tag_436\n        /* \"#utility.yul\":19012:19015   */\n      dup3\n        /* \"#utility.yul\":18923:19016   */\n      tag_239\n      jump\t// in\n    tag_436:\n        /* \"#utility.yul\":19041:19042   */\n      0x00\n        /* \"#utility.yul\":19036:19039   */\n      dup3\n        /* \"#utility.yul\":19032:19043   */\n      add\n        /* \"#utility.yul\":19025:19043   */\n      swap1\n      pop\n        /* \"#utility.yul\":18685:19049   */\n      swap2\n      swap1\n      pop\n      jump\t// out\n        /* \"#utility.yul\":19055:19682   */\n    tag_80:\n        /* \"#utility.yul\":19271:19275   */\n      0x00\n        /* \"#utility.yul\":19309:19311   */\n      0x60\n        /* \"#utility.yul\":19298:19307   */\n      dup3\n        /* \"#utility.yul\":19294:19312   */\n      add\n        /* \"#utility.yul\":19286:19312   */\n      swap1\n      pop\n        /* \"#utility.yul\":19358:19367   */\n      dup2\n        /* \"#utility.yul\":19352:19356   */\n      dup2\n        /* \"#utility.yul\":19348:19368   */\n      sub\n        /* \"#utility.yul\":19344:19345   */\n      0x00\n        /* \"#utility.yul\":19333:19342   */\n      dup4\n        /* \"#utility.yul\":19329:19346   */\n      add\n        /* \"#utility.yul\":19322:19369   */\n      mstore\n        /* \"#utility.yul\":19386:19517   */\n      tag_438\n        /* \"#utility.yul\":19512:19516   */\n      dup2\n        /* \"#utility.yul\":19386:19517   */\n      tag_240\n      jump\t// in\n    tag_438:\n        /* \"#utility.yul\":19378:19517   */\n      swap1\n      pop\n        /* \"#utility.yul\":19527:19599   */\n      tag_439\n        /* \"#utility.yul\":19595:19597   */\n      0x20\n        /* \"#utility.yul\":19584:19593   */\n      dup4\n        /* \"#utility.yul\":19580:19598   */\n      add\n        /* \"#utility.yul\":19571:19577   */\n      dup6\n        /* \"#utility.yul\":19527:19599   */\n      tag_204\n      jump\t// in\n    tag_439:\n        /* \"#utility.yul\":19609:19675   */\n      tag_440\n        /* \"#utility.yul\":19671:19673   */\n      0x40\n        /* \"#utility.yul\":19660:19669   */\n      dup4\n        /* \"#utility.yul\":19656:19674   */\n      add\n        /* \"#utility.yul\":19647:19653   */\n      dup5\n        /* \"#utility.yul\":19609:19675   */\n      tag_212\n      jump\t// in\n    tag_440:\n        /* \"#utility.yul\":19055:19682   */\n      swap4\n      swap3\n      pop\n      pop\n      pop\n      jump\t// out\n        /* \"#utility.yul\":19688:19864   */\n    tag_241:\n        /* \"#utility.yul\":19828:19856   */\n      0x5468652076697369746f7220646f6573206e6f74206578697374000000000000\n        /* \"#utility.yul\":19824:19825   */\n      0x00\n        /* \"#utility.yul\":19816:19822   */\n      dup3\n        /* \"#utility.yul\":19812:19826   */\n      add\n        /* \"#utility.yul\":19805:19857   */\n      mstore\n        /* \"#utility.yul\":19688:19864   */\n      pop\n      jump\t// out\n        /* \"#utility.yul\":19870:20236   */\n    tag_242:\n        /* \"#utility.yul\":20012:20015   */\n      0x00\n        /* \"#utility.yul\":20033:20100   */\n      tag_443\n        /* \"#utility.yul\":20097:20099   */\n      0x1a\n        /* \"#utility.yul\":20092:20095   */\n      dup4\n        /* \"#utility.yul\":20033:20100   */\n      tag_206\n      jump\t// in\n    tag_443:\n        /* \"#utility.yul\":20026:20100   */\n      swap2\n      pop\n        /* \"#utility.yul\":20109:20202   */\n      tag_444\n        /* \"#utility.yul\":20198:20201   */\n      dup3\n        /* \"#utility.yul\":20109:20202   */\n      tag_241\n      jump\t// in\n    tag_444:\n        /* \"#utility.yul\":20227:20229   */\n      0x20\n        /* \"#utility.yul\":20222:20225   */\n      dup3\n        /* \"#utility.yul\":20218:20230   */\n      add\n        /* \"#utility.yul\":20211:20230   */\n      swap1\n      pop\n        /* \"#utility.yul\":19870:20236   */\n      swap2\n      swap1\n      pop\n      jump\t// out\n        /* \"#utility.yul\":20242:20661   */\n    tag_89:\n        /* \"#utility.yul\":20408:20412   */\n      0x00\n        /* \"#utility.yul\":20446:20448   */\n      0x20\n        /* \"#utility.yul\":20435:20444   */\n      dup3\n        /* \"#utility.yul\":20431:20449   */\n      add\n        /* \"#utility.yul\":20423:20449   */\n      swap1\n      pop\n        /* \"#utility.yul\":20495:20504   */\n      dup2\n        /* \"#utility.yul\":20489:20493   */\n      dup2\n        /* \"#utility.yul\":20485:20505   */\n      sub\n        /* \"#utility.yul\":20481:20482   */\n      0x00\n        /* \"#utility.yul\":20470:20479   */\n      dup4\n        /* \"#utility.yul\":20466:20483   */\n      add\n        /* \"#utility.yul\":20459:20506   */\n      mstore\n        /* \"#utility.yul\":20523:20654   */\n      tag_446\n        /* \"#utility.yul\":20649:20653   */\n      dup2\n        /* \"#utility.yul\":20523:20654   */\n      tag_242\n      jump\t// in\n    tag_446:\n        /* \"#utility.yul\":20515:20654   */\n      swap1\n      pop\n        /* \"#utility.yul\":20242:20661   */\n      swap2\n      swap1\n      pop\n      jump\t// out\n        /* \"#utility.yul\":20667:20845   */\n    tag_243:\n        /* \"#utility.yul\":20807:20837   */\n      0x596f75206861766520616c726561647920636865636b6564206f757400000000\n        /* \"#utility.yul\":20803:20804   */\n      0x00\n        /* \"#utility.yul\":20795:20801   */\n      dup3\n        /* \"#utility.yul\":20791:20805   */\n      add\n        /* \"#utility.yul\":20784:20838   */\n      mstore\n        /* \"#utility.yul\":20667:20845   */\n      pop\n      jump\t// out\n        /* \"#utility.yul\":20851:21217   */\n    tag_244:\n        /* \"#utility.yul\":20993:20996   */\n      0x00\n        /* \"#utility.yul\":21014:21081   */\n      tag_449\n        /* \"#utility.yul\":21078:21080   */\n      0x1c\n        /* \"#utility.yul\":21073:21076   */\n      dup4\n        /* \"#utility.yul\":21014:21081   */\n      tag_206\n      jump\t// in\n    tag_449:\n        /* \"#utility.yul\":21007:21081   */\n      swap2\n      pop\n        /* \"#utility.yul\":21090:21183   */\n      tag_450\n        /* \"#utility.yul\":21179:21182   */\n      dup3\n        /* \"#utility.yul\":21090:21183   */\n      tag_243\n      jump\t// in\n    tag_450:\n        /* \"#utility.yul\":21208:21210   */\n      0x20\n        /* \"#utility.yul\":21203:21206   */\n      dup3\n        /* \"#utility.yul\":21199:21211   */\n      add\n        /* \"#utility.yul\":21192:21211   */\n      swap1\n      pop\n        /* \"#utility.yul\":20851:21217   */\n      swap2\n      swap1\n      pop\n      jump\t// out\n        /* \"#utility.yul\":21223:21642   */\n    tag_92:\n        /* \"#utility.yul\":21389:21393   */\n      0x00\n        /* \"#utility.yul\":21427:21429   */\n      0x20\n        /* \"#utility.yul\":21416:21425   */\n      dup3\n        /* \"#utility.yul\":21412:21430   */\n      add\n        /* \"#utility.yul\":21404:21430   */\n      swap1\n      pop\n        /* \"#utility.yul\":21476:21485   */\n      dup2\n        /* \"#utility.yul\":21470:21474   */\n      dup2\n        /* \"#utility.yul\":21466:21486   */\n      sub\n        /* \"#utility.yul\":21462:21463   */\n      0x00\n        /* \"#utility.yul\":21451:21460   */\n      dup4\n        /* \"#utility.yul\":21447:21464   */\n      add\n        /* \"#utility.yul\":21440:21487   */\n      mstore\n        /* \"#utility.yul\":21504:21635   */\n      tag_452\n        /* \"#utility.yul\":21630:21634   */\n      dup2\n        /* \"#utility.yul\":21504:21635   */\n      tag_244\n      jump\t// in\n    tag_452:\n        /* \"#utility.yul\":21496:21635   */\n      swap1\n      pop\n        /* \"#utility.yul\":21223:21642   */\n      swap2\n      swap1\n      pop\n      jump\t// out\n        /* \"#utility.yul\":21648:21828   */\n    tag_245:\n        /* \"#utility.yul\":21696:21773   */\n      0x4e487b7100000000000000000000000000000000000000000000000000000000\n        /* \"#utility.yul\":21693:21694   */\n      0x00\n        /* \"#utility.yul\":21686:21774   */\n      mstore\n        /* \"#utility.yul\":21793:21797   */\n      0x22\n        /* \"#utility.yul\":21790:21791   */\n      0x04\n        /* \"#utility.yul\":21783:21798   */\n      mstore\n        /* \"#utility.yul\":21817:21821   */\n      0x24\n        /* \"#utility.yul\":21814:21815   */\n      0x00\n        /* \"#utility.yul\":21807:21822   */\n      revert\n        /* \"#utility.yul\":21834:22154   */\n    tag_95:\n        /* \"#utility.yul\":21878:21884   */\n      0x00\n        /* \"#utility.yul\":21915:21916   */\n      0x02\n        /* \"#utility.yul\":21909:21913   */\n      dup3\n        /* \"#utility.yul\":21905:21917   */\n      div\n        /* \"#utility.yul\":21895:21917   */\n      swap1\n      pop\n        /* \"#utility.yul\":21962:21963   */\n      0x01\n        /* \"#utility.yul\":21956:21960   */\n      dup3\n        /* \"#utility.yul\":21952:21964   */\n      and\n        /* \"#utility.yul\":21983:22001   */\n      dup1\n        /* \"#utility.yul\":21973:22054   */\n      tag_455\n      jumpi\n        /* \"#utility.yul\":22039:22043   */\n      0x7f\n        /* \"#utility.yul\":22031:22037   */\n      dup3\n        /* \"#utility.yul\":22027:22044   */\n      and\n        /* \"#utility.yul\":22017:22044   */\n      swap2\n      pop\n        /* \"#utility.yul\":21973:22054   */\n    tag_455:\n        /* \"#utility.yul\":22101:22103   */\n      0x20\n        /* \"#utility.yul\":22093:22099   */\n      dup3\n        /* \"#utility.yul\":22090:22104   */\n      lt\n        /* \"#utility.yul\":22070:22088   */\n      dup2\n        /* \"#utility.yul\":22067:22105   */\n      sub\n        /* \"#utility.yul\":22064:22148   */\n      tag_456\n      jumpi\n        /* \"#utility.yul\":22120:22138   */\n      tag_457\n      tag_245\n      jump\t// in\n    tag_457:\n        /* \"#utility.yul\":22064:22148   */\n    tag_456:\n        /* \"#utility.yul\":21885:22154   */\n      pop\n        /* \"#utility.yul\":21834:22154   */\n      swap2\n      swap1\n      pop\n      jump\t// out\n        /* \"#utility.yul\":22160:22341   */\n    tag_246:\n        /* \"#utility.yul\":22300:22333   */\n      0x546869732076697369746f72206973206e6f7420636865636b656420696e2100\n        /* \"#utility.yul\":22296:22297   */\n      0x00\n        /* \"#utility.yul\":22288:22294   */\n      dup3\n        /* \"#utility.yul\":22284:22298   */\n      add\n        /* \"#utility.yul\":22277:22334   */\n      mstore\n        /* \"#utility.yul\":22160:22341   */\n      pop\n      jump\t// out\n        /* \"#utility.yul\":22347:22713   */\n    tag_247:\n        /* \"#utility.yul\":22489:22492   */\n      0x00\n        /* \"#utility.yul\":22510:22577   */\n      tag_460\n        /* \"#utility.yul\":22574:22576   */\n      0x1f\n        /* \"#utility.yul\":22569:22572   */\n      dup4\n        /* \"#utility.yul\":22510:22577   */\n      tag_206\n      jump\t// in\n    tag_460:\n        /* \"#utility.yul\":22503:22577   */\n      swap2\n      pop\n        /* \"#utility.yul\":22586:22679   */\n      tag_461\n        /* \"#utility.yul\":22675:22678   */\n      dup3\n        /* \"#utility.yul\":22586:22679   */\n      tag_246\n      jump\t// in\n    tag_461:\n        /* \"#utility.yul\":22704:22706   */\n      0x20\n        /* \"#utility.yul\":22699:22702   */\n      dup3\n        /* \"#utility.yul\":22695:22707   */\n      add\n        /* \"#utility.yul\":22688:22707   */\n      swap1\n      pop\n        /* \"#utility.yul\":22347:22713   */\n      swap2\n      swap1\n      pop\n      jump\t// out\n        /* \"#utility.yul\":22719:23138   */\n    tag_140:\n        /* \"#utility.yul\":22885:22889   */\n      0x00\n        /* \"#utility.yul\":22923:22925   */\n      0x20\n        /* \"#utility.yul\":22912:22921   */\n      dup3\n        /* \"#utility.yul\":22908:22926   */\n      add\n        /* \"#utility.yul\":22900:22926   */\n      swap1\n      pop\n        /* \"#utility.yul\":22972:22981   */\n      dup2\n        /* \"#utility.yul\":22966:22970   */\n      dup2\n        /* \"#utility.yul\":22962:22982   */\n      sub\n        /* \"#utility.yul\":22958:22959   */\n      0x00\n        /* \"#utility.yul\":22947:22956   */\n      dup4\n        /* \"#utility.yul\":22943:22960   */\n      add\n        /* \"#utility.yul\":22936:22983   */\n      mstore\n        /* \"#utility.yul\":23000:23131   */\n      tag_463\n        /* \"#utility.yul\":23126:23130   */\n      dup2\n        /* \"#utility.yul\":23000:23131   */\n      tag_247\n      jump\t// in\n    tag_463:\n        /* \"#utility.yul\":22992:23131   */\n      swap1\n      pop\n        /* \"#utility.yul\":22719:23138   */\n      swap2\n      swap1\n      pop\n      jump\t// out\n        /* \"#utility.yul\":23144:23319   */\n    tag_248:\n        /* \"#utility.yul\":23295:23312   */\n      0x636865636b6f7574206661696c65640000000000000000000000000000000000\n        /* \"#utility.yul\":23290:23293   */\n      dup2\n        /* \"#utility.yul\":23283:23313   */\n      mstore\n        /* \"#utility.yul\":23144:23319   */\n      pop\n      jump\t// out\n        /* \"#utility.yul\":23325:23673   */\n    tag_142:\n        /* \"#utility.yul\":23481:23485   */\n      0x00\n        /* \"#utility.yul\":23519:23521   */\n      0x20\n        /* \"#utility.yul\":23508:23517   */\n      dup3\n        /* \"#utility.yul\":23504:23522   */\n      add\n        /* \"#utility.yul\":23496:23522   */\n      swap1\n      pop\n        /* \"#utility.yul\":23532:23666   */\n      tag_466\n        /* \"#utility.yul\":23663:23664   */\n      0x00\n        /* \"#utility.yul\":23652:23661   */\n      dup4\n        /* \"#utility.yul\":23648:23665   */\n      add\n        /* \"#utility.yul\":23532:23666   */\n      tag_248\n      jump\t// in\n    tag_466:\n        /* \"#utility.yul\":23325:23673   */\n      swap2\n      swap1\n      pop\n      jump\t// out\n        /* \"#utility.yul\":23679:23859   */\n    tag_249:\n        /* \"#utility.yul\":23727:23804   */\n      0x4e487b7100000000000000000000000000000000000000000000000000000000\n        /* \"#utility.yul\":23724:23725   */\n      0x00\n        /* \"#utility.yul\":23717:23805   */\n      mstore\n        /* \"#utility.yul\":23824:23828   */\n      0x11\n        /* \"#utility.yul\":23821:23822   */\n      0x04\n        /* \"#utility.yul\":23814:23829   */\n      mstore\n        /* \"#utility.yul\":23848:23852   */\n      0x24\n        /* \"#utility.yul\":23845:23846   */\n      0x00\n        /* \"#utility.yul\":23838:23853   */\n      revert\n        /* \"#utility.yul\":23865:24098   */\n    tag_145:\n        /* \"#utility.yul\":23904:23907   */\n      0x00\n        /* \"#utility.yul\":23927:23951   */\n      tag_469\n        /* \"#utility.yul\":23945:23950   */\n      dup3\n        /* \"#utility.yul\":23927:23951   */\n      tag_198\n      jump\t// in\n    tag_469:\n        /* \"#utility.yul\":23918:23951   */\n      swap2\n      pop\n        /* \"#utility.yul\":23973:24039   */\n      0xffffffffffffffffffffffffffffffffffffffffffffffffffffffffffffffff\n        /* \"#utility.yul\":23966:23971   */\n      dup3\n        /* \"#utility.yul\":23963:24040   */\n      sub\n        /* \"#utility.yul\":23960:24063   */\n      tag_470\n      jumpi\n        /* \"#utility.yul\":24043:24061   */\n      tag_471\n      tag_249\n      jump\t// in\n    tag_471:\n        /* \"#utility.yul\":23960:24063   */\n    tag_470:\n        /* \"#utility.yul\":24090:24091   */\n      0x01\n        /* \"#utility.yul\":24083:24088   */\n      dup3\n        /* \"#utility.yul\":24079:24092   */\n      add\n        /* \"#utility.yul\":24072:24092   */\n      swap1\n      pop\n        /* \"#utility.yul\":23865:24098   */\n      swap2\n      swap1\n      pop\n      jump\t// out\n        /* \"#utility.yul\":24104:24245   */\n    tag_250:\n        /* \"#utility.yul\":24153:24157   */\n      0x00\n        /* \"#utility.yul\":24176:24179   */\n      dup2\n        /* \"#utility.yul\":24168:24179   */\n      swap1\n      pop\n        /* \"#utility.yul\":24199:24202   */\n      dup2\n        /* \"#utility.yul\":24196:24197   */\n      0x00\n        /* \"#utility.yul\":24189:24203   */\n      mstore\n        /* \"#utility.yul\":24233:24237   */\n      0x20\n        /* \"#utility.yul\":24230:24231   */\n      0x00\n        /* \"#utility.yul\":24220:24238   */\n      keccak256\n        /* \"#utility.yul\":24212:24238   */\n      swap1\n      pop\n        /* \"#utility.yul\":24104:24245   */\n      swap2\n      swap1\n      pop\n      jump\t// out\n        /* \"#utility.yul\":24251:24344   */\n    tag_251:\n        /* \"#utility.yul\":24288:24294   */\n      0x00\n        /* \"#utility.yul\":24335:24337   */\n      0x20\n        /* \"#utility.yul\":24330:24332   */\n      0x1f\n        /* \"#utility.yul\":24323:24328   */\n      dup4\n        /* \"#utility.yul\":24319:24333   */\n      add\n        /* \"#utility.yul\":24315:24338   */\n      div\n        /* \"#utility.yul\":24305:24338   */\n      swap1\n      pop\n        /* \"#utility.yul\":24251:24344   */\n      swap2\n      swap1\n      pop\n      jump\t// out\n        /* \"#utility.yul\":24350:24457   */\n    tag_252:\n        /* \"#utility.yul\":24394:24402   */\n      0x00\n        /* \"#utility.yul\":24444:24449   */\n      dup3\n        /* \"#utility.yul\":24438:24442   */\n      dup3\n        /* \"#utility.yul\":24434:24450   */\n      shl\n        /* \"#utility.yul\":24413:24450   */\n      swap1\n      pop\n        /* \"#utility.yul\":24350:24457   */\n      swap3\n      swap2\n      pop\n      pop\n      jump\t// out\n        /* \"#utility.yul\":24463:24856   */\n    tag_253:\n        /* \"#utility.yul\":24532:24538   */\n      0x00\n        /* \"#utility.yul\":24582:24583   */\n      0x08\n        /* \"#utility.yul\":24570:24580   */\n      dup4\n        /* \"#utility.yul\":24566:24584   */\n      mul\n        /* \"#utility.yul\":24605:24702   */\n      tag_476\n        /* \"#utility.yul\":24635:24701   */\n      0xffffffffffffffffffffffffffffffffffffffffffffffffffffffffffffffff\n        /* \"#utility.yul\":24624:24633   */\n      dup3\n        /* \"#utility.yul\":24605:24702   */\n      tag_252\n      jump\t// in\n    tag_476:\n        /* \"#utility.yul\":24723:24762   */\n      tag_477\n        /* \"#utility.yul\":24753:24761   */\n      dup7\n        /* \"#utility.yul\":24742:24751   */\n      dup4\n        /* \"#utility.yul\":24723:24762   */\n      tag_252\n      jump\t// in\n    tag_477:\n        /* \"#utility.yul\":24711:24762   */\n      swap6\n      pop\n        /* \"#utility.yul\":24795:24799   */\n      dup1\n        /* \"#utility.yul\":24791:24800   */\n      not\n        /* \"#utility.yul\":24784:24789   */\n      dup5\n        /* \"#utility.yul\":24780:24801   */\n      and\n        /* \"#utility.yul\":24771:24801   */\n      swap4\n      pop\n        /* \"#utility.yul\":24844:24848   */\n      dup1\n        /* \"#utility.yul\":24834:24842   */\n      dup7\n        /* \"#utility.yul\":24830:24849   */\n      and\n        /* \"#utility.yul\":24823:24828   */\n      dup5\n        /* \"#utility.yul\":24820:24850   */\n      or\n        /* \"#utility.yul\":24810:24850   */\n      swap3\n      pop\n        /* \"#utility.yul\":24539:24856   */\n      pop\n      pop\n        /* \"#utility.yul\":24463:24856   */\n      swap4\n      swap3\n      pop\n      pop\n      pop\n      jump\t// out\n        /* \"#utility.yul\":24862:24922   */\n    tag_254:\n        /* \"#utility.yul\":24890:24893   */\n      0x00\n        /* \"#utility.yul\":24911:24916   */\n      dup2\n        /* \"#utility.yul\":24904:24916   */\n      swap1\n      pop\n        /* \"#utility.yul\":24862:24922   */\n      swap2\n      swap1\n      pop\n      jump\t// out\n        /* \"#utility.yul\":24928:25070   */\n    tag_255:\n        /* \"#utility.yul\":24978:24987   */\n      0x00\n        /* \"#utility.yul\":25011:25064   */\n      tag_480\n        /* \"#utility.yul\":25029:25063   */\n      tag_481\n        /* \"#utility.yul\":25038:25062   */\n      tag_482\n        /* \"#utility.yul\":25056:25061   */\n      dup5\n        /* \"#utility.yul\":25038:25062   */\n      tag_198\n      jump\t// in\n    tag_482:\n        /* \"#utility.yul\":25029:25063   */\n      tag_254\n      jump\t// in\n    tag_481:\n        /* \"#utility.yul\":25011:25064   */\n      tag_198\n      jump\t// in\n    tag_480:\n        /* \"#utility.yul\":24998:25064   */\n      swap1\n      pop\n        /* \"#utility.yul\":24928:25070   */\n      swap2\n      swap1\n      pop\n      jump\t// out\n        /* \"#utility.yul\":25076:25151   */\n    tag_256:\n        /* \"#utility.yul\":25119:25122   */\n      0x00\n        /* \"#utility.yul\":25140:25145   */\n      dup2\n        /* \"#utility.yul\":25133:25145   */\n      swap1\n      pop\n        /* \"#utility.yul\":25076:25151   */\n      swap2\n      swap1\n      pop\n      jump\t// out\n        /* \"#utility.yul\":25157:25426   */\n    tag_257:\n        /* \"#utility.yul\":25267:25306   */\n      tag_485\n        /* \"#utility.yul\":25298:25305   */\n      dup4\n        /* \"#utility.yul\":25267:25306   */\n      tag_255\n      jump\t// in\n    tag_485:\n        /* \"#utility.yul\":25328:25419   */\n      tag_486\n        /* \"#utility.yul\":25377:25418   */\n      tag_487\n        /* \"#utility.yul\":25401:25417   */\n      dup3\n        /* \"#utility.yul\":25377:25418   */\n      tag_256\n      jump\t// in\n    tag_487:\n        /* \"#utility.yul\":25369:25375   */\n      dup5\n        /* \"#utility.yul\":25362:25366   */\n      dup5\n        /* \"#utility.yul\":25356:25367   */\n      sload\n        /* \"#utility.yul\":25328:25419   */\n      tag_253\n      jump\t// in\n    tag_486:\n        /* \"#utility.yul\":25322:25326   */\n      dup3\n        /* \"#utility.yul\":25315:25420   */\n      sstore\n        /* \"#utility.yul\":25233:25426   */\n      pop\n        /* \"#utility.yul\":25157:25426   */\n      pop\n      pop\n      pop\n      jump\t// out\n        /* \"#utility.yul\":25432:25505   */\n    tag_258:\n        /* \"#utility.yul\":25477:25480   */\n      0x00\n        /* \"#utility.yul\":25432:25505   */\n      swap1\n      jump\t// out\n        /* \"#utility.yul\":25511:25700   */\n    tag_259:\n        /* \"#utility.yul\":25588:25620   */\n      tag_490\n      tag_258\n      jump\t// in\n    tag_490:\n        /* \"#utility.yul\":25629:25694   */\n      tag_491\n        /* \"#utility.yul\":25687:25693   */\n      dup2\n        /* \"#utility.yul\":25679:25685   */\n      dup5\n        /* \"#utility.yul\":25673:25677   */\n      dup5\n        /* \"#utility.yul\":25629:25694   */\n      tag_257\n      jump\t// in\n    tag_491:\n        /* \"#utility.yul\":25564:25700   */\n      pop\n        /* \"#utility.yul\":25511:25700   */\n      pop\n      pop\n      jump\t// out\n        /* \"#utility.yul\":25706:25892   */\n    tag_260:\n        /* \"#utility.yul\":25766:25886   */\n    tag_493:\n        /* \"#utility.yul\":25783:25786   */\n      dup2\n        /* \"#utility.yul\":25776:25781   */\n      dup2\n        /* \"#utility.yul\":25773:25787   */\n      lt\n        /* \"#utility.yul\":25766:25886   */\n      iszero\n      tag_495\n      jumpi\n        /* \"#utility.yul\":25837:25876   */\n      tag_496\n        /* \"#utility.yul\":25874:25875   */\n      0x00\n        /* \"#utility.yul\":25867:25872   */\n      dup3\n        /* \"#utility.yul\":25837:25876   */\n      tag_259\n      jump\t// in\n    tag_496:\n        /* \"#utility.yul\":25810:25811   */\n      0x01\n        /* \"#utility.yul\":25803:25808   */\n      dup2\n        /* \"#utility.yul\":25799:25812   */\n      add\n        /* \"#utility.yul\":25790:25812   */\n      swap1\n      pop\n        /* \"#utility.yul\":25766:25886   */\n      jump(tag_493)\n    tag_495:\n        /* \"#utility.yul\":25706:25892   */\n      pop\n      pop\n      jump\t// out\n        /* \"#utility.yul\":25898:26441   */\n    tag_261:\n        /* \"#utility.yul\":25999:26001   */\n      0x1f\n        /* \"#utility.yul\":25994:25997   */\n      dup3\n        /* \"#utility.yul\":25991:26002   */\n      gt\n        /* \"#utility.yul\":25988:26434   */\n      iszero\n      tag_498\n      jumpi\n        /* \"#utility.yul\":26033:26071   */\n      tag_499\n        /* \"#utility.yul\":26065:26070   */\n      dup2\n        /* \"#utility.yul\":26033:26071   */\n      tag_250\n      jump\t// in\n    tag_499:\n        /* \"#utility.yul\":26117:26146   */\n      tag_500\n        /* \"#utility.yul\":26135:26145   */\n      dup5\n        /* \"#utility.yul\":26117:26146   */\n      tag_251\n      jump\t// in\n    tag_500:\n        /* \"#utility.yul\":26107:26115   */\n      dup2\n        /* \"#utility.yul\":26103:26147   */\n      add\n        /* \"#utility.yul\":26300:26302   */\n      0x20\n        /* \"#utility.yul\":26288:26298   */\n      dup6\n        /* \"#utility.yul\":26285:26303   */\n      lt\n        /* \"#utility.yul\":26282:26331   */\n      iszero\n      tag_501\n      jumpi\n        /* \"#utility.yul\":26321:26329   */\n      dup2\n        /* \"#utility.yul\":26306:26329   */\n      swap1\n      pop\n        /* \"#utility.yul\":26282:26331   */\n    tag_501:\n        /* \"#utility.yul\":26344:26424   */\n      tag_502\n        /* \"#utility.yul\":26400:26422   */\n      tag_503\n        /* \"#utility.yul\":26418:26421   */\n      dup6\n        /* \"#utility.yul\":26400:26422   */\n      tag_251\n      jump\t// in\n    tag_503:\n        /* \"#utility.yul\":26390:26398   */\n      dup4\n        /* \"#utility.yul\":26386:26423   */\n      add\n        /* \"#utility.yul\":26373:26384   */\n      dup3\n        /* \"#utility.yul\":26344:26424   */\n      tag_260\n      jump\t// in\n    tag_502:\n        /* \"#utility.yul\":26003:26434   */\n      pop\n      pop\n        /* \"#utility.yul\":25988:26434   */\n    tag_498:\n        /* \"#utility.yul\":25898:26441   */\n      pop\n      pop\n      pop\n      jump\t// out\n        /* \"#utility.yul\":26447:26564   */\n    tag_262:\n        /* \"#utility.yul\":26501:26509   */\n      0x00\n        /* \"#utility.yul\":26551:26556   */\n      dup3\n        /* \"#utility.yul\":26545:26549   */\n      dup3\n        /* \"#utility.yul\":26541:26557   */\n      shr\n        /* \"#utility.yul\":26520:26557   */\n      swap1\n      pop\n        /* \"#utility.yul\":26447:26564   */\n      swap3\n      swap2\n      pop\n      pop\n      jump\t// out\n        /* \"#utility.yul\":26570:26739   */\n    tag_263:\n        /* \"#utility.yul\":26614:26620   */\n      0x00\n        /* \"#utility.yul\":26647:26698   */\n      tag_506\n        /* \"#utility.yul\":26695:26696   */\n      0x00\n        /* \"#utility.yul\":26691:26697   */\n      not\n        /* \"#utility.yul\":26683:26688   */\n      dup5\n        /* \"#utility.yul\":26680:26681   */\n      0x08\n        /* \"#utility.yul\":26676:26689   */\n      mul\n        /* \"#utility.yul\":26647:26698   */\n      tag_262\n      jump\t// in\n    tag_506:\n        /* \"#utility.yul\":26643:26699   */\n      not\n        /* \"#utility.yul\":26728:26732   */\n      dup1\n        /* \"#utility.yul\":26722:26726   */\n      dup4\n        /* \"#utility.yul\":26718:26733   */\n      and\n        /* \"#utility.yul\":26708:26733   */\n      swap2\n      pop\n        /* \"#utility.yul\":26621:26739   */\n      pop\n        /* \"#utility.yul\":26570:26739   */\n      swap3\n      swap2\n      pop\n      pop\n      jump\t// out\n        /* \"#utility.yul\":26744:27039   */\n    tag_264:\n        /* \"#utility.yul\":26820:26824   */\n      0x00\n        /* \"#utility.yul\":26966:26995   */\n      tag_508\n        /* \"#utility.yul\":26991:26994   */\n      dup4\n        /* \"#utility.yul\":26985:26989   */\n      dup4\n        /* \"#utility.yul\":26966:26995   */\n      tag_263\n      jump\t// in\n    tag_508:\n        /* \"#utility.yul\":26958:26995   */\n      swap2\n      pop\n        /* \"#utility.yul\":27028:27031   */\n      dup3\n        /* \"#utility.yul\":27025:27026   */\n      0x02\n        /* \"#utility.yul\":27021:27032   */\n      mul\n        /* \"#utility.yul\":27015:27019   */\n      dup3\n        /* \"#utility.yul\":27012:27033   */\n      or\n        /* \"#utility.yul\":27004:27033   */\n      swap1\n      pop\n        /* \"#utility.yul\":26744:27039   */\n      swap3\n      swap2\n      pop\n      pop\n      jump\t// out\n        /* \"#utility.yul\":27044:28439   */\n    tag_147:\n        /* \"#utility.yul\":27161:27198   */\n      tag_510\n        /* \"#utility.yul\":27194:27197   */\n      dup3\n        /* \"#utility.yul\":27161:27198   */\n      tag_205\n      jump\t// in\n    tag_510:\n        /* \"#utility.yul\":27263:27281   */\n      0xffffffffffffffff\n        /* \"#utility.yul\":27255:27261   */\n      dup2\n        /* \"#utility.yul\":27252:27282   */\n      gt\n        /* \"#utility.yul\":27249:27305   */\n      iszero\n      tag_511\n      jumpi\n        /* \"#utility.yul\":27285:27303   */\n      tag_512\n      tag_215\n      jump\t// in\n    tag_512:\n        /* \"#utility.yul\":27249:27305   */\n    tag_511:\n        /* \"#utility.yul\":27329:27367   */\n      tag_513\n        /* \"#utility.yul\":27361:27365   */\n      dup3\n        /* \"#utility.yul\":27355:27366   */\n      sload\n        /* \"#utility.yul\":27329:27367   */\n      tag_95\n      jump\t// in\n    tag_513:\n        /* \"#utility.yul\":27414:27481   */\n      tag_514\n        /* \"#utility.yul\":27474:27480   */\n      dup3\n        /* \"#utility.yul\":27466:27472   */\n      dup3\n        /* \"#utility.yul\":27460:27464   */\n      dup6\n        /* \"#utility.yul\":27414:27481   */\n      tag_261\n      jump\t// in\n    tag_514:\n        /* \"#utility.yul\":27508:27509   */\n      0x00\n        /* \"#utility.yul\":27532:27536   */\n      0x20\n        /* \"#utility.yul\":27519:27536   */\n      swap1\n      pop\n        /* \"#utility.yul\":27564:27566   */\n      0x1f\n        /* \"#utility.yul\":27556:27562   */\n      dup4\n        /* \"#utility.yul\":27553:27567   */\n      gt\n        /* \"#utility.yul\":27581:27582   */\n      0x01\n        /* \"#utility.yul\":27576:28194   */\n      dup2\n      eq\n      tag_516\n      jumpi\n        /* \"#utility.yul\":28238:28239   */\n      0x00\n        /* \"#utility.yul\":28255:28261   */\n      dup5\n        /* \"#utility.yul\":28252:28329   */\n      iszero\n      tag_517\n      jumpi\n        /* \"#utility.yul\":28304:28313   */\n      dup3\n        /* \"#utility.yul\":28299:28302   */\n      dup8\n        /* \"#utility.yul\":28295:28314   */\n      add\n        /* \"#utility.yul\":28289:28315   */\n      mload\n        /* \"#utility.yul\":28280:28315   */\n      swap1\n      pop\n        /* \"#utility.yul\":28252:28329   */\n    tag_517:\n        /* \"#utility.yul\":28355:28422   */\n      tag_518\n        /* \"#utility.yul\":28415:28421   */\n      dup6\n        /* \"#utility.yul\":28408:28413   */\n      dup3\n        /* \"#utility.yul\":28355:28422   */\n      tag_264\n      jump\t// in\n    tag_518:\n        /* \"#utility.yul\":28349:28353   */\n      dup7\n        /* \"#utility.yul\":28342:28423   */\n      sstore\n        /* \"#utility.yul\":28211:28433   */\n      pop\n        /* \"#utility.yul\":27546:28433   */\n      jump(tag_515)\n        /* \"#utility.yul\":27576:28194   */\n    tag_516:\n        /* \"#utility.yul\":27628:27632   */\n      0x1f\n        /* \"#utility.yul\":27624:27633   */\n      not\n        /* \"#utility.yul\":27616:27622   */\n      dup5\n        /* \"#utility.yul\":27612:27634   */\n      and\n        /* \"#utility.yul\":27662:27699   */\n      tag_519\n        /* \"#utility.yul\":27694:27698   */\n      dup7\n        /* \"#utility.yul\":27662:27699   */\n      tag_250\n      jump\t// in\n    tag_519:\n        /* \"#utility.yul\":27721:27722   */\n      0x00\n        /* \"#utility.yul\":27735:27943   */\n    tag_520:\n        /* \"#utility.yul\":27749:27756   */\n      dup3\n        /* \"#utility.yul\":27746:27747   */\n      dup2\n        /* \"#utility.yul\":27743:27757   */\n      lt\n        /* \"#utility.yul\":27735:27943   */\n      iszero\n      tag_522\n      jumpi\n        /* \"#utility.yul\":27828:27837   */\n      dup5\n        /* \"#utility.yul\":27823:27826   */\n      dup10\n        /* \"#utility.yul\":27819:27838   */\n      add\n        /* \"#utility.yul\":27813:27839   */\n      mload\n        /* \"#utility.yul\":27805:27811   */\n      dup3\n        /* \"#utility.yul\":27798:27840   */\n      sstore\n        /* \"#utility.yul\":27879:27880   */\n      0x01\n        /* \"#utility.yul\":27871:27877   */\n      dup3\n        /* \"#utility.yul\":27867:27881   */\n      add\n        /* \"#utility.yul\":27857:27881   */\n      swap2\n      pop\n        /* \"#utility.yul\":27926:27928   */\n      0x20\n        /* \"#utility.yul\":27915:27924   */\n      dup6\n        /* \"#utility.yul\":27911:27929   */\n      add\n        /* \"#utility.yul\":27898:27929   */\n      swap5\n      pop\n        /* \"#utility.yul\":27772:27776   */\n      0x20\n        /* \"#utility.yul\":27769:27770   */\n      dup2\n        /* \"#utility.yul\":27765:27777   */\n      add\n        /* \"#utility.yul\":27760:27777   */\n      swap1\n      pop\n        /* \"#utility.yul\":27735:27943   */\n      jump(tag_520)\n    tag_522:\n        /* \"#utility.yul\":27971:27977   */\n      dup7\n        /* \"#utility.yul\":27962:27969   */\n      dup4\n        /* \"#utility.yul\":27959:27978   */\n      lt\n        /* \"#utility.yul\":27956:28135   */\n      iszero\n      tag_523\n      jumpi\n        /* \"#utility.yul\":28029:28038   */\n      dup5\n        /* \"#utility.yul\":28024:28027   */\n      dup10\n        /* \"#utility.yul\":28020:28039   */\n      add\n        /* \"#utility.yul\":28014:28040   */\n      mload\n        /* \"#utility.yul\":28072:28120   */\n      tag_524\n        /* \"#utility.yul\":28114:28118   */\n      0x1f\n        /* \"#utility.yul\":28106:28112   */\n      dup10\n        /* \"#utility.yul\":28102:28119   */\n      and\n        /* \"#utility.yul\":28091:28100   */\n      dup3\n        /* \"#utility.yul\":28072:28120   */\n      tag_263\n      jump\t// in\n    tag_524:\n        /* \"#utility.yul\":28064:28070   */\n      dup4\n        /* \"#utility.yul\":28057:28121   */\n      sstore\n        /* \"#utility.yul\":27979:28135   */\n      pop\n        /* \"#utility.yul\":27956:28135   */\n    tag_523:\n        /* \"#utility.yul\":28181:28182   */\n      0x01\n        /* \"#utility.yul\":28177:28178   */\n      0x02\n        /* \"#utility.yul\":28169:28175   */\n      dup9\n        /* \"#utility.yul\":28165:28179   */\n      mul\n        /* \"#utility.yul\":28161:28183   */\n      add\n        /* \"#utility.yul\":28155:28159   */\n      dup9\n        /* \"#utility.yul\":28148:28184   */\n      sstore\n        /* \"#utility.yul\":27583:28194   */\n      pop\n      pop\n      pop\n        /* \"#utility.yul\":27546:28433   */\n    tag_515:\n      pop\n        /* \"#utility.yul\":27136:28439   */\n      pop\n      pop\n      pop\n        /* \"#utility.yul\":27044:28439   */\n      pop\n      pop\n      jump\t// out\n        /* \"#utility.yul\":28445:28966   */\n    tag_152:\n        /* \"#utility.yul\":28608:28612   */\n      0x00\n        /* \"#utility.yul\":28646:28648   */\n      0x60\n        /* \"#utility.yul\":28635:28644   */\n      dup3\n        /* \"#utility.yul\":28631:28649   */\n      add\n        /* \"#utility.yul\":28623:28649   */\n      swap1\n      pop\n        /* \"#utility.yul\":28695:28704   */\n      dup2\n        /* \"#utility.yul\":28689:28693   */\n      dup2\n        /* \"#utility.yul\":28685:28705   */\n      sub\n        /* \"#utility.yul\":28681:28682   */\n      0x00\n        /* \"#utility.yul\":28670:28679   */\n      dup4\n        /* \"#utility.yul\":28666:28683   */\n      add\n        /* \"#utility.yul\":28659:28706   */\n      mstore\n        /* \"#utility.yul\":28723:28801   */\n      tag_526\n        /* \"#utility.yul\":28796:28800   */\n      dup2\n        /* \"#utility.yul\":28787:28793   */\n      dup7\n        /* \"#utility.yul\":28723:28801   */\n      tag_209\n      jump\t// in\n    tag_526:\n        /* \"#utility.yul\":28715:28801   */\n      swap1\n      pop\n        /* \"#utility.yul\":28811:28883   */\n      tag_527\n        /* \"#utility.yul\":28879:28881   */\n      0x20\n        /* \"#utility.yul\":28868:28877   */\n      dup4\n        /* \"#utility.yul\":28864:28882   */\n      add\n        /* \"#utility.yul\":28855:28861   */\n      dup6\n        /* \"#utility.yul\":28811:28883   */\n      tag_204\n      jump\t// in\n    tag_527:\n        /* \"#utility.yul\":28893:28959   */\n      tag_528\n        /* \"#utility.yul\":28955:28957   */\n      0x40\n        /* \"#utility.yul\":28944:28953   */\n      dup4\n        /* \"#utility.yul\":28940:28958   */\n      add\n        /* \"#utility.yul\":28931:28937   */\n      dup5\n        /* \"#utility.yul\":28893:28959   */\n      tag_212\n      jump\t// in\n    tag_528:\n        /* \"#utility.yul\":28445:28966   */\n      swap5\n      swap4\n      pop\n      pop\n      pop\n      pop\n      jump\t// out\n\n    auxdata: 0xa26469706673582212205ba68eba7aa5a07ddd1f6e14a7f53aba38cf82ed92090d932f18f125d2b9d9e664736f6c634300081a0033\n}\n",
				"bytecode": {
					"linkReferences": {},
					"object": "6080604052348015600e575f80fd5b503360015f6101000a81548173ffffffffffffffffffffffffffffffffffffffff021916908373ffffffffffffffffffffffffffffffffffffffff16021790555061219e8061005c5f395ff3fe608060405234801561000f575f80fd5b50600436106100b2575f3560e01c80638da5cb5b1161006f5780638da5cb5b14610186578063a1702aed146101a4578063a5dd4c5e146101c2578063c22f6289146101f2578063d16208ec14610222578063fcfcf4401461023e576100b2565b8063167b548b146100b65780631bd2eeee146100d257806334e8659f146100ee57806342b71a3614610115578063462304061461014e5780638a18ef651461016a575b5f80fd5b6100d060048036038101906100cb919061139e565b61025c565b005b6100ec60048036038101906100e791906113dc565b610447565b005b6100f661062d565b60405161010c9a999897969594939291906114af565b60405180910390f35b61012f600480360381019061012a91906113dc565b61089f565b6040516101459a999897969594939291906114af565b60405180910390f35b610168600480360381019061016391906113dc565b610b20565b005b610184600480360381019061017f9190611691565b610c02565b005b61018e610d7e565b60405161019b91906117a4565b60405180910390f35b6101ac610da3565b6040516101b991906117bd565b60405180910390f35b6101dc60048036038101906101d791906113dc565b610da8565b6040516101e991906117d6565b60405180910390f35b61020c600480360381019061020791906113dc565b610e85565b6040516102199190611950565b60405180910390f35b61023c60048036038101906102379190611970565b6111a6565b005b6102466112cb565b60405161025391906117bd565b60405180910390f35b60015f9054906101000a900473ffffffffffffffffffffffffffffffffffffffff1673ffffffffffffffffffffffffffffffffffffffff163373ffffffffffffffffffffffffffffffffffffffff16146102eb576040517f08c379a00000000000000000000000000000000000000000000000000000000081526004016102e290611aa1565b60405180910390fd5b81600160025f8381526020019081526020015f205f01541015610343576040517f08c379a000000000000000000000000000000000000000000000000000000000815260040161033a90611b09565b60405180910390fd5b6001151560025f8381526020019081526020015f206008015f9054906101000a900460ff161515146103aa576040517f08c379a00000000000000000000000000000000000000000000000000000000081526004016103a190611b97565b60405180910390fd5b5f548311156103ee576040517f08c379a00000000000000000000000000000000000000000000000000000000081526004016103e590611bff565b60405180910390fd5b8160025f8581526020019081526020015f20600701819055507f699b4741e93376d2bdd9c5f5a8a0aed91700830694fd4d952f1f41ec3e2c4cb35f54600160405161043a929190611c40565b60405180910390a1505050565b80600160025f8381526020019081526020015f205f0154101561049f576040517f08c379a000000000000000000000000000000000000000000000000000000000815260040161049690611b09565b60405180910390fd5b6001151560025f8381526020019081526020015f206008015f9054906101000a900460ff16151514610506576040517f08c379a00000000000000000000000000000000000000000000000000000000081526004016104fd90611b97565b60405180910390fd5b5f5482111561054a576040517f08c379a000000000000000000000000000000000000000000000000000000000815260040161054190611cc4565b60405180910390fd5b60025f8381526020019081526020015f2060080160019054906101000a900460ff16156105ac576040517f08c379a00000000000000000000000000000000000000000000000000000000081526004016105a390611d2c565b60405180910390fd5b600160025f8481526020019081526020015f2060080160016101000a81548160ff0219169083151502179055504260025f8481526020019081526020015f20600601819055507f67e0ac3e4440bbfda925762e9652b0005af4ae4ea0b33a9f34c5276bbf2455153360405161062191906117a4565b60405180910390a15050565b6003805f01549080600101805461064390611d77565b80601f016020809104026020016040519081016040528092919081815260200182805461066f90611d77565b80156106ba5780601f10610691576101008083540402835291602001916106ba565b820191905f5260205f20905b81548152906001019060200180831161069d57829003601f168201915b5050505050908060020180546106cf90611d77565b80601f01602080910402602001604051908101604052809291908181526020018280546106fb90611d77565b80156107465780601f1061071d57610100808354040283529160200191610746565b820191905f5260205f20905b81548152906001019060200180831161072957829003601f168201915b50505050509080600301805461075b90611d77565b80601f016020809104026020016040519081016040528092919081815260200182805461078790611d77565b80156107d25780601f106107a9576101008083540402835291602001916107d2565b820191905f5260205f20905b8154815290600101906020018083116107b557829003601f168201915b5050505050908060040180546107e790611d77565b80601f016020809104026020016040519081016040528092919081815260200182805461081390611d77565b801561085e5780601f106108355761010080835404028352916020019161085e565b820191905f5260205f20905b81548152906001019060200180831161084157829003601f168201915b505050505090806005015490806006015490806007015490806008015f9054906101000a900460ff16908060080160019054906101000a900460ff1690508a565b6002602052805f5260405f205f91509050805f0154908060010180546108c490611d77565b80601f01602080910402602001604051908101604052809291908181526020018280546108f090611d77565b801561093b5780601f106109125761010080835404028352916020019161093b565b820191905f5260205f20905b81548152906001019060200180831161091e57829003601f168201915b50505050509080600201805461095090611d77565b80601f016020809104026020016040519081016040528092919081815260200182805461097c90611d77565b80156109c75780601f1061099e576101008083540402835291602001916109c7565b820191905f5260205f20905b8154815290600101906020018083116109aa57829003601f168201915b5050505050908060030180546109dc90611d77565b80601f0160208091040260200160405190810160405280929190818152602001828054610a0890611d77565b8015610a535780601f10610a2a57610100808354040283529160200191610a53565b820191905f5260205f20905b815481529060010190602001808311610a3657829003601f168201915b505050505090806004018054610a6890611d77565b80601f0160208091040260200160405190810160405280929190818152602001828054610a9490611d77565b8015610adf5780601f10610ab657610100808354040283529160200191610adf565b820191905f5260205f20905b815481529060010190602001808311610ac257829003601f168201915b505050505090806005015490806006015490806007015490806008015f9054906101000a900460ff16908060080160019054906101000a900460ff1690508a565b60025f8281526020019081526020015f206008015f9054906101000a900460ff16158015610b6c575060025f8281526020019081526020015f2060080160019054906101000a900460ff165b8015610b8b57505f60025f8381526020019081526020015f2060060154145b610bca576040517f08c379a0000000000000000000000000000000000000000000000000000000008152600401610bc190611df1565b60405180910390fd5b7f4accae0510aff42328fdab7223365068b65a22cf36b966795b86a914e577641e604051610bf790611e35565b60405180910390a150565b5f80815480929190610c1390611e79565b91905055506040518061014001604052805f5481526020018581526020018481526020018381526020018281526020014281526020015f81526020015f80191681526020016001151581526020015f151581525060025f805481526020019081526020015f205f820151815f01556020820151816001019081610c96919061205d565b506040820151816002019081610cac919061205d565b506060820151816003019081610cc2919061205d565b506080820151816004019081610cd8919061205d565b5060a0820151816005015560c0820151816006015560e08201518160070155610100820151816008015f6101000a81548160ff0219169083151502179055506101208201518160080160016101000a81548160ff0219169083151502179055509050507f699b4741e93376d2bdd9c5f5a8a0aed91700830694fd4d952f1f41ec3e2c4cb3845f546001604051610d709392919061212c565b60405180910390a150505050565b60015f9054906101000a900473ffffffffffffffffffffffffffffffffffffffff1681565b5f5481565b5f81600160025f8381526020019081526020015f205f01541015610e01576040517f08c379a0000000000000000000000000000000000000000000000000000000008152600401610df890611b09565b60405180910390fd5b6001151560025f8381526020019081526020015f206008015f9054906101000a900460ff16151514610e68576040517f08c379a0000000000000000000000000000000000000000000000000000000008152600401610e5f90611b97565b60405180910390fd5b60025f8481526020019081526020015f2060070154915050919050565b610e8d6112d3565b81600160025f8381526020019081526020015f205f01541015610ee5576040517f08c379a0000000000000000000000000000000000000000000000000000000008152600401610edc90611b09565b60405180910390fd5b60025f8481526020019081526020015f20604051806101400160405290815f8201548152602001600182018054610f1b90611d77565b80601f0160208091040260200160405190810160405280929190818152602001828054610f4790611d77565b8015610f925780601f10610f6957610100808354040283529160200191610f92565b820191905f5260205f20905b815481529060010190602001808311610f7557829003601f168201915b50505050508152602001600282018054610fab90611d77565b80601f0160208091040260200160405190810160405280929190818152602001828054610fd790611d77565b80156110225780601f10610ff957610100808354040283529160200191611022565b820191905f5260205f20905b81548152906001019060200180831161100557829003601f168201915b5050505050815260200160038201805461103b90611d77565b80601f016020809104026020016040519081016040528092919081815260200182805461106790611d77565b80156110b25780601f10611089576101008083540402835291602001916110b2565b820191905f5260205f20905b81548152906001019060200180831161109557829003601f168201915b505050505081526020016004820180546110cb90611d77565b80601f01602080910402602001604051908101604052809291908181526020018280546110f790611d77565b80156111425780601f1061111957610100808354040283529160200191611142565b820191905f5260205f20905b81548152906001019060200180831161112557829003601f168201915b50505050508152602001600582015481526020016006820154815260200160078201548152602001600882015f9054906101000a900460ff161515151581526020016008820160019054906101000a900460ff161515151581525050915050919050565b84600160025f8381526020019081526020015f205f015410156111fe576040517f08c379a00000000000000000000000000000000000000000000000000000000081526004016111f590611b09565b60405180910390fd5b8460025f8881526020019081526020015f20600101908161121f919061205d565b508360025f8881526020019081526020015f206002019081611241919061205d565b508260025f8881526020019081526020015f206003019081611263919061205d565b508160025f8881526020019081526020015f206004019081611285919061205d565b507f699b4741e93376d2bdd9c5f5a8a0aed91700830694fd4d952f1f41ec3e2c4cb3855f5460016040516112bb9392919061212c565b60405180910390a1505050505050565b5f8054905090565b6040518061014001604052805f8152602001606081526020016060815260200160608152602001606081526020015f81526020015f81526020015f80191681526020015f151581526020015f151581525090565b5f604051905090565b5f80fd5b5f80fd5b5f819050919050565b61134a81611338565b8114611354575f80fd5b50565b5f8135905061136581611341565b92915050565b5f819050919050565b61137d8161136b565b8114611387575f80fd5b50565b5f8135905061139881611374565b92915050565b5f80604083850312156113b4576113b3611330565b5b5f6113c185828601611357565b92505060206113d28582860161138a565b9150509250929050565b5f602082840312156113f1576113f0611330565b5b5f6113fe84828501611357565b91505092915050565b61141081611338565b82525050565b5f81519050919050565b5f82825260208201905092915050565b8281835e5f83830152505050565b5f601f19601f8301169050919050565b5f61145882611416565b6114628185611420565b9350611472818560208601611430565b61147b8161143e565b840191505092915050565b61148f8161136b565b82525050565b5f8115159050919050565b6114a981611495565b82525050565b5f610140820190506114c35f83018d611407565b81810360208301526114d5818c61144e565b905081810360408301526114e9818b61144e565b905081810360608301526114fd818a61144e565b90508181036080830152611511818961144e565b905061152060a0830188611407565b61152d60c0830187611407565b61153a60e0830186611486565b6115486101008301856114a0565b6115566101208301846114a0565b9b9a5050505050505050505050565b5f80fd5b5f80fd5b7f4e487b71000000000000000000000000000000000000000000000000000000005f52604160045260245ffd5b6115a38261143e565b810181811067ffffffffffffffff821117156115c2576115c161156d565b5b80604052505050565b5f6115d4611327565b90506115e0828261159a565b919050565b5f67ffffffffffffffff8211156115ff576115fe61156d565b5b6116088261143e565b9050602081019050919050565b828183375f83830152505050565b5f611635611630846115e5565b6115cb565b90508281526020810184848401111561165157611650611569565b5b61165c848285611615565b509392505050565b5f82601f83011261167857611677611565565b5b8135611688848260208601611623565b91505092915050565b5f805f80608085870312156116a9576116a8611330565b5b5f85013567ffffffffffffffff8111156116c6576116c5611334565b5b6116d287828801611664565b945050602085013567ffffffffffffffff8111156116f3576116f2611334565b5b6116ff87828801611664565b935050604085013567ffffffffffffffff8111156117205761171f611334565b5b61172c87828801611664565b925050606085013567ffffffffffffffff81111561174d5761174c611334565b5b61175987828801611664565b91505092959194509250565b5f73ffffffffffffffffffffffffffffffffffffffff82169050919050565b5f61178e82611765565b9050919050565b61179e81611784565b82525050565b5f6020820190506117b75f830184611795565b92915050565b5f6020820190506117d05f830184611407565b92915050565b5f6020820190506117e95f830184611486565b92915050565b6117f881611338565b82525050565b5f82825260208201905092915050565b5f61181882611416565b61182281856117fe565b9350611832818560208601611430565b61183b8161143e565b840191505092915050565b61184f8161136b565b82525050565b61185e81611495565b82525050565b5f61014083015f83015161187a5f8601826117ef565b5060208301518482036020860152611892828261180e565b915050604083015184820360408601526118ac828261180e565b915050606083015184820360608601526118c6828261180e565b915050608083015184820360808601526118e0828261180e565b91505060a08301516118f560a08601826117ef565b5060c083015161190860c08601826117ef565b5060e083015161191b60e0860182611846565b50610100830151611930610100860182611855565b50610120830151611945610120860182611855565b508091505092915050565b5f6020820190508181035f8301526119688184611864565b905092915050565b5f805f805f60a0868803121561198957611988611330565b5b5f61199688828901611357565b955050602086013567ffffffffffffffff8111156119b7576119b6611334565b5b6119c388828901611664565b945050604086013567ffffffffffffffff8111156119e4576119e3611334565b5b6119f088828901611664565b935050606086013567ffffffffffffffff811115611a1157611a10611334565b5b611a1d88828901611664565b925050608086013567ffffffffffffffff811115611a3e57611a3d611334565b5b611a4a88828901611664565b9150509295509295909350565b7f4e6f7420617574686f72697a65642100000000000000000000000000000000005f82015250565b5f611a8b600f83611420565b9150611a9682611a57565b602082019050919050565b5f6020820190508181035f830152611ab881611a7f565b9050919050565b7f56697369746f72204964206e6f7420666f756e640000000000000000000000005f82015250565b5f611af3601483611420565b9150611afe82611abf565b602082019050919050565b5f6020820190508181035f830152611b2081611ae7565b9050919050565b7f546869732076697369746f722068617320616c726561647920636865636b65645f8201527f206f757421000000000000000000000000000000000000000000000000000000602082015250565b5f611b81602583611420565b9150611b8c82611b27565b604082019050919050565b5f6020820190508181035f830152611bae81611b75565b9050919050565b7f5468652076697369746f7220646f6573206e6f742065786973742100000000005f82015250565b5f611be9601b83611420565b9150611bf482611bb5565b602082019050919050565b5f6020820190508181035f830152611c1681611bdd565b9050919050565b50565b5f611c2b5f83611420565b9150611c3682611c1d565b5f82019050919050565b5f6060820190508181035f830152611c5781611c20565b9050611c666020830185611407565b611c7360408301846114a0565b9392505050565b7f5468652076697369746f7220646f6573206e6f742065786973740000000000005f82015250565b5f611cae601a83611420565b9150611cb982611c7a565b602082019050919050565b5f6020820190508181035f830152611cdb81611ca2565b9050919050565b7f596f75206861766520616c726561647920636865636b6564206f7574000000005f82015250565b5f611d16601c83611420565b9150611d2182611ce2565b602082019050919050565b5f6020820190508181035f830152611d4381611d0a565b9050919050565b7f4e487b71000000000000000000000000000000000000000000000000000000005f52602260045260245ffd5b5f6002820490506001821680611d8e57607f821691505b602082108103611da157611da0611d4a565b5b50919050565b7f546869732076697369746f72206973206e6f7420636865636b656420696e21005f82015250565b5f611ddb601f83611420565b9150611de682611da7565b602082019050919050565b5f6020820190508181035f830152611e0881611dcf565b9050919050565b7f636865636b6f7574206661696c65640000000000000000000000000000000000815250565b5f602082019050611e475f8301611e0f565b919050565b7f4e487b71000000000000000000000000000000000000000000000000000000005f52601160045260245ffd5b5f611e8382611338565b91507fffffffffffffffffffffffffffffffffffffffffffffffffffffffffffffffff8203611eb557611eb4611e4c565b5b600182019050919050565b5f819050815f5260205f209050919050565b5f6020601f8301049050919050565b5f82821b905092915050565b5f60088302611f1c7fffffffffffffffffffffffffffffffffffffffffffffffffffffffffffffffff82611ee1565b611f268683611ee1565b95508019841693508086168417925050509392505050565b5f819050919050565b5f611f61611f5c611f5784611338565b611f3e565b611338565b9050919050565b5f819050919050565b611f7a83611f47565b611f8e611f8682611f68565b848454611eed565b825550505050565b5f90565b611fa2611f96565b611fad818484611f71565b505050565b5b81811015611fd057611fc55f82611f9a565b600181019050611fb3565b5050565b601f82111561201557611fe681611ec0565b611fef84611ed2565b81016020851015611ffe578190505b61201261200a85611ed2565b830182611fb2565b50505b505050565b5f82821c905092915050565b5f6120355f198460080261201a565b1980831691505092915050565b5f61204d8383612026565b9150826002028217905092915050565b61206682611416565b67ffffffffffffffff81111561207f5761207e61156d565b5b6120898254611d77565b612094828285611fd4565b5f60209050601f8311600181146120c5575f84156120b3578287015190505b6120bd8582612042565b865550612124565b601f1984166120d386611ec0565b5f5b828110156120fa578489015182556001820191506020850194506020810190506120d5565b868310156121175784890151612113601f891682612026565b8355505b6001600288020188555050505b505050505050565b5f6060820190508181035f830152612144818661144e565b90506121536020830185611407565b61216060408301846114a0565b94935050505056fea26469706673582212205ba68eba7aa5a07ddd1f6e14a7f53aba38cf82ed92090d932f18f125d2b9d9e664736f6c634300081a0033",
					"opcodes": "PUSH1 0x80 PUSH1 0x40 MSTORE CALLVALUE DUP1 ISZERO PUSH1 0xE JUMPI PUSH0 DUP1 REVERT JUMPDEST POP CALLER PUSH1 0x1 PUSH0 PUSH2 0x100 EXP DUP2 SLOAD DUP2 PUSH20 0xFFFFFFFFFFFFFFFFFFFFFFFFFFFFFFFFFFFFFFFF MUL NOT AND SWAP1 DUP4 PUSH20 0xFFFFFFFFFFFFFFFFFFFFFFFFFFFFFFFFFFFFFFFF AND MUL OR SWAP1 SSTORE POP PUSH2 0x219E DUP1 PUSH2 0x5C PUSH0 CODECOPY PUSH0 RETURN INVALID PUSH1 0x80 PUSH1 0x40 MSTORE CALLVALUE DUP1 ISZERO PUSH2 0xF JUMPI PUSH0 DUP1 REVERT JUMPDEST POP PUSH1 0x4 CALLDATASIZE LT PUSH2 0xB2 JUMPI PUSH0 CALLDATALOAD PUSH1 0xE0 SHR DUP1 PUSH4 0x8DA5CB5B GT PUSH2 0x6F JUMPI DUP1 PUSH4 0x8DA5CB5B EQ PUSH2 0x186 JUMPI DUP1 PUSH4 0xA1702AED EQ PUSH2 0x1A4 JUMPI DUP1 PUSH4 0xA5DD4C5E EQ PUSH2 0x1C2 JUMPI DUP1 PUSH4 0xC22F6289 EQ PUSH2 0x1F2 JUMPI DUP1 PUSH4 0xD16208EC EQ PUSH2 0x222 JUMPI DUP1 PUSH4 0xFCFCF440 EQ PUSH2 0x23E JUMPI PUSH2 0xB2 JUMP JUMPDEST DUP1 PUSH4 0x167B548B EQ PUSH2 0xB6 JUMPI DUP1 PUSH4 0x1BD2EEEE EQ PUSH2 0xD2 JUMPI DUP1 PUSH4 0x34E8659F EQ PUSH2 0xEE JUMPI DUP1 PUSH4 0x42B71A36 EQ PUSH2 0x115 JUMPI DUP1 PUSH4 0x46230406 EQ PUSH2 0x14E JUMPI DUP1 PUSH4 0x8A18EF65 EQ PUSH2 0x16A JUMPI JUMPDEST PUSH0 DUP1 REVERT JUMPDEST PUSH2 0xD0 PUSH1 0x4 DUP1 CALLDATASIZE SUB DUP2 ADD SWAP1 PUSH2 0xCB SWAP2 SWAP1 PUSH2 0x139E JUMP JUMPDEST PUSH2 0x25C JUMP JUMPDEST STOP JUMPDEST PUSH2 0xEC PUSH1 0x4 DUP1 CALLDATASIZE SUB DUP2 ADD SWAP1 PUSH2 0xE7 SWAP2 SWAP1 PUSH2 0x13DC JUMP JUMPDEST PUSH2 0x447 JUMP JUMPDEST STOP JUMPDEST PUSH2 0xF6 PUSH2 0x62D JUMP JUMPDEST PUSH1 0x40 MLOAD PUSH2 0x10C SWAP11 SWAP10 SWAP9 SWAP8 SWAP7 SWAP6 SWAP5 SWAP4 SWAP3 SWAP2 SWAP1 PUSH2 0x14AF JUMP JUMPDEST PUSH1 0x40 MLOAD DUP1 SWAP2 SUB SWAP1 RETURN JUMPDEST PUSH2 0x12F PUSH1 0x4 DUP1 CALLDATASIZE SUB DUP2 ADD SWAP1 PUSH2 0x12A SWAP2 SWAP1 PUSH2 0x13DC JUMP JUMPDEST PUSH2 0x89F JUMP JUMPDEST PUSH1 0x40 MLOAD PUSH2 0x145 SWAP11 SWAP10 SWAP9 SWAP8 SWAP7 SWAP6 SWAP5 SWAP4 SWAP3 SWAP2 SWAP1 PUSH2 0x14AF JUMP JUMPDEST PUSH1 0x40 MLOAD DUP1 SWAP2 SUB SWAP1 RETURN JUMPDEST PUSH2 0x168 PUSH1 0x4 DUP1 CALLDATASIZE SUB DUP2 ADD SWAP1 PUSH2 0x163 SWAP2 SWAP1 PUSH2 0x13DC JUMP JUMPDEST PUSH2 0xB20 JUMP JUMPDEST STOP JUMPDEST PUSH2 0x184 PUSH1 0x4 DUP1 CALLDATASIZE SUB DUP2 ADD SWAP1 PUSH2 0x17F SWAP2 SWAP1 PUSH2 0x1691 JUMP JUMPDEST PUSH2 0xC02 JUMP JUMPDEST STOP JUMPDEST PUSH2 0x18E PUSH2 0xD7E JUMP JUMPDEST PUSH1 0x40 MLOAD PUSH2 0x19B SWAP2 SWAP1 PUSH2 0x17A4 JUMP JUMPDEST PUSH1 0x40 MLOAD DUP1 SWAP2 SUB SWAP1 RETURN JUMPDEST PUSH2 0x1AC PUSH2 0xDA3 JUMP JUMPDEST PUSH1 0x40 MLOAD PUSH2 0x1B9 SWAP2 SWAP1 PUSH2 0x17BD JUMP JUMPDEST PUSH1 0x40 MLOAD DUP1 SWAP2 SUB SWAP1 RETURN JUMPDEST PUSH2 0x1DC PUSH1 0x4 DUP1 CALLDATASIZE SUB DUP2 ADD SWAP1 PUSH2 0x1D7 SWAP2 SWAP1 PUSH2 0x13DC JUMP JUMPDEST PUSH2 0xDA8 JUMP JUMPDEST PUSH1 0x40 MLOAD PUSH2 0x1E9 SWAP2 SWAP1 PUSH2 0x17D6 JUMP JUMPDEST PUSH1 0x40 MLOAD DUP1 SWAP2 SUB SWAP1 RETURN JUMPDEST PUSH2 0x20C PUSH1 0x4 DUP1 CALLDATASIZE SUB DUP2 ADD SWAP1 PUSH2 0x207 SWAP2 SWAP1 PUSH2 0x13DC JUMP JUMPDEST PUSH2 0xE85 JUMP JUMPDEST PUSH1 0x40 MLOAD PUSH2 0x219 SWAP2 SWAP1 PUSH2 0x1950 JUMP JUMPDEST PUSH1 0x40 MLOAD DUP1 SWAP2 SUB SWAP1 RETURN JUMPDEST PUSH2 0x23C PUSH1 0x4 DUP1 CALLDATASIZE SUB DUP2 ADD SWAP1 PUSH2 0x237 SWAP2 SWAP1 PUSH2 0x1970 JUMP JUMPDEST PUSH2 0x11A6 JUMP JUMPDEST STOP JUMPDEST PUSH2 0x246 PUSH2 0x12CB JUMP JUMPDEST PUSH1 0x40 MLOAD PUSH2 0x253 SWAP2 SWAP1 PUSH2 0x17BD JUMP JUMPDEST PUSH1 0x40 MLOAD DUP1 SWAP2 SUB SWAP1 RETURN JUMPDEST PUSH1 0x1 PUSH0 SWAP1 SLOAD SWAP1 PUSH2 0x100 EXP SWAP1 DIV PUSH20 0xFFFFFFFFFFFFFFFFFFFFFFFFFFFFFFFFFFFFFFFF AND PUSH20 0xFFFFFFFFFFFFFFFFFFFFFFFFFFFFFFFFFFFFFFFF AND CALLER PUSH20 0xFFFFFFFFFFFFFFFFFFFFFFFFFFFFFFFFFFFFFFFF AND EQ PUSH2 0x2EB JUMPI PUSH1 0x40 MLOAD PUSH32 0x8C379A000000000000000000000000000000000000000000000000000000000 DUP2 MSTORE PUSH1 0x4 ADD PUSH2 0x2E2 SWAP1 PUSH2 0x1AA1 JUMP JUMPDEST PUSH1 0x40 MLOAD DUP1 SWAP2 SUB SWAP1 REVERT JUMPDEST DUP2 PUSH1 0x1 PUSH1 0x2 PUSH0 DUP4 DUP2 MSTORE PUSH1 0x20 ADD SWAP1 DUP2 MSTORE PUSH1 0x20 ADD PUSH0 KECCAK256 PUSH0 ADD SLOAD LT ISZERO PUSH2 0x343 JUMPI PUSH1 0x40 MLOAD PUSH32 0x8C379A000000000000000000000000000000000000000000000000000000000 DUP2 MSTORE PUSH1 0x4 ADD PUSH2 0x33A SWAP1 PUSH2 0x1B09 JUMP JUMPDEST PUSH1 0x40 MLOAD DUP1 SWAP2 SUB SWAP1 REVERT JUMPDEST PUSH1 0x1 ISZERO ISZERO PUSH1 0x2 PUSH0 DUP4 DUP2 MSTORE PUSH1 0x20 ADD SWAP1 DUP2 MSTORE PUSH1 0x20 ADD PUSH0 KECCAK256 PUSH1 0x8 ADD PUSH0 SWAP1 SLOAD SWAP1 PUSH2 0x100 EXP SWAP1 DIV PUSH1 0xFF AND ISZERO ISZERO EQ PUSH2 0x3AA JUMPI PUSH1 0x40 MLOAD PUSH32 0x8C379A000000000000000000000000000000000000000000000000000000000 DUP2 MSTORE PUSH1 0x4 ADD PUSH2 0x3A1 SWAP1 PUSH2 0x1B97 JUMP JUMPDEST PUSH1 0x40 MLOAD DUP1 SWAP2 SUB SWAP1 REVERT JUMPDEST PUSH0 SLOAD DUP4 GT ISZERO PUSH2 0x3EE JUMPI PUSH1 0x40 MLOAD PUSH32 0x8C379A000000000000000000000000000000000000000000000000000000000 DUP2 MSTORE PUSH1 0x4 ADD PUSH2 0x3E5 SWAP1 PUSH2 0x1BFF JUMP JUMPDEST PUSH1 0x40 MLOAD DUP1 SWAP2 SUB SWAP1 REVERT JUMPDEST DUP2 PUSH1 0x2 PUSH0 DUP6 DUP2 MSTORE PUSH1 0x20 ADD SWAP1 DUP2 MSTORE PUSH1 0x20 ADD PUSH0 KECCAK256 PUSH1 0x7 ADD DUP2 SWAP1 SSTORE POP PUSH32 0x699B4741E93376D2BDD9C5F5A8A0AED91700830694FD4D952F1F41EC3E2C4CB3 PUSH0 SLOAD PUSH1 0x1 PUSH1 0x40 MLOAD PUSH2 0x43A SWAP3 SWAP2 SWAP1 PUSH2 0x1C40 JUMP JUMPDEST PUSH1 0x40 MLOAD DUP1 SWAP2 SUB SWAP1 LOG1 POP POP POP JUMP JUMPDEST DUP1 PUSH1 0x1 PUSH1 0x2 PUSH0 DUP4 DUP2 MSTORE PUSH1 0x20 ADD SWAP1 DUP2 MSTORE PUSH1 0x20 ADD PUSH0 KECCAK256 PUSH0 ADD SLOAD LT ISZERO PUSH2 0x49F JUMPI PUSH1 0x40 MLOAD PUSH32 0x8C379A000000000000000000000000000000000000000000000000000000000 DUP2 MSTORE PUSH1 0x4 ADD PUSH2 0x496 SWAP1 PUSH2 0x1B09 JUMP JUMPDEST PUSH1 0x40 MLOAD DUP1 SWAP2 SUB SWAP1 REVERT JUMPDEST PUSH1 0x1 ISZERO ISZERO PUSH1 0x2 PUSH0 DUP4 DUP2 MSTORE PUSH1 0x20 ADD SWAP1 DUP2 MSTORE PUSH1 0x20 ADD PUSH0 KECCAK256 PUSH1 0x8 ADD PUSH0 SWAP1 SLOAD SWAP1 PUSH2 0x100 EXP SWAP1 DIV PUSH1 0xFF AND ISZERO ISZERO EQ PUSH2 0x506 JUMPI PUSH1 0x40 MLOAD PUSH32 0x8C379A000000000000000000000000000000000000000000000000000000000 DUP2 MSTORE PUSH1 0x4 ADD PUSH2 0x4FD SWAP1 PUSH2 0x1B97 JUMP JUMPDEST PUSH1 0x40 MLOAD DUP1 SWAP2 SUB SWAP1 REVERT JUMPDEST PUSH0 SLOAD DUP3 GT ISZERO PUSH2 0x54A JUMPI PUSH1 0x40 MLOAD PUSH32 0x8C379A000000000000000000000000000000000000000000000000000000000 DUP2 MSTORE PUSH1 0x4 ADD PUSH2 0x541 SWAP1 PUSH2 0x1CC4 JUMP JUMPDEST PUSH1 0x40 MLOAD DUP1 SWAP2 SUB SWAP1 REVERT JUMPDEST PUSH1 0x2 PUSH0 DUP4 DUP2 MSTORE PUSH1 0x20 ADD SWAP1 DUP2 MSTORE PUSH1 0x20 ADD PUSH0 KECCAK256 PUSH1 0x8 ADD PUSH1 0x1 SWAP1 SLOAD SWAP1 PUSH2 0x100 EXP SWAP1 DIV PUSH1 0xFF AND ISZERO PUSH2 0x5AC JUMPI PUSH1 0x40 MLOAD PUSH32 0x8C379A000000000000000000000000000000000000000000000000000000000 DUP2 MSTORE PUSH1 0x4 ADD PUSH2 0x5A3 SWAP1 PUSH2 0x1D2C JUMP JUMPDEST PUSH1 0x40 MLOAD DUP1 SWAP2 SUB SWAP1 REVERT JUMPDEST PUSH1 0x1 PUSH1 0x2 PUSH0 DUP5 DUP2 MSTORE PUSH1 0x20 ADD SWAP1 DUP2 MSTORE PUSH1 0x20 ADD PUSH0 KECCAK256 PUSH1 0x8 ADD PUSH1 0x1 PUSH2 0x100 EXP DUP2 SLOAD DUP2 PUSH1 0xFF MUL NOT AND SWAP1 DUP4 ISZERO ISZERO MUL OR SWAP1 SSTORE POP TIMESTAMP PUSH1 0x2 PUSH0 DUP5 DUP2 MSTORE PUSH1 0x20 ADD SWAP1 DUP2 MSTORE PUSH1 0x20 ADD PUSH0 KECCAK256 PUSH1 0x6 ADD DUP2 SWAP1 SSTORE POP PUSH32 0x67E0AC3E4440BBFDA925762E9652B0005AF4AE4EA0B33A9F34C5276BBF245515 CALLER PUSH1 0x40 MLOAD PUSH2 0x621 SWAP2 SWAP1 PUSH2 0x17A4 JUMP JUMPDEST PUSH1 0x40 MLOAD DUP1 SWAP2 SUB SWAP1 LOG1 POP POP JUMP JUMPDEST PUSH1 0x3 DUP1 PUSH0 ADD SLOAD SWAP1 DUP1 PUSH1 0x1 ADD DUP1 SLOAD PUSH2 0x643 SWAP1 PUSH2 0x1D77 JUMP JUMPDEST DUP1 PUSH1 0x1F ADD PUSH1 0x20 DUP1 SWAP2 DIV MUL PUSH1 0x20 ADD PUSH1 0x40 MLOAD SWAP1 DUP2 ADD PUSH1 0x40 MSTORE DUP1 SWAP3 SWAP2 SWAP1 DUP2 DUP2 MSTORE PUSH1 0x20 ADD DUP3 DUP1 SLOAD PUSH2 0x66F SWAP1 PUSH2 0x1D77 JUMP JUMPDEST DUP1 ISZERO PUSH2 0x6BA JUMPI DUP1 PUSH1 0x1F LT PUSH2 0x691 JUMPI PUSH2 0x100 DUP1 DUP4 SLOAD DIV MUL DUP4 MSTORE SWAP2 PUSH1 0x20 ADD SWAP2 PUSH2 0x6BA JUMP JUMPDEST DUP3 ADD SWAP2 SWAP1 PUSH0 MSTORE PUSH1 0x20 PUSH0 KECCAK256 SWAP1 JUMPDEST DUP2 SLOAD DUP2 MSTORE SWAP1 PUSH1 0x1 ADD SWAP1 PUSH1 0x20 ADD DUP1 DUP4 GT PUSH2 0x69D JUMPI DUP3 SWAP1 SUB PUSH1 0x1F AND DUP3 ADD SWAP2 JUMPDEST POP POP POP POP POP SWAP1 DUP1 PUSH1 0x2 ADD DUP1 SLOAD PUSH2 0x6CF SWAP1 PUSH2 0x1D77 JUMP JUMPDEST DUP1 PUSH1 0x1F ADD PUSH1 0x20 DUP1 SWAP2 DIV MUL PUSH1 0x20 ADD PUSH1 0x40 MLOAD SWAP1 DUP2 ADD PUSH1 0x40 MSTORE DUP1 SWAP3 SWAP2 SWAP1 DUP2 DUP2 MSTORE PUSH1 0x20 ADD DUP3 DUP1 SLOAD PUSH2 0x6FB SWAP1 PUSH2 0x1D77 JUMP JUMPDEST DUP1 ISZERO PUSH2 0x746 JUMPI DUP1 PUSH1 0x1F LT PUSH2 0x71D JUMPI PUSH2 0x100 DUP1 DUP4 SLOAD DIV MUL DUP4 MSTORE SWAP2 PUSH1 0x20 ADD SWAP2 PUSH2 0x746 JUMP JUMPDEST DUP3 ADD SWAP2 SWAP1 PUSH0 MSTORE PUSH1 0x20 PUSH0 KECCAK256 SWAP1 JUMPDEST DUP2 SLOAD DUP2 MSTORE SWAP1 PUSH1 0x1 ADD SWAP1 PUSH1 0x20 ADD DUP1 DUP4 GT PUSH2 0x729 JUMPI DUP3 SWAP1 SUB PUSH1 0x1F AND DUP3 ADD SWAP2 JUMPDEST POP POP POP POP POP SWAP1 DUP1 PUSH1 0x3 ADD DUP1 SLOAD PUSH2 0x75B SWAP1 PUSH2 0x1D77 JUMP JUMPDEST DUP1 PUSH1 0x1F ADD PUSH1 0x20 DUP1 SWAP2 DIV MUL PUSH1 0x20 ADD PUSH1 0x40 MLOAD SWAP1 DUP2 ADD PUSH1 0x40 MSTORE DUP1 SWAP3 SWAP2 SWAP1 DUP2 DUP2 MSTORE PUSH1 0x20 ADD DUP3 DUP1 SLOAD PUSH2 0x787 SWAP1 PUSH2 0x1D77 JUMP JUMPDEST DUP1 ISZERO PUSH2 0x7D2 JUMPI DUP1 PUSH1 0x1F LT PUSH2 0x7A9 JUMPI PUSH2 0x100 DUP1 DUP4 SLOAD DIV MUL DUP4 MSTORE SWAP2 PUSH1 0x20 ADD SWAP2 PUSH2 0x7D2 JUMP JUMPDEST DUP3 ADD SWAP2 SWAP1 PUSH0 MSTORE PUSH1 0x20 PUSH0 KECCAK256 SWAP1 JUMPDEST DUP2 SLOAD DUP2 MSTORE SWAP1 PUSH1 0x1 ADD SWAP1 PUSH1 0x20 ADD DUP1 DUP4 GT PUSH2 0x7B5 JUMPI DUP3 SWAP1 SUB PUSH1 0x1F AND DUP3 ADD SWAP2 JUMPDEST POP POP POP POP POP SWAP1 DUP1 PUSH1 0x4 ADD DUP1 SLOAD PUSH2 0x7E7 SWAP1 PUSH2 0x1D77 JUMP JUMPDEST DUP1 PUSH1 0x1F ADD PUSH1 0x20 DUP1 SWAP2 DIV MUL PUSH1 0x20 ADD PUSH1 0x40 MLOAD SWAP1 DUP2 ADD PUSH1 0x40 MSTORE DUP1 SWAP3 SWAP2 SWAP1 DUP2 DUP2 MSTORE PUSH1 0x20 ADD DUP3 DUP1 SLOAD PUSH2 0x813 SWAP1 PUSH2 0x1D77 JUMP JUMPDEST DUP1 ISZERO PUSH2 0x85E JUMPI DUP1 PUSH1 0x1F LT PUSH2 0x835 JUMPI PUSH2 0x100 DUP1 DUP4 SLOAD DIV MUL DUP4 MSTORE SWAP2 PUSH1 0x20 ADD SWAP2 PUSH2 0x85E JUMP JUMPDEST DUP3 ADD SWAP2 SWAP1 PUSH0 MSTORE PUSH1 0x20 PUSH0 KECCAK256 SWAP1 JUMPDEST DUP2 SLOAD DUP2 MSTORE SWAP1 PUSH1 0x1 ADD SWAP1 PUSH1 0x20 ADD DUP1 DUP4 GT PUSH2 0x841 JUMPI DUP3 SWAP1 SUB PUSH1 0x1F AND DUP3 ADD SWAP2 JUMPDEST POP POP POP POP POP SWAP1 DUP1 PUSH1 0x5 ADD SLOAD SWAP1 DUP1 PUSH1 0x6 ADD SLOAD SWAP1 DUP1 PUSH1 0x7 ADD SLOAD SWAP1 DUP1 PUSH1 0x8 ADD PUSH0 SWAP1 SLOAD SWAP1 PUSH2 0x100 EXP SWAP1 DIV PUSH1 0xFF AND SWAP1 DUP1 PUSH1 0x8 ADD PUSH1 0x1 SWAP1 SLOAD SWAP1 PUSH2 0x100 EXP SWAP1 DIV PUSH1 0xFF AND SWAP1 POP DUP11 JUMP JUMPDEST PUSH1 0x2 PUSH1 0x20 MSTORE DUP1 PUSH0 MSTORE PUSH1 0x40 PUSH0 KECCAK256 PUSH0 SWAP2 POP SWAP1 POP DUP1 PUSH0 ADD SLOAD SWAP1 DUP1 PUSH1 0x1 ADD DUP1 SLOAD PUSH2 0x8C4 SWAP1 PUSH2 0x1D77 JUMP JUMPDEST DUP1 PUSH1 0x1F ADD PUSH1 0x20 DUP1 SWAP2 DIV MUL PUSH1 0x20 ADD PUSH1 0x40 MLOAD SWAP1 DUP2 ADD PUSH1 0x40 MSTORE DUP1 SWAP3 SWAP2 SWAP1 DUP2 DUP2 MSTORE PUSH1 0x20 ADD DUP3 DUP1 SLOAD PUSH2 0x8F0 SWAP1 PUSH2 0x1D77 JUMP JUMPDEST DUP1 ISZERO PUSH2 0x93B JUMPI DUP1 PUSH1 0x1F LT PUSH2 0x912 JUMPI PUSH2 0x100 DUP1 DUP4 SLOAD DIV MUL DUP4 MSTORE SWAP2 PUSH1 0x20 ADD SWAP2 PUSH2 0x93B JUMP JUMPDEST DUP3 ADD SWAP2 SWAP1 PUSH0 MSTORE PUSH1 0x20 PUSH0 KECCAK256 SWAP1 JUMPDEST DUP2 SLOAD DUP2 MSTORE SWAP1 PUSH1 0x1 ADD SWAP1 PUSH1 0x20 ADD DUP1 DUP4 GT PUSH2 0x91E JUMPI DUP3 SWAP1 SUB PUSH1 0x1F AND DUP3 ADD SWAP2 JUMPDEST POP POP POP POP POP SWAP1 DUP1 PUSH1 0x2 ADD DUP1 SLOAD PUSH2 0x950 SWAP1 PUSH2 0x1D77 JUMP JUMPDEST DUP1 PUSH1 0x1F ADD PUSH1 0x20 DUP1 SWAP2 DIV MUL PUSH1 0x20 ADD PUSH1 0x40 MLOAD SWAP1 DUP2 ADD PUSH1 0x40 MSTORE DUP1 SWAP3 SWAP2 SWAP1 DUP2 DUP2 MSTORE PUSH1 0x20 ADD DUP3 DUP1 SLOAD PUSH2 0x97C SWAP1 PUSH2 0x1D77 JUMP JUMPDEST DUP1 ISZERO PUSH2 0x9C7 JUMPI DUP1 PUSH1 0x1F LT PUSH2 0x99E JUMPI PUSH2 0x100 DUP1 DUP4 SLOAD DIV MUL DUP4 MSTORE SWAP2 PUSH1 0x20 ADD SWAP2 PUSH2 0x9C7 JUMP JUMPDEST DUP3 ADD SWAP2 SWAP1 PUSH0 MSTORE PUSH1 0x20 PUSH0 KECCAK256 SWAP1 JUMPDEST DUP2 SLOAD DUP2 MSTORE SWAP1 PUSH1 0x1 ADD SWAP1 PUSH1 0x20 ADD DUP1 DUP4 GT PUSH2 0x9AA JUMPI DUP3 SWAP1 SUB PUSH1 0x1F AND DUP3 ADD SWAP2 JUMPDEST POP POP POP POP POP SWAP1 DUP1 PUSH1 0x3 ADD DUP1 SLOAD PUSH2 0x9DC SWAP1 PUSH2 0x1D77 JUMP JUMPDEST DUP1 PUSH1 0x1F ADD PUSH1 0x20 DUP1 SWAP2 DIV MUL PUSH1 0x20 ADD PUSH1 0x40 MLOAD SWAP1 DUP2 ADD PUSH1 0x40 MSTORE DUP1 SWAP3 SWAP2 SWAP1 DUP2 DUP2 MSTORE PUSH1 0x20 ADD DUP3 DUP1 SLOAD PUSH2 0xA08 SWAP1 PUSH2 0x1D77 JUMP JUMPDEST DUP1 ISZERO PUSH2 0xA53 JUMPI DUP1 PUSH1 0x1F LT PUSH2 0xA2A JUMPI PUSH2 0x100 DUP1 DUP4 SLOAD DIV MUL DUP4 MSTORE SWAP2 PUSH1 0x20 ADD SWAP2 PUSH2 0xA53 JUMP JUMPDEST DUP3 ADD SWAP2 SWAP1 PUSH0 MSTORE PUSH1 0x20 PUSH0 KECCAK256 SWAP1 JUMPDEST DUP2 SLOAD DUP2 MSTORE SWAP1 PUSH1 0x1 ADD SWAP1 PUSH1 0x20 ADD DUP1 DUP4 GT PUSH2 0xA36 JUMPI DUP3 SWAP1 SUB PUSH1 0x1F AND DUP3 ADD SWAP2 JUMPDEST POP POP POP POP POP SWAP1 DUP1 PUSH1 0x4 ADD DUP1 SLOAD PUSH2 0xA68 SWAP1 PUSH2 0x1D77 JUMP JUMPDEST DUP1 PUSH1 0x1F ADD PUSH1 0x20 DUP1 SWAP2 DIV MUL PUSH1 0x20 ADD PUSH1 0x40 MLOAD SWAP1 DUP2 ADD PUSH1 0x40 MSTORE DUP1 SWAP3 SWAP2 SWAP1 DUP2 DUP2 MSTORE PUSH1 0x20 ADD DUP3 DUP1 SLOAD PUSH2 0xA94 SWAP1 PUSH2 0x1D77 JUMP JUMPDEST DUP1 ISZERO PUSH2 0xADF JUMPI DUP1 PUSH1 0x1F LT PUSH2 0xAB6 JUMPI PUSH2 0x100 DUP1 DUP4 SLOAD DIV MUL DUP4 MSTORE SWAP2 PUSH1 0x20 ADD SWAP2 PUSH2 0xADF JUMP JUMPDEST DUP3 ADD SWAP2 SWAP1 PUSH0 MSTORE PUSH1 0x20 PUSH0 KECCAK256 SWAP1 JUMPDEST DUP2 SLOAD DUP2 MSTORE SWAP1 PUSH1 0x1 ADD SWAP1 PUSH1 0x20 ADD DUP1 DUP4 GT PUSH2 0xAC2 JUMPI DUP3 SWAP1 SUB PUSH1 0x1F AND DUP3 ADD SWAP2 JUMPDEST POP POP POP POP POP SWAP1 DUP1 PUSH1 0x5 ADD SLOAD SWAP1 DUP1 PUSH1 0x6 ADD SLOAD SWAP1 DUP1 PUSH1 0x7 ADD SLOAD SWAP1 DUP1 PUSH1 0x8 ADD PUSH0 SWAP1 SLOAD SWAP1 PUSH2 0x100 EXP SWAP1 DIV PUSH1 0xFF AND SWAP1 DUP1 PUSH1 0x8 ADD PUSH1 0x1 SWAP1 SLOAD SWAP1 PUSH2 0x100 EXP SWAP1 DIV PUSH1 0xFF AND SWAP1 POP DUP11 JUMP JUMPDEST PUSH1 0x2 PUSH0 DUP3 DUP2 MSTORE PUSH1 0x20 ADD SWAP1 DUP2 MSTORE PUSH1 0x20 ADD PUSH0 KECCAK256 PUSH1 0x8 ADD PUSH0 SWAP1 SLOAD SWAP1 PUSH2 0x100 EXP SWAP1 DIV PUSH1 0xFF AND ISZERO DUP1 ISZERO PUSH2 0xB6C JUMPI POP PUSH1 0x2 PUSH0 DUP3 DUP2 MSTORE PUSH1 0x20 ADD SWAP1 DUP2 MSTORE PUSH1 0x20 ADD PUSH0 KECCAK256 PUSH1 0x8 ADD PUSH1 0x1 SWAP1 SLOAD SWAP1 PUSH2 0x100 EXP SWAP1 DIV PUSH1 0xFF AND JUMPDEST DUP1 ISZERO PUSH2 0xB8B JUMPI POP PUSH0 PUSH1 0x2 PUSH0 DUP4 DUP2 MSTORE PUSH1 0x20 ADD SWAP1 DUP2 MSTORE PUSH1 0x20 ADD PUSH0 KECCAK256 PUSH1 0x6 ADD SLOAD EQ JUMPDEST PUSH2 0xBCA JUMPI PUSH1 0x40 MLOAD PUSH32 0x8C379A000000000000000000000000000000000000000000000000000000000 DUP2 MSTORE PUSH1 0x4 ADD PUSH2 0xBC1 SWAP1 PUSH2 0x1DF1 JUMP JUMPDEST PUSH1 0x40 MLOAD DUP1 SWAP2 SUB SWAP1 REVERT JUMPDEST PUSH32 0x4ACCAE0510AFF42328FDAB7223365068B65A22CF36B966795B86A914E577641E PUSH1 0x40 MLOAD PUSH2 0xBF7 SWAP1 PUSH2 0x1E35 JUMP JUMPDEST PUSH1 0x40 MLOAD DUP1 SWAP2 SUB SWAP1 LOG1 POP JUMP JUMPDEST PUSH0 DUP1 DUP2 SLOAD DUP1 SWAP3 SWAP2 SWAP1 PUSH2 0xC13 SWAP1 PUSH2 0x1E79 JUMP JUMPDEST SWAP2 SWAP1 POP SSTORE POP PUSH1 0x40 MLOAD DUP1 PUSH2 0x140 ADD PUSH1 0x40 MSTORE DUP1 PUSH0 SLOAD DUP2 MSTORE PUSH1 0x20 ADD DUP6 DUP2 MSTORE PUSH1 0x20 ADD DUP5 DUP2 MSTORE PUSH1 0x20 ADD DUP4 DUP2 MSTORE PUSH1 0x20 ADD DUP3 DUP2 MSTORE PUSH1 0x20 ADD TIMESTAMP DUP2 MSTORE PUSH1 0x20 ADD PUSH0 DUP2 MSTORE PUSH1 0x20 ADD PUSH0 DUP1 NOT AND DUP2 MSTORE PUSH1 0x20 ADD PUSH1 0x1 ISZERO ISZERO DUP2 MSTORE PUSH1 0x20 ADD PUSH0 ISZERO ISZERO DUP2 MSTORE POP PUSH1 0x2 PUSH0 DUP1 SLOAD DUP2 MSTORE PUSH1 0x20 ADD SWAP1 DUP2 MSTORE PUSH1 0x20 ADD PUSH0 KECCAK256 PUSH0 DUP3 ADD MLOAD DUP2 PUSH0 ADD SSTORE PUSH1 0x20 DUP3 ADD MLOAD DUP2 PUSH1 0x1 ADD SWAP1 DUP2 PUSH2 0xC96 SWAP2 SWAP1 PUSH2 0x205D JUMP JUMPDEST POP PUSH1 0x40 DUP3 ADD MLOAD DUP2 PUSH1 0x2 ADD SWAP1 DUP2 PUSH2 0xCAC SWAP2 SWAP1 PUSH2 0x205D JUMP JUMPDEST POP PUSH1 0x60 DUP3 ADD MLOAD DUP2 PUSH1 0x3 ADD SWAP1 DUP2 PUSH2 0xCC2 SWAP2 SWAP1 PUSH2 0x205D JUMP JUMPDEST POP PUSH1 0x80 DUP3 ADD MLOAD DUP2 PUSH1 0x4 ADD SWAP1 DUP2 PUSH2 0xCD8 SWAP2 SWAP1 PUSH2 0x205D JUMP JUMPDEST POP PUSH1 0xA0 DUP3 ADD MLOAD DUP2 PUSH1 0x5 ADD SSTORE PUSH1 0xC0 DUP3 ADD MLOAD DUP2 PUSH1 0x6 ADD SSTORE PUSH1 0xE0 DUP3 ADD MLOAD DUP2 PUSH1 0x7 ADD SSTORE PUSH2 0x100 DUP3 ADD MLOAD DUP2 PUSH1 0x8 ADD PUSH0 PUSH2 0x100 EXP DUP2 SLOAD DUP2 PUSH1 0xFF MUL NOT AND SWAP1 DUP4 ISZERO ISZERO MUL OR SWAP1 SSTORE POP PUSH2 0x120 DUP3 ADD MLOAD DUP2 PUSH1 0x8 ADD PUSH1 0x1 PUSH2 0x100 EXP DUP2 SLOAD DUP2 PUSH1 0xFF MUL NOT AND SWAP1 DUP4 ISZERO ISZERO MUL OR SWAP1 SSTORE POP SWAP1 POP POP PUSH32 0x699B4741E93376D2BDD9C5F5A8A0AED91700830694FD4D952F1F41EC3E2C4CB3 DUP5 PUSH0 SLOAD PUSH1 0x1 PUSH1 0x40 MLOAD PUSH2 0xD70 SWAP4 SWAP3 SWAP2 SWAP1 PUSH2 0x212C JUMP JUMPDEST PUSH1 0x40 MLOAD DUP1 SWAP2 SUB SWAP1 LOG1 POP POP POP POP JUMP JUMPDEST PUSH1 0x1 PUSH0 SWAP1 SLOAD SWAP1 PUSH2 0x100 EXP SWAP1 DIV PUSH20 0xFFFFFFFFFFFFFFFFFFFFFFFFFFFFFFFFFFFFFFFF AND DUP2 JUMP JUMPDEST PUSH0 SLOAD DUP2 JUMP JUMPDEST PUSH0 DUP2 PUSH1 0x1 PUSH1 0x2 PUSH0 DUP4 DUP2 MSTORE PUSH1 0x20 ADD SWAP1 DUP2 MSTORE PUSH1 0x20 ADD PUSH0 KECCAK256 PUSH0 ADD SLOAD LT ISZERO PUSH2 0xE01 JUMPI PUSH1 0x40 MLOAD PUSH32 0x8C379A000000000000000000000000000000000000000000000000000000000 DUP2 MSTORE PUSH1 0x4 ADD PUSH2 0xDF8 SWAP1 PUSH2 0x1B09 JUMP JUMPDEST PUSH1 0x40 MLOAD DUP1 SWAP2 SUB SWAP1 REVERT JUMPDEST PUSH1 0x1 ISZERO ISZERO PUSH1 0x2 PUSH0 DUP4 DUP2 MSTORE PUSH1 0x20 ADD SWAP1 DUP2 MSTORE PUSH1 0x20 ADD PUSH0 KECCAK256 PUSH1 0x8 ADD PUSH0 SWAP1 SLOAD SWAP1 PUSH2 0x100 EXP SWAP1 DIV PUSH1 0xFF AND ISZERO ISZERO EQ PUSH2 0xE68 JUMPI PUSH1 0x40 MLOAD PUSH32 0x8C379A000000000000000000000000000000000000000000000000000000000 DUP2 MSTORE PUSH1 0x4 ADD PUSH2 0xE5F SWAP1 PUSH2 0x1B97 JUMP JUMPDEST PUSH1 0x40 MLOAD DUP1 SWAP2 SUB SWAP1 REVERT JUMPDEST PUSH1 0x2 PUSH0 DUP5 DUP2 MSTORE PUSH1 0x20 ADD SWAP1 DUP2 MSTORE PUSH1 0x20 ADD PUSH0 KECCAK256 PUSH1 0x7 ADD SLOAD SWAP2 POP POP SWAP2 SWAP1 POP JUMP JUMPDEST PUSH2 0xE8D PUSH2 0x12D3 JUMP JUMPDEST DUP2 PUSH1 0x1 PUSH1 0x2 PUSH0 DUP4 DUP2 MSTORE PUSH1 0x20 ADD SWAP1 DUP2 MSTORE PUSH1 0x20 ADD PUSH0 KECCAK256 PUSH0 ADD SLOAD LT ISZERO PUSH2 0xEE5 JUMPI PUSH1 0x40 MLOAD PUSH32 0x8C379A000000000000000000000000000000000000000000000000000000000 DUP2 MSTORE PUSH1 0x4 ADD PUSH2 0xEDC SWAP1 PUSH2 0x1B09 JUMP JUMPDEST PUSH1 0x40 MLOAD DUP1 SWAP2 SUB SWAP1 REVERT JUMPDEST PUSH1 0x2 PUSH0 DUP5 DUP2 MSTORE PUSH1 0x20 ADD SWAP1 DUP2 MSTORE PUSH1 0x20 ADD PUSH0 KECCAK256 PUSH1 0x40 MLOAD DUP1 PUSH2 0x140 ADD PUSH1 0x40 MSTORE SWAP1 DUP2 PUSH0 DUP3 ADD SLOAD DUP2 MSTORE PUSH1 0x20 ADD PUSH1 0x1 DUP3 ADD DUP1 SLOAD PUSH2 0xF1B SWAP1 PUSH2 0x1D77 JUMP JUMPDEST DUP1 PUSH1 0x1F ADD PUSH1 0x20 DUP1 SWAP2 DIV MUL PUSH1 0x20 ADD PUSH1 0x40 MLOAD SWAP1 DUP2 ADD PUSH1 0x40 MSTORE DUP1 SWAP3 SWAP2 SWAP1 DUP2 DUP2 MSTORE PUSH1 0x20 ADD DUP3 DUP1 SLOAD PUSH2 0xF47 SWAP1 PUSH2 0x1D77 JUMP JUMPDEST DUP1 ISZERO PUSH2 0xF92 JUMPI DUP1 PUSH1 0x1F LT PUSH2 0xF69 JUMPI PUSH2 0x100 DUP1 DUP4 SLOAD DIV MUL DUP4 MSTORE SWAP2 PUSH1 0x20 ADD SWAP2 PUSH2 0xF92 JUMP JUMPDEST DUP3 ADD SWAP2 SWAP1 PUSH0 MSTORE PUSH1 0x20 PUSH0 KECCAK256 SWAP1 JUMPDEST DUP2 SLOAD DUP2 MSTORE SWAP1 PUSH1 0x1 ADD SWAP1 PUSH1 0x20 ADD DUP1 DUP4 GT PUSH2 0xF75 JUMPI DUP3 SWAP1 SUB PUSH1 0x1F AND DUP3 ADD SWAP2 JUMPDEST POP POP POP POP POP DUP2 MSTORE PUSH1 0x20 ADD PUSH1 0x2 DUP3 ADD DUP1 SLOAD PUSH2 0xFAB SWAP1 PUSH2 0x1D77 JUMP JUMPDEST DUP1 PUSH1 0x1F ADD PUSH1 0x20 DUP1 SWAP2 DIV MUL PUSH1 0x20 ADD PUSH1 0x40 MLOAD SWAP1 DUP2 ADD PUSH1 0x40 MSTORE DUP1 SWAP3 SWAP2 SWAP1 DUP2 DUP2 MSTORE PUSH1 0x20 ADD DUP3 DUP1 SLOAD PUSH2 0xFD7 SWAP1 PUSH2 0x1D77 JUMP JUMPDEST DUP1 ISZERO PUSH2 0x1022 JUMPI DUP1 PUSH1 0x1F LT PUSH2 0xFF9 JUMPI PUSH2 0x100 DUP1 DUP4 SLOAD DIV MUL DUP4 MSTORE SWAP2 PUSH1 0x20 ADD SWAP2 PUSH2 0x1022 JUMP JUMPDEST DUP3 ADD SWAP2 SWAP1 PUSH0 MSTORE PUSH1 0x20 PUSH0 KECCAK256 SWAP1 JUMPDEST DUP2 SLOAD DUP2 MSTORE SWAP1 PUSH1 0x1 ADD SWAP1 PUSH1 0x20 ADD DUP1 DUP4 GT PUSH2 0x1005 JUMPI DUP3 SWAP1 SUB PUSH1 0x1F AND DUP3 ADD SWAP2 JUMPDEST POP POP POP POP POP DUP2 MSTORE PUSH1 0x20 ADD PUSH1 0x3 DUP3 ADD DUP1 SLOAD PUSH2 0x103B SWAP1 PUSH2 0x1D77 JUMP JUMPDEST DUP1 PUSH1 0x1F ADD PUSH1 0x20 DUP1 SWAP2 DIV MUL PUSH1 0x20 ADD PUSH1 0x40 MLOAD SWAP1 DUP2 ADD PUSH1 0x40 MSTORE DUP1 SWAP3 SWAP2 SWAP1 DUP2 DUP2 MSTORE PUSH1 0x20 ADD DUP3 DUP1 SLOAD PUSH2 0x1067 SWAP1 PUSH2 0x1D77 JUMP JUMPDEST DUP1 ISZERO PUSH2 0x10B2 JUMPI DUP1 PUSH1 0x1F LT PUSH2 0x1089 JUMPI PUSH2 0x100 DUP1 DUP4 SLOAD DIV MUL DUP4 MSTORE SWAP2 PUSH1 0x20 ADD SWAP2 PUSH2 0x10B2 JUMP JUMPDEST DUP3 ADD SWAP2 SWAP1 PUSH0 MSTORE PUSH1 0x20 PUSH0 KECCAK256 SWAP1 JUMPDEST DUP2 SLOAD DUP2 MSTORE SWAP1 PUSH1 0x1 ADD SWAP1 PUSH1 0x20 ADD DUP1 DUP4 GT PUSH2 0x1095 JUMPI DUP3 SWAP1 SUB PUSH1 0x1F AND DUP3 ADD SWAP2 JUMPDEST POP POP POP POP POP DUP2 MSTORE PUSH1 0x20 ADD PUSH1 0x4 DUP3 ADD DUP1 SLOAD PUSH2 0x10CB SWAP1 PUSH2 0x1D77 JUMP JUMPDEST DUP1 PUSH1 0x1F ADD PUSH1 0x20 DUP1 SWAP2 DIV MUL PUSH1 0x20 ADD PUSH1 0x40 MLOAD SWAP1 DUP2 ADD PUSH1 0x40 MSTORE DUP1 SWAP3 SWAP2 SWAP1 DUP2 DUP2 MSTORE PUSH1 0x20 ADD DUP3 DUP1 SLOAD PUSH2 0x10F7 SWAP1 PUSH2 0x1D77 JUMP JUMPDEST DUP1 ISZERO PUSH2 0x1142 JUMPI DUP1 PUSH1 0x1F LT PUSH2 0x1119 JUMPI PUSH2 0x100 DUP1 DUP4 SLOAD DIV MUL DUP4 MSTORE SWAP2 PUSH1 0x20 ADD SWAP2 PUSH2 0x1142 JUMP JUMPDEST DUP3 ADD SWAP2 SWAP1 PUSH0 MSTORE PUSH1 0x20 PUSH0 KECCAK256 SWAP1 JUMPDEST DUP2 SLOAD DUP2 MSTORE SWAP1 PUSH1 0x1 ADD SWAP1 PUSH1 0x20 ADD DUP1 DUP4 GT PUSH2 0x1125 JUMPI DUP3 SWAP1 SUB PUSH1 0x1F AND DUP3 ADD SWAP2 JUMPDEST POP POP POP POP POP DUP2 MSTORE PUSH1 0x20 ADD PUSH1 0x5 DUP3 ADD SLOAD DUP2 MSTORE PUSH1 0x20 ADD PUSH1 0x6 DUP3 ADD SLOAD DUP2 MSTORE PUSH1 0x20 ADD PUSH1 0x7 DUP3 ADD SLOAD DUP2 MSTORE PUSH1 0x20 ADD PUSH1 0x8 DUP3 ADD PUSH0 SWAP1 SLOAD SWAP1 PUSH2 0x100 EXP SWAP1 DIV PUSH1 0xFF AND ISZERO ISZERO ISZERO ISZERO DUP2 MSTORE PUSH1 0x20 ADD PUSH1 0x8 DUP3 ADD PUSH1 0x1 SWAP1 SLOAD SWAP1 PUSH2 0x100 EXP SWAP1 DIV PUSH1 0xFF AND ISZERO ISZERO ISZERO ISZERO DUP2 MSTORE POP POP SWAP2 POP POP SWAP2 SWAP1 POP JUMP JUMPDEST DUP5 PUSH1 0x1 PUSH1 0x2 PUSH0 DUP4 DUP2 MSTORE PUSH1 0x20 ADD SWAP1 DUP2 MSTORE PUSH1 0x20 ADD PUSH0 KECCAK256 PUSH0 ADD SLOAD LT ISZERO PUSH2 0x11FE JUMPI PUSH1 0x40 MLOAD PUSH32 0x8C379A000000000000000000000000000000000000000000000000000000000 DUP2 MSTORE PUSH1 0x4 ADD PUSH2 0x11F5 SWAP1 PUSH2 0x1B09 JUMP JUMPDEST PUSH1 0x40 MLOAD DUP1 SWAP2 SUB SWAP1 REVERT JUMPDEST DUP5 PUSH1 0x2 PUSH0 DUP9 DUP2 MSTORE PUSH1 0x20 ADD SWAP1 DUP2 MSTORE PUSH1 0x20 ADD PUSH0 KECCAK256 PUSH1 0x1 ADD SWAP1 DUP2 PUSH2 0x121F SWAP2 SWAP1 PUSH2 0x205D JUMP JUMPDEST POP DUP4 PUSH1 0x2 PUSH0 DUP9 DUP2 MSTORE PUSH1 0x20 ADD SWAP1 DUP2 MSTORE PUSH1 0x20 ADD PUSH0 KECCAK256 PUSH1 0x2 ADD SWAP1 DUP2 PUSH2 0x1241 SWAP2 SWAP1 PUSH2 0x205D JUMP JUMPDEST POP DUP3 PUSH1 0x2 PUSH0 DUP9 DUP2 MSTORE PUSH1 0x20 ADD SWAP1 DUP2 MSTORE PUSH1 0x20 ADD PUSH0 KECCAK256 PUSH1 0x3 ADD SWAP1 DUP2 PUSH2 0x1263 SWAP2 SWAP1 PUSH2 0x205D JUMP JUMPDEST POP DUP2 PUSH1 0x2 PUSH0 DUP9 DUP2 MSTORE PUSH1 0x20 ADD SWAP1 DUP2 MSTORE PUSH1 0x20 ADD PUSH0 KECCAK256 PUSH1 0x4 ADD SWAP1 DUP2 PUSH2 0x1285 SWAP2 SWAP1 PUSH2 0x205D JUMP JUMPDEST POP PUSH32 0x699B4741E93376D2BDD9C5F5A8A0AED91700830694FD4D952F1F41EC3E2C4CB3 DUP6 PUSH0 SLOAD PUSH1 0x1 PUSH1 0x40 MLOAD PUSH2 0x12BB SWAP4 SWAP3 SWAP2 SWAP1 PUSH2 0x212C JUMP JUMPDEST PUSH1 0x40 MLOAD DUP1 SWAP2 SUB SWAP1 LOG1 POP POP POP POP POP POP JUMP JUMPDEST PUSH0 DUP1 SLOAD SWAP1 POP SWAP1 JUMP JUMPDEST PUSH1 0x40 MLOAD DUP1 PUSH2 0x140 ADD PUSH1 0x40 MSTORE DUP1 PUSH0 DUP2 MSTORE PUSH1 0x20 ADD PUSH1 0x60 DUP2 MSTORE PUSH1 0x20 ADD PUSH1 0x60 DUP2 MSTORE PUSH1 0x20 ADD PUSH1 0x60 DUP2 MSTORE PUSH1 0x20 ADD PUSH1 0x60 DUP2 MSTORE PUSH1 0x20 ADD PUSH0 DUP2 MSTORE PUSH1 0x20 ADD PUSH0 DUP2 MSTORE PUSH1 0x20 ADD PUSH0 DUP1 NOT AND DUP2 MSTORE PUSH1 0x20 ADD PUSH0 ISZERO ISZERO DUP2 MSTORE PUSH1 0x20 ADD PUSH0 ISZERO ISZERO DUP2 MSTORE POP SWAP1 JUMP JUMPDEST PUSH0 PUSH1 0x40 MLOAD SWAP1 POP SWAP1 JUMP JUMPDEST PUSH0 DUP1 REVERT JUMPDEST PUSH0 DUP1 REVERT JUMPDEST PUSH0 DUP2 SWAP1 POP SWAP2 SWAP1 POP JUMP JUMPDEST PUSH2 0x134A DUP2 PUSH2 0x1338 JUMP JUMPDEST DUP2 EQ PUSH2 0x1354 JUMPI PUSH0 DUP1 REVERT JUMPDEST POP JUMP JUMPDEST PUSH0 DUP2 CALLDATALOAD SWAP1 POP PUSH2 0x1365 DUP2 PUSH2 0x1341 JUMP JUMPDEST SWAP3 SWAP2 POP POP JUMP JUMPDEST PUSH0 DUP2 SWAP1 POP SWAP2 SWAP1 POP JUMP JUMPDEST PUSH2 0x137D DUP2 PUSH2 0x136B JUMP JUMPDEST DUP2 EQ PUSH2 0x1387 JUMPI PUSH0 DUP1 REVERT JUMPDEST POP JUMP JUMPDEST PUSH0 DUP2 CALLDATALOAD SWAP1 POP PUSH2 0x1398 DUP2 PUSH2 0x1374 JUMP JUMPDEST SWAP3 SWAP2 POP POP JUMP JUMPDEST PUSH0 DUP1 PUSH1 0x40 DUP4 DUP6 SUB SLT ISZERO PUSH2 0x13B4 JUMPI PUSH2 0x13B3 PUSH2 0x1330 JUMP JUMPDEST JUMPDEST PUSH0 PUSH2 0x13C1 DUP6 DUP3 DUP7 ADD PUSH2 0x1357 JUMP JUMPDEST SWAP3 POP POP PUSH1 0x20 PUSH2 0x13D2 DUP6 DUP3 DUP7 ADD PUSH2 0x138A JUMP JUMPDEST SWAP2 POP POP SWAP3 POP SWAP3 SWAP1 POP JUMP JUMPDEST PUSH0 PUSH1 0x20 DUP3 DUP5 SUB SLT ISZERO PUSH2 0x13F1 JUMPI PUSH2 0x13F0 PUSH2 0x1330 JUMP JUMPDEST JUMPDEST PUSH0 PUSH2 0x13FE DUP5 DUP3 DUP6 ADD PUSH2 0x1357 JUMP JUMPDEST SWAP2 POP POP SWAP3 SWAP2 POP POP JUMP JUMPDEST PUSH2 0x1410 DUP2 PUSH2 0x1338 JUMP JUMPDEST DUP3 MSTORE POP POP JUMP JUMPDEST PUSH0 DUP2 MLOAD SWAP1 POP SWAP2 SWAP1 POP JUMP JUMPDEST PUSH0 DUP3 DUP3 MSTORE PUSH1 0x20 DUP3 ADD SWAP1 POP SWAP3 SWAP2 POP POP JUMP JUMPDEST DUP3 DUP2 DUP4 MCOPY PUSH0 DUP4 DUP4 ADD MSTORE POP POP POP JUMP JUMPDEST PUSH0 PUSH1 0x1F NOT PUSH1 0x1F DUP4 ADD AND SWAP1 POP SWAP2 SWAP1 POP JUMP JUMPDEST PUSH0 PUSH2 0x1458 DUP3 PUSH2 0x1416 JUMP JUMPDEST PUSH2 0x1462 DUP2 DUP6 PUSH2 0x1420 JUMP JUMPDEST SWAP4 POP PUSH2 0x1472 DUP2 DUP6 PUSH1 0x20 DUP7 ADD PUSH2 0x1430 JUMP JUMPDEST PUSH2 0x147B DUP2 PUSH2 0x143E JUMP JUMPDEST DUP5 ADD SWAP2 POP POP SWAP3 SWAP2 POP POP JUMP JUMPDEST PUSH2 0x148F DUP2 PUSH2 0x136B JUMP JUMPDEST DUP3 MSTORE POP POP JUMP JUMPDEST PUSH0 DUP2 ISZERO ISZERO SWAP1 POP SWAP2 SWAP1 POP JUMP JUMPDEST PUSH2 0x14A9 DUP2 PUSH2 0x1495 JUMP JUMPDEST DUP3 MSTORE POP POP JUMP JUMPDEST PUSH0 PUSH2 0x140 DUP3 ADD SWAP1 POP PUSH2 0x14C3 PUSH0 DUP4 ADD DUP14 PUSH2 0x1407 JUMP JUMPDEST DUP2 DUP2 SUB PUSH1 0x20 DUP4 ADD MSTORE PUSH2 0x14D5 DUP2 DUP13 PUSH2 0x144E JUMP JUMPDEST SWAP1 POP DUP2 DUP2 SUB PUSH1 0x40 DUP4 ADD MSTORE PUSH2 0x14E9 DUP2 DUP12 PUSH2 0x144E JUMP JUMPDEST SWAP1 POP DUP2 DUP2 SUB PUSH1 0x60 DUP4 ADD MSTORE PUSH2 0x14FD DUP2 DUP11 PUSH2 0x144E JUMP JUMPDEST SWAP1 POP DUP2 DUP2 SUB PUSH1 0x80 DUP4 ADD MSTORE PUSH2 0x1511 DUP2 DUP10 PUSH2 0x144E JUMP JUMPDEST SWAP1 POP PUSH2 0x1520 PUSH1 0xA0 DUP4 ADD DUP9 PUSH2 0x1407 JUMP JUMPDEST PUSH2 0x152D PUSH1 0xC0 DUP4 ADD DUP8 PUSH2 0x1407 JUMP JUMPDEST PUSH2 0x153A PUSH1 0xE0 DUP4 ADD DUP7 PUSH2 0x1486 JUMP JUMPDEST PUSH2 0x1548 PUSH2 0x100 DUP4 ADD DUP6 PUSH2 0x14A0 JUMP JUMPDEST PUSH2 0x1556 PUSH2 0x120 DUP4 ADD DUP5 PUSH2 0x14A0 JUMP JUMPDEST SWAP12 SWAP11 POP POP POP POP POP POP POP POP POP POP POP JUMP JUMPDEST PUSH0 DUP1 REVERT JUMPDEST PUSH0 DUP1 REVERT JUMPDEST PUSH32 0x4E487B7100000000000000000000000000000000000000000000000000000000 PUSH0 MSTORE PUSH1 0x41 PUSH1 0x4 MSTORE PUSH1 0x24 PUSH0 REVERT JUMPDEST PUSH2 0x15A3 DUP3 PUSH2 0x143E JUMP JUMPDEST DUP2 ADD DUP2 DUP2 LT PUSH8 0xFFFFFFFFFFFFFFFF DUP3 GT OR ISZERO PUSH2 0x15C2 JUMPI PUSH2 0x15C1 PUSH2 0x156D JUMP JUMPDEST JUMPDEST DUP1 PUSH1 0x40 MSTORE POP POP POP JUMP JUMPDEST PUSH0 PUSH2 0x15D4 PUSH2 0x1327 JUMP JUMPDEST SWAP1 POP PUSH2 0x15E0 DUP3 DUP3 PUSH2 0x159A JUMP JUMPDEST SWAP2 SWAP1 POP JUMP JUMPDEST PUSH0 PUSH8 0xFFFFFFFFFFFFFFFF DUP3 GT ISZERO PUSH2 0x15FF JUMPI PUSH2 0x15FE PUSH2 0x156D JUMP JUMPDEST JUMPDEST PUSH2 0x1608 DUP3 PUSH2 0x143E JUMP JUMPDEST SWAP1 POP PUSH1 0x20 DUP2 ADD SWAP1 POP SWAP2 SWAP1 POP JUMP JUMPDEST DUP3 DUP2 DUP4 CALLDATACOPY PUSH0 DUP4 DUP4 ADD MSTORE POP POP POP JUMP JUMPDEST PUSH0 PUSH2 0x1635 PUSH2 0x1630 DUP5 PUSH2 0x15E5 JUMP JUMPDEST PUSH2 0x15CB JUMP JUMPDEST SWAP1 POP DUP3 DUP2 MSTORE PUSH1 0x20 DUP2 ADD DUP5 DUP5 DUP5 ADD GT ISZERO PUSH2 0x1651 JUMPI PUSH2 0x1650 PUSH2 0x1569 JUMP JUMPDEST JUMPDEST PUSH2 0x165C DUP5 DUP3 DUP6 PUSH2 0x1615 JUMP JUMPDEST POP SWAP4 SWAP3 POP POP POP JUMP JUMPDEST PUSH0 DUP3 PUSH1 0x1F DUP4 ADD SLT PUSH2 0x1678 JUMPI PUSH2 0x1677 PUSH2 0x1565 JUMP JUMPDEST JUMPDEST DUP2 CALLDATALOAD PUSH2 0x1688 DUP5 DUP3 PUSH1 0x20 DUP7 ADD PUSH2 0x1623 JUMP JUMPDEST SWAP2 POP POP SWAP3 SWAP2 POP POP JUMP JUMPDEST PUSH0 DUP1 PUSH0 DUP1 PUSH1 0x80 DUP6 DUP8 SUB SLT ISZERO PUSH2 0x16A9 JUMPI PUSH2 0x16A8 PUSH2 0x1330 JUMP JUMPDEST JUMPDEST PUSH0 DUP6 ADD CALLDATALOAD PUSH8 0xFFFFFFFFFFFFFFFF DUP2 GT ISZERO PUSH2 0x16C6 JUMPI PUSH2 0x16C5 PUSH2 0x1334 JUMP JUMPDEST JUMPDEST PUSH2 0x16D2 DUP8 DUP3 DUP9 ADD PUSH2 0x1664 JUMP JUMPDEST SWAP5 POP POP PUSH1 0x20 DUP6 ADD CALLDATALOAD PUSH8 0xFFFFFFFFFFFFFFFF DUP2 GT ISZERO PUSH2 0x16F3 JUMPI PUSH2 0x16F2 PUSH2 0x1334 JUMP JUMPDEST JUMPDEST PUSH2 0x16FF DUP8 DUP3 DUP9 ADD PUSH2 0x1664 JUMP JUMPDEST SWAP4 POP POP PUSH1 0x40 DUP6 ADD CALLDATALOAD PUSH8 0xFFFFFFFFFFFFFFFF DUP2 GT ISZERO PUSH2 0x1720 JUMPI PUSH2 0x171F PUSH2 0x1334 JUMP JUMPDEST JUMPDEST PUSH2 0x172C DUP8 DUP3 DUP9 ADD PUSH2 0x1664 JUMP JUMPDEST SWAP3 POP POP PUSH1 0x60 DUP6 ADD CALLDATALOAD PUSH8 0xFFFFFFFFFFFFFFFF DUP2 GT ISZERO PUSH2 0x174D JUMPI PUSH2 0x174C PUSH2 0x1334 JUMP JUMPDEST JUMPDEST PUSH2 0x1759 DUP8 DUP3 DUP9 ADD PUSH2 0x1664 JUMP JUMPDEST SWAP2 POP POP SWAP3 SWAP6 SWAP2 SWAP5 POP SWAP3 POP JUMP JUMPDEST PUSH0 PUSH20 0xFFFFFFFFFFFFFFFFFFFFFFFFFFFFFFFFFFFFFFFF DUP3 AND SWAP1 POP SWAP2 SWAP1 POP JUMP JUMPDEST PUSH0 PUSH2 0x178E DUP3 PUSH2 0x1765 JUMP JUMPDEST SWAP1 POP SWAP2 SWAP1 POP JUMP JUMPDEST PUSH2 0x179E DUP2 PUSH2 0x1784 JUMP JUMPDEST DUP3 MSTORE POP POP JUMP JUMPDEST PUSH0 PUSH1 0x20 DUP3 ADD SWAP1 POP PUSH2 0x17B7 PUSH0 DUP4 ADD DUP5 PUSH2 0x1795 JUMP JUMPDEST SWAP3 SWAP2 POP POP JUMP JUMPDEST PUSH0 PUSH1 0x20 DUP3 ADD SWAP1 POP PUSH2 0x17D0 PUSH0 DUP4 ADD DUP5 PUSH2 0x1407 JUMP JUMPDEST SWAP3 SWAP2 POP POP JUMP JUMPDEST PUSH0 PUSH1 0x20 DUP3 ADD SWAP1 POP PUSH2 0x17E9 PUSH0 DUP4 ADD DUP5 PUSH2 0x1486 JUMP JUMPDEST SWAP3 SWAP2 POP POP JUMP JUMPDEST PUSH2 0x17F8 DUP2 PUSH2 0x1338 JUMP JUMPDEST DUP3 MSTORE POP POP JUMP JUMPDEST PUSH0 DUP3 DUP3 MSTORE PUSH1 0x20 DUP3 ADD SWAP1 POP SWAP3 SWAP2 POP POP JUMP JUMPDEST PUSH0 PUSH2 0x1818 DUP3 PUSH2 0x1416 JUMP JUMPDEST PUSH2 0x1822 DUP2 DUP6 PUSH2 0x17FE JUMP JUMPDEST SWAP4 POP PUSH2 0x1832 DUP2 DUP6 PUSH1 0x20 DUP7 ADD PUSH2 0x1430 JUMP JUMPDEST PUSH2 0x183B DUP2 PUSH2 0x143E JUMP JUMPDEST DUP5 ADD SWAP2 POP POP SWAP3 SWAP2 POP POP JUMP JUMPDEST PUSH2 0x184F DUP2 PUSH2 0x136B JUMP JUMPDEST DUP3 MSTORE POP POP JUMP JUMPDEST PUSH2 0x185E DUP2 PUSH2 0x1495 JUMP JUMPDEST DUP3 MSTORE POP POP JUMP JUMPDEST PUSH0 PUSH2 0x140 DUP4 ADD PUSH0 DUP4 ADD MLOAD PUSH2 0x187A PUSH0 DUP7 ADD DUP3 PUSH2 0x17EF JUMP JUMPDEST POP PUSH1 0x20 DUP4 ADD MLOAD DUP5 DUP3 SUB PUSH1 0x20 DUP7 ADD MSTORE PUSH2 0x1892 DUP3 DUP3 PUSH2 0x180E JUMP JUMPDEST SWAP2 POP POP PUSH1 0x40 DUP4 ADD MLOAD DUP5 DUP3 SUB PUSH1 0x40 DUP7 ADD MSTORE PUSH2 0x18AC DUP3 DUP3 PUSH2 0x180E JUMP JUMPDEST SWAP2 POP POP PUSH1 0x60 DUP4 ADD MLOAD DUP5 DUP3 SUB PUSH1 0x60 DUP7 ADD MSTORE PUSH2 0x18C6 DUP3 DUP3 PUSH2 0x180E JUMP JUMPDEST SWAP2 POP POP PUSH1 0x80 DUP4 ADD MLOAD DUP5 DUP3 SUB PUSH1 0x80 DUP7 ADD MSTORE PUSH2 0x18E0 DUP3 DUP3 PUSH2 0x180E JUMP JUMPDEST SWAP2 POP POP PUSH1 0xA0 DUP4 ADD MLOAD PUSH2 0x18F5 PUSH1 0xA0 DUP7 ADD DUP3 PUSH2 0x17EF JUMP JUMPDEST POP PUSH1 0xC0 DUP4 ADD MLOAD PUSH2 0x1908 PUSH1 0xC0 DUP7 ADD DUP3 PUSH2 0x17EF JUMP JUMPDEST POP PUSH1 0xE0 DUP4 ADD MLOAD PUSH2 0x191B PUSH1 0xE0 DUP7 ADD DUP3 PUSH2 0x1846 JUMP JUMPDEST POP PUSH2 0x100 DUP4 ADD MLOAD PUSH2 0x1930 PUSH2 0x100 DUP7 ADD DUP3 PUSH2 0x1855 JUMP JUMPDEST POP PUSH2 0x120 DUP4 ADD MLOAD PUSH2 0x1945 PUSH2 0x120 DUP7 ADD DUP3 PUSH2 0x1855 JUMP JUMPDEST POP DUP1 SWAP2 POP POP SWAP3 SWAP2 POP POP JUMP JUMPDEST PUSH0 PUSH1 0x20 DUP3 ADD SWAP1 POP DUP2 DUP2 SUB PUSH0 DUP4 ADD MSTORE PUSH2 0x1968 DUP2 DUP5 PUSH2 0x1864 JUMP JUMPDEST SWAP1 POP SWAP3 SWAP2 POP POP JUMP JUMPDEST PUSH0 DUP1 PUSH0 DUP1 PUSH0 PUSH1 0xA0 DUP7 DUP9 SUB SLT ISZERO PUSH2 0x1989 JUMPI PUSH2 0x1988 PUSH2 0x1330 JUMP JUMPDEST JUMPDEST PUSH0 PUSH2 0x1996 DUP9 DUP3 DUP10 ADD PUSH2 0x1357 JUMP JUMPDEST SWAP6 POP POP PUSH1 0x20 DUP7 ADD CALLDATALOAD PUSH8 0xFFFFFFFFFFFFFFFF DUP2 GT ISZERO PUSH2 0x19B7 JUMPI PUSH2 0x19B6 PUSH2 0x1334 JUMP JUMPDEST JUMPDEST PUSH2 0x19C3 DUP9 DUP3 DUP10 ADD PUSH2 0x1664 JUMP JUMPDEST SWAP5 POP POP PUSH1 0x40 DUP7 ADD CALLDATALOAD PUSH8 0xFFFFFFFFFFFFFFFF DUP2 GT ISZERO PUSH2 0x19E4 JUMPI PUSH2 0x19E3 PUSH2 0x1334 JUMP JUMPDEST JUMPDEST PUSH2 0x19F0 DUP9 DUP3 DUP10 ADD PUSH2 0x1664 JUMP JUMPDEST SWAP4 POP POP PUSH1 0x60 DUP7 ADD CALLDATALOAD PUSH8 0xFFFFFFFFFFFFFFFF DUP2 GT ISZERO PUSH2 0x1A11 JUMPI PUSH2 0x1A10 PUSH2 0x1334 JUMP JUMPDEST JUMPDEST PUSH2 0x1A1D DUP9 DUP3 DUP10 ADD PUSH2 0x1664 JUMP JUMPDEST SWAP3 POP POP PUSH1 0x80 DUP7 ADD CALLDATALOAD PUSH8 0xFFFFFFFFFFFFFFFF DUP2 GT ISZERO PUSH2 0x1A3E JUMPI PUSH2 0x1A3D PUSH2 0x1334 JUMP JUMPDEST JUMPDEST PUSH2 0x1A4A DUP9 DUP3 DUP10 ADD PUSH2 0x1664 JUMP JUMPDEST SWAP2 POP POP SWAP3 SWAP6 POP SWAP3 SWAP6 SWAP1 SWAP4 POP JUMP JUMPDEST PUSH32 0x4E6F7420617574686F72697A6564210000000000000000000000000000000000 PUSH0 DUP3 ADD MSTORE POP JUMP JUMPDEST PUSH0 PUSH2 0x1A8B PUSH1 0xF DUP4 PUSH2 0x1420 JUMP JUMPDEST SWAP2 POP PUSH2 0x1A96 DUP3 PUSH2 0x1A57 JUMP JUMPDEST PUSH1 0x20 DUP3 ADD SWAP1 POP SWAP2 SWAP1 POP JUMP JUMPDEST PUSH0 PUSH1 0x20 DUP3 ADD SWAP1 POP DUP2 DUP2 SUB PUSH0 DUP4 ADD MSTORE PUSH2 0x1AB8 DUP2 PUSH2 0x1A7F JUMP JUMPDEST SWAP1 POP SWAP2 SWAP1 POP JUMP JUMPDEST PUSH32 0x56697369746F72204964206E6F7420666F756E64000000000000000000000000 PUSH0 DUP3 ADD MSTORE POP JUMP JUMPDEST PUSH0 PUSH2 0x1AF3 PUSH1 0x14 DUP4 PUSH2 0x1420 JUMP JUMPDEST SWAP2 POP PUSH2 0x1AFE DUP3 PUSH2 0x1ABF JUMP JUMPDEST PUSH1 0x20 DUP3 ADD SWAP1 POP SWAP2 SWAP1 POP JUMP JUMPDEST PUSH0 PUSH1 0x20 DUP3 ADD SWAP1 POP DUP2 DUP2 SUB PUSH0 DUP4 ADD MSTORE PUSH2 0x1B20 DUP2 PUSH2 0x1AE7 JUMP JUMPDEST SWAP1 POP SWAP2 SWAP1 POP JUMP JUMPDEST PUSH32 0x546869732076697369746F722068617320616C726561647920636865636B6564 PUSH0 DUP3 ADD MSTORE PUSH32 0x206F757421000000000000000000000000000000000000000000000000000000 PUSH1 0x20 DUP3 ADD MSTORE POP JUMP JUMPDEST PUSH0 PUSH2 0x1B81 PUSH1 0x25 DUP4 PUSH2 0x1420 JUMP JUMPDEST SWAP2 POP PUSH2 0x1B8C DUP3 PUSH2 0x1B27 JUMP JUMPDEST PUSH1 0x40 DUP3 ADD SWAP1 POP SWAP2 SWAP1 POP JUMP JUMPDEST PUSH0 PUSH1 0x20 DUP3 ADD SWAP1 POP DUP2 DUP2 SUB PUSH0 DUP4 ADD MSTORE PUSH2 0x1BAE DUP2 PUSH2 0x1B75 JUMP JUMPDEST SWAP1 POP SWAP2 SWAP1 POP JUMP JUMPDEST PUSH32 0x5468652076697369746F7220646F6573206E6F74206578697374210000000000 PUSH0 DUP3 ADD MSTORE POP JUMP JUMPDEST PUSH0 PUSH2 0x1BE9 PUSH1 0x1B DUP4 PUSH2 0x1420 JUMP JUMPDEST SWAP2 POP PUSH2 0x1BF4 DUP3 PUSH2 0x1BB5 JUMP JUMPDEST PUSH1 0x20 DUP3 ADD SWAP1 POP SWAP2 SWAP1 POP JUMP JUMPDEST PUSH0 PUSH1 0x20 DUP3 ADD SWAP1 POP DUP2 DUP2 SUB PUSH0 DUP4 ADD MSTORE PUSH2 0x1C16 DUP2 PUSH2 0x1BDD JUMP JUMPDEST SWAP1 POP SWAP2 SWAP1 POP JUMP JUMPDEST POP JUMP JUMPDEST PUSH0 PUSH2 0x1C2B PUSH0 DUP4 PUSH2 0x1420 JUMP JUMPDEST SWAP2 POP PUSH2 0x1C36 DUP3 PUSH2 0x1C1D JUMP JUMPDEST PUSH0 DUP3 ADD SWAP1 POP SWAP2 SWAP1 POP JUMP JUMPDEST PUSH0 PUSH1 0x60 DUP3 ADD SWAP1 POP DUP2 DUP2 SUB PUSH0 DUP4 ADD MSTORE PUSH2 0x1C57 DUP2 PUSH2 0x1C20 JUMP JUMPDEST SWAP1 POP PUSH2 0x1C66 PUSH1 0x20 DUP4 ADD DUP6 PUSH2 0x1407 JUMP JUMPDEST PUSH2 0x1C73 PUSH1 0x40 DUP4 ADD DUP5 PUSH2 0x14A0 JUMP JUMPDEST SWAP4 SWAP3 POP POP POP JUMP JUMPDEST PUSH32 0x5468652076697369746F7220646F6573206E6F74206578697374000000000000 PUSH0 DUP3 ADD MSTORE POP JUMP JUMPDEST PUSH0 PUSH2 0x1CAE PUSH1 0x1A DUP4 PUSH2 0x1420 JUMP JUMPDEST SWAP2 POP PUSH2 0x1CB9 DUP3 PUSH2 0x1C7A JUMP JUMPDEST PUSH1 0x20 DUP3 ADD SWAP1 POP SWAP2 SWAP1 POP JUMP JUMPDEST PUSH0 PUSH1 0x20 DUP3 ADD SWAP1 POP DUP2 DUP2 SUB PUSH0 DUP4 ADD MSTORE PUSH2 0x1CDB DUP2 PUSH2 0x1CA2 JUMP JUMPDEST SWAP1 POP SWAP2 SWAP1 POP JUMP JUMPDEST PUSH32 0x596F75206861766520616C726561647920636865636B6564206F757400000000 PUSH0 DUP3 ADD MSTORE POP JUMP JUMPDEST PUSH0 PUSH2 0x1D16 PUSH1 0x1C DUP4 PUSH2 0x1420 JUMP JUMPDEST SWAP2 POP PUSH2 0x1D21 DUP3 PUSH2 0x1CE2 JUMP JUMPDEST PUSH1 0x20 DUP3 ADD SWAP1 POP SWAP2 SWAP1 POP JUMP JUMPDEST PUSH0 PUSH1 0x20 DUP3 ADD SWAP1 POP DUP2 DUP2 SUB PUSH0 DUP4 ADD MSTORE PUSH2 0x1D43 DUP2 PUSH2 0x1D0A JUMP JUMPDEST SWAP1 POP SWAP2 SWAP1 POP JUMP JUMPDEST PUSH32 0x4E487B7100000000000000000000000000000000000000000000000000000000 PUSH0 MSTORE PUSH1 0x22 PUSH1 0x4 MSTORE PUSH1 0x24 PUSH0 REVERT JUMPDEST PUSH0 PUSH1 0x2 DUP3 DIV SWAP1 POP PUSH1 0x1 DUP3 AND DUP1 PUSH2 0x1D8E JUMPI PUSH1 0x7F DUP3 AND SWAP2 POP JUMPDEST PUSH1 0x20 DUP3 LT DUP2 SUB PUSH2 0x1DA1 JUMPI PUSH2 0x1DA0 PUSH2 0x1D4A JUMP JUMPDEST JUMPDEST POP SWAP2 SWAP1 POP JUMP JUMPDEST PUSH32 0x546869732076697369746F72206973206E6F7420636865636B656420696E2100 PUSH0 DUP3 ADD MSTORE POP JUMP JUMPDEST PUSH0 PUSH2 0x1DDB PUSH1 0x1F DUP4 PUSH2 0x1420 JUMP JUMPDEST SWAP2 POP PUSH2 0x1DE6 DUP3 PUSH2 0x1DA7 JUMP JUMPDEST PUSH1 0x20 DUP3 ADD SWAP1 POP SWAP2 SWAP1 POP JUMP JUMPDEST PUSH0 PUSH1 0x20 DUP3 ADD SWAP1 POP DUP2 DUP2 SUB PUSH0 DUP4 ADD MSTORE PUSH2 0x1E08 DUP2 PUSH2 0x1DCF JUMP JUMPDEST SWAP1 POP SWAP2 SWAP1 POP JUMP JUMPDEST PUSH32 0x636865636B6F7574206661696C65640000000000000000000000000000000000 DUP2 MSTORE POP JUMP JUMPDEST PUSH0 PUSH1 0x20 DUP3 ADD SWAP1 POP PUSH2 0x1E47 PUSH0 DUP4 ADD PUSH2 0x1E0F JUMP JUMPDEST SWAP2 SWAP1 POP JUMP JUMPDEST PUSH32 0x4E487B7100000000000000000000000000000000000000000000000000000000 PUSH0 MSTORE PUSH1 0x11 PUSH1 0x4 MSTORE PUSH1 0x24 PUSH0 REVERT JUMPDEST PUSH0 PUSH2 0x1E83 DUP3 PUSH2 0x1338 JUMP JUMPDEST SWAP2 POP PUSH32 0xFFFFFFFFFFFFFFFFFFFFFFFFFFFFFFFFFFFFFFFFFFFFFFFFFFFFFFFFFFFFFFFF DUP3 SUB PUSH2 0x1EB5 JUMPI PUSH2 0x1EB4 PUSH2 0x1E4C JUMP JUMPDEST JUMPDEST PUSH1 0x1 DUP3 ADD SWAP1 POP SWAP2 SWAP1 POP JUMP JUMPDEST PUSH0 DUP2 SWAP1 POP DUP2 PUSH0 MSTORE PUSH1 0x20 PUSH0 KECCAK256 SWAP1 POP SWAP2 SWAP1 POP JUMP JUMPDEST PUSH0 PUSH1 0x20 PUSH1 0x1F DUP4 ADD DIV SWAP1 POP SWAP2 SWAP1 POP JUMP JUMPDEST PUSH0 DUP3 DUP3 SHL SWAP1 POP SWAP3 SWAP2 POP POP JUMP JUMPDEST PUSH0 PUSH1 0x8 DUP4 MUL PUSH2 0x1F1C PUSH32 0xFFFFFFFFFFFFFFFFFFFFFFFFFFFFFFFFFFFFFFFFFFFFFFFFFFFFFFFFFFFFFFFF DUP3 PUSH2 0x1EE1 JUMP JUMPDEST PUSH2 0x1F26 DUP7 DUP4 PUSH2 0x1EE1 JUMP JUMPDEST SWAP6 POP DUP1 NOT DUP5 AND SWAP4 POP DUP1 DUP7 AND DUP5 OR SWAP3 POP POP POP SWAP4 SWAP3 POP POP POP JUMP JUMPDEST PUSH0 DUP2 SWAP1 POP SWAP2 SWAP1 POP JUMP JUMPDEST PUSH0 PUSH2 0x1F61 PUSH2 0x1F5C PUSH2 0x1F57 DUP5 PUSH2 0x1338 JUMP JUMPDEST PUSH2 0x1F3E JUMP JUMPDEST PUSH2 0x1338 JUMP JUMPDEST SWAP1 POP SWAP2 SWAP1 POP JUMP JUMPDEST PUSH0 DUP2 SWAP1 POP SWAP2 SWAP1 POP JUMP JUMPDEST PUSH2 0x1F7A DUP4 PUSH2 0x1F47 JUMP JUMPDEST PUSH2 0x1F8E PUSH2 0x1F86 DUP3 PUSH2 0x1F68 JUMP JUMPDEST DUP5 DUP5 SLOAD PUSH2 0x1EED JUMP JUMPDEST DUP3 SSTORE POP POP POP POP JUMP JUMPDEST PUSH0 SWAP1 JUMP JUMPDEST PUSH2 0x1FA2 PUSH2 0x1F96 JUMP JUMPDEST PUSH2 0x1FAD DUP2 DUP5 DUP5 PUSH2 0x1F71 JUMP JUMPDEST POP POP POP JUMP JUMPDEST JUMPDEST DUP2 DUP2 LT ISZERO PUSH2 0x1FD0 JUMPI PUSH2 0x1FC5 PUSH0 DUP3 PUSH2 0x1F9A JUMP JUMPDEST PUSH1 0x1 DUP2 ADD SWAP1 POP PUSH2 0x1FB3 JUMP JUMPDEST POP POP JUMP JUMPDEST PUSH1 0x1F DUP3 GT ISZERO PUSH2 0x2015 JUMPI PUSH2 0x1FE6 DUP2 PUSH2 0x1EC0 JUMP JUMPDEST PUSH2 0x1FEF DUP5 PUSH2 0x1ED2 JUMP JUMPDEST DUP2 ADD PUSH1 0x20 DUP6 LT ISZERO PUSH2 0x1FFE JUMPI DUP2 SWAP1 POP JUMPDEST PUSH2 0x2012 PUSH2 0x200A DUP6 PUSH2 0x1ED2 JUMP JUMPDEST DUP4 ADD DUP3 PUSH2 0x1FB2 JUMP JUMPDEST POP POP JUMPDEST POP POP POP JUMP JUMPDEST PUSH0 DUP3 DUP3 SHR SWAP1 POP SWAP3 SWAP2 POP POP JUMP JUMPDEST PUSH0 PUSH2 0x2035 PUSH0 NOT DUP5 PUSH1 0x8 MUL PUSH2 0x201A JUMP JUMPDEST NOT DUP1 DUP4 AND SWAP2 POP POP SWAP3 SWAP2 POP POP JUMP JUMPDEST PUSH0 PUSH2 0x204D DUP4 DUP4 PUSH2 0x2026 JUMP JUMPDEST SWAP2 POP DUP3 PUSH1 0x2 MUL DUP3 OR SWAP1 POP SWAP3 SWAP2 POP POP JUMP JUMPDEST PUSH2 0x2066 DUP3 PUSH2 0x1416 JUMP JUMPDEST PUSH8 0xFFFFFFFFFFFFFFFF DUP2 GT ISZERO PUSH2 0x207F JUMPI PUSH2 0x207E PUSH2 0x156D JUMP JUMPDEST JUMPDEST PUSH2 0x2089 DUP3 SLOAD PUSH2 0x1D77 JUMP JUMPDEST PUSH2 0x2094 DUP3 DUP3 DUP6 PUSH2 0x1FD4 JUMP JUMPDEST PUSH0 PUSH1 0x20 SWAP1 POP PUSH1 0x1F DUP4 GT PUSH1 0x1 DUP2 EQ PUSH2 0x20C5 JUMPI PUSH0 DUP5 ISZERO PUSH2 0x20B3 JUMPI DUP3 DUP8 ADD MLOAD SWAP1 POP JUMPDEST PUSH2 0x20BD DUP6 DUP3 PUSH2 0x2042 JUMP JUMPDEST DUP7 SSTORE POP PUSH2 0x2124 JUMP JUMPDEST PUSH1 0x1F NOT DUP5 AND PUSH2 0x20D3 DUP7 PUSH2 0x1EC0 JUMP JUMPDEST PUSH0 JUMPDEST DUP3 DUP2 LT ISZERO PUSH2 0x20FA JUMPI DUP5 DUP10 ADD MLOAD DUP3 SSTORE PUSH1 0x1 DUP3 ADD SWAP2 POP PUSH1 0x20 DUP6 ADD SWAP5 POP PUSH1 0x20 DUP2 ADD SWAP1 POP PUSH2 0x20D5 JUMP JUMPDEST DUP7 DUP4 LT ISZERO PUSH2 0x2117 JUMPI DUP5 DUP10 ADD MLOAD PUSH2 0x2113 PUSH1 0x1F DUP10 AND DUP3 PUSH2 0x2026 JUMP JUMPDEST DUP4 SSTORE POP JUMPDEST PUSH1 0x1 PUSH1 0x2 DUP9 MUL ADD DUP9 SSTORE POP POP POP JUMPDEST POP POP POP POP POP POP JUMP JUMPDEST PUSH0 PUSH1 0x60 DUP3 ADD SWAP1 POP DUP2 DUP2 SUB PUSH0 DUP4 ADD MSTORE PUSH2 0x2144 DUP2 DUP7 PUSH2 0x144E JUMP JUMPDEST SWAP1 POP PUSH2 0x2153 PUSH1 0x20 DUP4 ADD DUP6 PUSH2 0x1407 JUMP JUMPDEST PUSH2 0x2160 PUSH1 0x40 DUP4 ADD DUP5 PUSH2 0x14A0 JUMP JUMPDEST SWAP5 SWAP4 POP POP POP POP JUMP INVALID LOG2 PUSH5 0x6970667358 0x22 SLT KECCAK256 JUMPDEST 0xA6 DUP15 0xBA PUSH27 0xA5A07DDD1F6E14A7F53ABA38CF82ED92090D932F18F125D2B9D9E6 PUSH5 0x736F6C6343 STOP ADDMOD BYTE STOP CALLER "
				},
				"gasEstimates": {
					"creation": {
						"codeDepositCost": "1721200",
						"executionCost": "26069",
						"totalCost": "1747269"
					},
					"external": {
						"addVisitor(string,string,string,string)": "infinite",
						"checkOut(uint256)": "57130",
						"checkOutFailed(uint256)": "8365",
						"checkinvisitors()": "infinite",
						"getTotalVisitors()": "2542",
						"getVisitorDetails(uint256)": "infinite",
						"getVisitorSignature(uint256)": "7283",
						"owner()": "2508",
						"totalVisitors()": "2446",
						"updateVisitorDetails(uint256,string,string,string,string)": "infinite",
						"updateVisitorSignature(uint256,bytes32)": "infinite",
						"visitors(uint256)": "infinite"
					}
				},
				"methodIdentifiers": {
					"addVisitor(string,string,string,string)": "8a18ef65",
					"checkOut(uint256)": "1bd2eeee",
					"checkOutFailed(uint256)": "46230406",
					"checkinvisitors()": "34e8659f",
					"getTotalVisitors()": "fcfcf440",
					"getVisitorDetails(uint256)": "c22f6289",
					"getVisitorSignature(uint256)": "a5dd4c5e",
					"owner()": "8da5cb5b",
					"totalVisitors()": "a1702aed",
					"updateVisitorDetails(uint256,string,string,string,string)": "d16208ec",
					"updateVisitorSignature(uint256,bytes32)": "167b548b",
					"visitors(uint256)": "42b71a36"
				}
			},
			"storageLayout": {
				"storage": [
					{
						"astId": 24,
						"contract": "contracts/CheckIn.sol:CheckIn",
						"label": "totalVisitors",
						"offset": 0,
						"slot": "0",
						"type": "t_uint256"
					},
					{
						"astId": 26,
						"contract": "contracts/CheckIn.sol:CheckIn",
						"label": "owner",
						"offset": 0,
						"slot": "1",
						"type": "t_address"
					},
					{
						"astId": 31,
						"contract": "contracts/CheckIn.sol:CheckIn",
						"label": "visitors",
						"offset": 0,
						"slot": "2",
						"type": "t_mapping(t_uint256,t_struct(Visitor)22_storage)"
					},
					{
						"astId": 34,
						"contract": "contracts/CheckIn.sol:CheckIn",
						"label": "checkinvisitors",
						"offset": 0,
						"slot": "3",
						"type": "t_struct(Visitor)22_storage"
					}
				],
				"types": {
					"t_address": {
						"encoding": "inplace",
						"label": "address",
						"numberOfBytes": "20"
					},
					"t_bool": {
						"encoding": "inplace",
						"label": "bool",
						"numberOfBytes": "1"
					},
					"t_bytes32": {
						"encoding": "inplace",
						"label": "bytes32",
						"numberOfBytes": "32"
					},
					"t_mapping(t_uint256,t_struct(Visitor)22_storage)": {
						"encoding": "mapping",
						"key": "t_uint256",
						"label": "mapping(uint256 => struct CheckIn.Visitor)",
						"numberOfBytes": "32",
						"value": "t_struct(Visitor)22_storage"
					},
					"t_string_storage": {
						"encoding": "bytes",
						"label": "string",
						"numberOfBytes": "32"
					},
					"t_struct(Visitor)22_storage": {
						"encoding": "inplace",
						"label": "struct CheckIn.Visitor",
						"members": [
							{
								"astId": 3,
								"contract": "contracts/CheckIn.sol:CheckIn",
								"label": "Id",
								"offset": 0,
								"slot": "0",
								"type": "t_uint256"
							},
							{
								"astId": 5,
								"contract": "contracts/CheckIn.sol:CheckIn",
								"label": "name",
								"offset": 0,
								"slot": "1",
								"type": "t_string_storage"
							},
							{
								"astId": 7,
								"contract": "contracts/CheckIn.sol:CheckIn",
								"label": "contact",
								"offset": 0,
								"slot": "2",
								"type": "t_string_storage"
							},
							{
								"astId": 9,
								"contract": "contracts/CheckIn.sol:CheckIn",
								"label": "recipient",
								"offset": 0,
								"slot": "3",
								"type": "t_string_storage"
							},
							{
								"astId": 11,
								"contract": "contracts/CheckIn.sol:CheckIn",
								"label": "purpose",
								"offset": 0,
								"slot": "4",
								"type": "t_string_storage"
							},
							{
								"astId": 13,
								"contract": "contracts/CheckIn.sol:CheckIn",
								"label": "timeIn",
								"offset": 0,
								"slot": "5",
								"type": "t_uint256"
							},
							{
								"astId": 15,
								"contract": "contracts/CheckIn.sol:CheckIn",
								"label": "timeOut",
								"offset": 0,
								"slot": "6",
								"type": "t_uint256"
							},
							{
								"astId": 17,
								"contract": "contracts/CheckIn.sol:CheckIn",
								"label": "signature",
								"offset": 0,
								"slot": "7",
								"type": "t_bytes32"
							},
							{
								"astId": 19,
								"contract": "contracts/CheckIn.sol:CheckIn",
								"label": "isCheckedIn",
								"offset": 0,
								"slot": "8",
								"type": "t_bool"
							},
							{
								"astId": 21,
								"contract": "contracts/CheckIn.sol:CheckIn",
								"label": "isCheckedOut",
								"offset": 1,
								"slot": "8",
								"type": "t_bool"
							}
						],
						"numberOfBytes": "288"
					},
					"t_uint256": {
						"encoding": "inplace",
						"label": "uint256",
						"numberOfBytes": "32"
					}
				}
			},
			"userdoc": {
				"kind": "user",
				"methods": {},
				"version": 1
			}
		}
	}
}